Archive member included to satisfy reference by file (symbol)

/opt/gcc-arm-none-eabi-9-2020-q2-update/bin/../lib/gcc/arm-none-eabi/9.3.1/../../../../arm-none-eabi/lib/thumb/v7e-m+fp/hard/libc_nano.a(lib_a-exit.o)
                              /opt/gcc-arm-none-eabi-9-2020-q2-update/bin/../lib/gcc/arm-none-eabi/9.3.1/../../../../arm-none-eabi/lib/thumb/v7e-m+fp/hard/crt0.o (exit)
/opt/gcc-arm-none-eabi-9-2020-q2-update/bin/../lib/gcc/arm-none-eabi/9.3.1/../../../../arm-none-eabi/lib/thumb/v7e-m+fp/hard/libc_nano.a(lib_a-impure.o)
                              /opt/gcc-arm-none-eabi-9-2020-q2-update/bin/../lib/gcc/arm-none-eabi/9.3.1/../../../../arm-none-eabi/lib/thumb/v7e-m+fp/hard/libc_nano.a(lib_a-exit.o) (_global_impure_ptr)
/opt/gcc-arm-none-eabi-9-2020-q2-update/bin/../lib/gcc/arm-none-eabi/9.3.1/../../../../arm-none-eabi/lib/thumb/v7e-m+fp/hard/libc_nano.a(lib_a-init.o)
                              /opt/gcc-arm-none-eabi-9-2020-q2-update/bin/../lib/gcc/arm-none-eabi/9.3.1/../../../../arm-none-eabi/lib/thumb/v7e-m+fp/hard/crt0.o (__libc_init_array)
/opt/gcc-arm-none-eabi-9-2020-q2-update/bin/../lib/gcc/arm-none-eabi/9.3.1/../../../../arm-none-eabi/lib/thumb/v7e-m+fp/hard/libc_nano.a(lib_a-memcpy-stub.o)
                              build/main.o (memcpy)
/opt/gcc-arm-none-eabi-9-2020-q2-update/bin/../lib/gcc/arm-none-eabi/9.3.1/../../../../arm-none-eabi/lib/thumb/v7e-m+fp/hard/libc_nano.a(lib_a-memset.o)
                              /opt/gcc-arm-none-eabi-9-2020-q2-update/bin/../lib/gcc/arm-none-eabi/9.3.1/../../../../arm-none-eabi/lib/thumb/v7e-m+fp/hard/crt0.o (memset)
/opt/gcc-arm-none-eabi-9-2020-q2-update/bin/../lib/gcc/arm-none-eabi/9.3.1/../../../../arm-none-eabi/lib/thumb/v7e-m+fp/hard/libc_nano.a(lib_a-printf.o)
                              build/device.o (printf)
/opt/gcc-arm-none-eabi-9-2020-q2-update/bin/../lib/gcc/arm-none-eabi/9.3.1/../../../../arm-none-eabi/lib/thumb/v7e-m+fp/hard/libc_nano.a(lib_a-sprintf.o)
                              build/uptime.o (sprintf)
/opt/gcc-arm-none-eabi-9-2020-q2-update/bin/../lib/gcc/arm-none-eabi/9.3.1/../../../../arm-none-eabi/lib/thumb/v7e-m+fp/hard/libc_nano.a(lib_a-findfp.o)
                              /opt/gcc-arm-none-eabi-9-2020-q2-update/bin/../lib/gcc/arm-none-eabi/9.3.1/../../../../arm-none-eabi/lib/thumb/v7e-m+fp/hard/libc_nano.a(lib_a-printf.o) (__sinit)
/opt/gcc-arm-none-eabi-9-2020-q2-update/bin/../lib/gcc/arm-none-eabi/9.3.1/../../../../arm-none-eabi/lib/thumb/v7e-m+fp/hard/libc_nano.a(lib_a-fwalk.o)
                              /opt/gcc-arm-none-eabi-9-2020-q2-update/bin/../lib/gcc/arm-none-eabi/9.3.1/../../../../arm-none-eabi/lib/thumb/v7e-m+fp/hard/libc_nano.a(lib_a-findfp.o) (_fwalk)
/opt/gcc-arm-none-eabi-9-2020-q2-update/bin/../lib/gcc/arm-none-eabi/9.3.1/../../../../arm-none-eabi/lib/thumb/v7e-m+fp/hard/libc_nano.a(lib_a-lock.o)
                              /opt/gcc-arm-none-eabi-9-2020-q2-update/bin/../lib/gcc/arm-none-eabi/9.3.1/../../../../arm-none-eabi/lib/thumb/v7e-m+fp/hard/libc_nano.a(lib_a-findfp.o) (__retarget_lock_init_recursive)
/opt/gcc-arm-none-eabi-9-2020-q2-update/bin/../lib/gcc/arm-none-eabi/9.3.1/../../../../arm-none-eabi/lib/thumb/v7e-m+fp/hard/libc_nano.a(lib_a-nano-mallocr.o)
                              /opt/gcc-arm-none-eabi-9-2020-q2-update/bin/../lib/gcc/arm-none-eabi/9.3.1/../../../../arm-none-eabi/lib/thumb/v7e-m+fp/hard/libc_nano.a(lib_a-findfp.o) (_malloc_r)
/opt/gcc-arm-none-eabi-9-2020-q2-update/bin/../lib/gcc/arm-none-eabi/9.3.1/../../../../arm-none-eabi/lib/thumb/v7e-m+fp/hard/libc_nano.a(lib_a-nano-svfprintf.o)
                              /opt/gcc-arm-none-eabi-9-2020-q2-update/bin/../lib/gcc/arm-none-eabi/9.3.1/../../../../arm-none-eabi/lib/thumb/v7e-m+fp/hard/libc_nano.a(lib_a-sprintf.o) (_svfprintf_r)
/opt/gcc-arm-none-eabi-9-2020-q2-update/bin/../lib/gcc/arm-none-eabi/9.3.1/../../../../arm-none-eabi/lib/thumb/v7e-m+fp/hard/libc_nano.a(lib_a-nano-vfprintf.o)
                              /opt/gcc-arm-none-eabi-9-2020-q2-update/bin/../lib/gcc/arm-none-eabi/9.3.1/../../../../arm-none-eabi/lib/thumb/v7e-m+fp/hard/libc_nano.a(lib_a-printf.o) (_vfprintf_r)
/opt/gcc-arm-none-eabi-9-2020-q2-update/bin/../lib/gcc/arm-none-eabi/9.3.1/../../../../arm-none-eabi/lib/thumb/v7e-m+fp/hard/libc_nano.a(lib_a-nano-vfprintf_i.o)
                              /opt/gcc-arm-none-eabi-9-2020-q2-update/bin/../lib/gcc/arm-none-eabi/9.3.1/../../../../arm-none-eabi/lib/thumb/v7e-m+fp/hard/libc_nano.a(lib_a-nano-svfprintf.o) (_printf_i)
/opt/gcc-arm-none-eabi-9-2020-q2-update/bin/../lib/gcc/arm-none-eabi/9.3.1/../../../../arm-none-eabi/lib/thumb/v7e-m+fp/hard/libc_nano.a(lib_a-sbrkr.o)
                              /opt/gcc-arm-none-eabi-9-2020-q2-update/bin/../lib/gcc/arm-none-eabi/9.3.1/../../../../arm-none-eabi/lib/thumb/v7e-m+fp/hard/libc_nano.a(lib_a-nano-mallocr.o) (_sbrk_r)
/opt/gcc-arm-none-eabi-9-2020-q2-update/bin/../lib/gcc/arm-none-eabi/9.3.1/../../../../arm-none-eabi/lib/thumb/v7e-m+fp/hard/libc_nano.a(lib_a-stdio.o)
                              /opt/gcc-arm-none-eabi-9-2020-q2-update/bin/../lib/gcc/arm-none-eabi/9.3.1/../../../../arm-none-eabi/lib/thumb/v7e-m+fp/hard/libc_nano.a(lib_a-findfp.o) (__sread)
/opt/gcc-arm-none-eabi-9-2020-q2-update/bin/../lib/gcc/arm-none-eabi/9.3.1/../../../../arm-none-eabi/lib/thumb/v7e-m+fp/hard/libc_nano.a(lib_a-wbuf.o)
                              /opt/gcc-arm-none-eabi-9-2020-q2-update/bin/../lib/gcc/arm-none-eabi/9.3.1/../../../../arm-none-eabi/lib/thumb/v7e-m+fp/hard/libc_nano.a(lib_a-nano-vfprintf.o) (__swbuf_r)
/opt/gcc-arm-none-eabi-9-2020-q2-update/bin/../lib/gcc/arm-none-eabi/9.3.1/../../../../arm-none-eabi/lib/thumb/v7e-m+fp/hard/libc_nano.a(lib_a-writer.o)
                              /opt/gcc-arm-none-eabi-9-2020-q2-update/bin/../lib/gcc/arm-none-eabi/9.3.1/../../../../arm-none-eabi/lib/thumb/v7e-m+fp/hard/libc_nano.a(lib_a-stdio.o) (_write_r)
/opt/gcc-arm-none-eabi-9-2020-q2-update/bin/../lib/gcc/arm-none-eabi/9.3.1/../../../../arm-none-eabi/lib/thumb/v7e-m+fp/hard/libc_nano.a(lib_a-wsetup.o)
                              /opt/gcc-arm-none-eabi-9-2020-q2-update/bin/../lib/gcc/arm-none-eabi/9.3.1/../../../../arm-none-eabi/lib/thumb/v7e-m+fp/hard/libc_nano.a(lib_a-nano-vfprintf.o) (__swsetup_r)
/opt/gcc-arm-none-eabi-9-2020-q2-update/bin/../lib/gcc/arm-none-eabi/9.3.1/../../../../arm-none-eabi/lib/thumb/v7e-m+fp/hard/libc_nano.a(lib_a-closer.o)
                              /opt/gcc-arm-none-eabi-9-2020-q2-update/bin/../lib/gcc/arm-none-eabi/9.3.1/../../../../arm-none-eabi/lib/thumb/v7e-m+fp/hard/libc_nano.a(lib_a-stdio.o) (_close_r)
/opt/gcc-arm-none-eabi-9-2020-q2-update/bin/../lib/gcc/arm-none-eabi/9.3.1/../../../../arm-none-eabi/lib/thumb/v7e-m+fp/hard/libc_nano.a(lib_a-fflush.o)
                              /opt/gcc-arm-none-eabi-9-2020-q2-update/bin/../lib/gcc/arm-none-eabi/9.3.1/../../../../arm-none-eabi/lib/thumb/v7e-m+fp/hard/libc_nano.a(lib_a-findfp.o) (_fflush_r)
/opt/gcc-arm-none-eabi-9-2020-q2-update/bin/../lib/gcc/arm-none-eabi/9.3.1/../../../../arm-none-eabi/lib/thumb/v7e-m+fp/hard/libc_nano.a(lib_a-fvwrite.o)
                              /opt/gcc-arm-none-eabi-9-2020-q2-update/bin/../lib/gcc/arm-none-eabi/9.3.1/../../../../arm-none-eabi/lib/thumb/v7e-m+fp/hard/libc_nano.a(lib_a-nano-vfprintf.o) (__sfvwrite_r)
/opt/gcc-arm-none-eabi-9-2020-q2-update/bin/../lib/gcc/arm-none-eabi/9.3.1/../../../../arm-none-eabi/lib/thumb/v7e-m+fp/hard/libc_nano.a(lib_a-lseekr.o)
                              /opt/gcc-arm-none-eabi-9-2020-q2-update/bin/../lib/gcc/arm-none-eabi/9.3.1/../../../../arm-none-eabi/lib/thumb/v7e-m+fp/hard/libc_nano.a(lib_a-stdio.o) (_lseek_r)
/opt/gcc-arm-none-eabi-9-2020-q2-update/bin/../lib/gcc/arm-none-eabi/9.3.1/../../../../arm-none-eabi/lib/thumb/v7e-m+fp/hard/libc_nano.a(lib_a-makebuf.o)
                              /opt/gcc-arm-none-eabi-9-2020-q2-update/bin/../lib/gcc/arm-none-eabi/9.3.1/../../../../arm-none-eabi/lib/thumb/v7e-m+fp/hard/libc_nano.a(lib_a-wsetup.o) (__smakebuf_r)
/opt/gcc-arm-none-eabi-9-2020-q2-update/bin/../lib/gcc/arm-none-eabi/9.3.1/../../../../arm-none-eabi/lib/thumb/v7e-m+fp/hard/libc_nano.a(lib_a-memchr.o)
                              /opt/gcc-arm-none-eabi-9-2020-q2-update/bin/../lib/gcc/arm-none-eabi/9.3.1/../../../../arm-none-eabi/lib/thumb/v7e-m+fp/hard/libc_nano.a(lib_a-nano-svfprintf.o) (memchr)
/opt/gcc-arm-none-eabi-9-2020-q2-update/bin/../lib/gcc/arm-none-eabi/9.3.1/../../../../arm-none-eabi/lib/thumb/v7e-m+fp/hard/libc_nano.a(lib_a-memmove.o)
                              /opt/gcc-arm-none-eabi-9-2020-q2-update/bin/../lib/gcc/arm-none-eabi/9.3.1/../../../../arm-none-eabi/lib/thumb/v7e-m+fp/hard/libc_nano.a(lib_a-nano-svfprintf.o) (memmove)
/opt/gcc-arm-none-eabi-9-2020-q2-update/bin/../lib/gcc/arm-none-eabi/9.3.1/../../../../arm-none-eabi/lib/thumb/v7e-m+fp/hard/libc_nano.a(lib_a-mlock.o)
                              /opt/gcc-arm-none-eabi-9-2020-q2-update/bin/../lib/gcc/arm-none-eabi/9.3.1/../../../../arm-none-eabi/lib/thumb/v7e-m+fp/hard/libc_nano.a(lib_a-nano-mallocr.o) (__malloc_lock)
/opt/gcc-arm-none-eabi-9-2020-q2-update/bin/../lib/gcc/arm-none-eabi/9.3.1/../../../../arm-none-eabi/lib/thumb/v7e-m+fp/hard/libc_nano.a(lib_a-nano-freer.o)
                              /opt/gcc-arm-none-eabi-9-2020-q2-update/bin/../lib/gcc/arm-none-eabi/9.3.1/../../../../arm-none-eabi/lib/thumb/v7e-m+fp/hard/libc_nano.a(lib_a-nano-svfprintf.o) (_free_r)
/opt/gcc-arm-none-eabi-9-2020-q2-update/bin/../lib/gcc/arm-none-eabi/9.3.1/../../../../arm-none-eabi/lib/thumb/v7e-m+fp/hard/libc_nano.a(lib_a-nano-reallocr.o)
                              /opt/gcc-arm-none-eabi-9-2020-q2-update/bin/../lib/gcc/arm-none-eabi/9.3.1/../../../../arm-none-eabi/lib/thumb/v7e-m+fp/hard/libc_nano.a(lib_a-nano-svfprintf.o) (_realloc_r)
/opt/gcc-arm-none-eabi-9-2020-q2-update/bin/../lib/gcc/arm-none-eabi/9.3.1/../../../../arm-none-eabi/lib/thumb/v7e-m+fp/hard/libc_nano.a(lib_a-readr.o)
                              /opt/gcc-arm-none-eabi-9-2020-q2-update/bin/../lib/gcc/arm-none-eabi/9.3.1/../../../../arm-none-eabi/lib/thumb/v7e-m+fp/hard/libc_nano.a(lib_a-stdio.o) (_read_r)
/opt/gcc-arm-none-eabi-9-2020-q2-update/bin/../lib/gcc/arm-none-eabi/9.3.1/../../../../arm-none-eabi/lib/thumb/v7e-m+fp/hard/libc_nano.a(lib_a-reent.o)
                              /opt/gcc-arm-none-eabi-9-2020-q2-update/bin/../lib/gcc/arm-none-eabi/9.3.1/../../../../arm-none-eabi/lib/thumb/v7e-m+fp/hard/libc_nano.a(lib_a-sbrkr.o) (errno)
/opt/gcc-arm-none-eabi-9-2020-q2-update/bin/../lib/gcc/arm-none-eabi/9.3.1/../../../../arm-none-eabi/lib/thumb/v7e-m+fp/hard/libc_nano.a(lib_a-fstatr.o)
                              /opt/gcc-arm-none-eabi-9-2020-q2-update/bin/../lib/gcc/arm-none-eabi/9.3.1/../../../../arm-none-eabi/lib/thumb/v7e-m+fp/hard/libc_nano.a(lib_a-makebuf.o) (_fstat_r)
/opt/gcc-arm-none-eabi-9-2020-q2-update/bin/../lib/gcc/arm-none-eabi/9.3.1/../../../../arm-none-eabi/lib/thumb/v7e-m+fp/hard/libc_nano.a(lib_a-isattyr.o)
                              /opt/gcc-arm-none-eabi-9-2020-q2-update/bin/../lib/gcc/arm-none-eabi/9.3.1/../../../../arm-none-eabi/lib/thumb/v7e-m+fp/hard/libc_nano.a(lib_a-makebuf.o) (_isatty_r)
/opt/gcc-arm-none-eabi-9-2020-q2-update/bin/../lib/gcc/arm-none-eabi/9.3.1/../../../../arm-none-eabi/lib/thumb/v7e-m+fp/hard/libc_nano.a(lib_a-nano-msizer.o)
                              /opt/gcc-arm-none-eabi-9-2020-q2-update/bin/../lib/gcc/arm-none-eabi/9.3.1/../../../../arm-none-eabi/lib/thumb/v7e-m+fp/hard/libc_nano.a(lib_a-nano-reallocr.o) (_malloc_usable_size_r)
/opt/gcc-arm-none-eabi-9-2020-q2-update/bin/../lib/gcc/arm-none-eabi/9.3.1/../../../../arm-none-eabi/lib/thumb/v7e-m+fp/hard/libnosys.a(close.o)
                              /opt/gcc-arm-none-eabi-9-2020-q2-update/bin/../lib/gcc/arm-none-eabi/9.3.1/../../../../arm-none-eabi/lib/thumb/v7e-m+fp/hard/libc_nano.a(lib_a-closer.o) (_close)
/opt/gcc-arm-none-eabi-9-2020-q2-update/bin/../lib/gcc/arm-none-eabi/9.3.1/../../../../arm-none-eabi/lib/thumb/v7e-m+fp/hard/libnosys.a(fstat.o)
                              /opt/gcc-arm-none-eabi-9-2020-q2-update/bin/../lib/gcc/arm-none-eabi/9.3.1/../../../../arm-none-eabi/lib/thumb/v7e-m+fp/hard/libc_nano.a(lib_a-fstatr.o) (_fstat)
/opt/gcc-arm-none-eabi-9-2020-q2-update/bin/../lib/gcc/arm-none-eabi/9.3.1/../../../../arm-none-eabi/lib/thumb/v7e-m+fp/hard/libnosys.a(isatty.o)
                              /opt/gcc-arm-none-eabi-9-2020-q2-update/bin/../lib/gcc/arm-none-eabi/9.3.1/../../../../arm-none-eabi/lib/thumb/v7e-m+fp/hard/libc_nano.a(lib_a-isattyr.o) (_isatty)
/opt/gcc-arm-none-eabi-9-2020-q2-update/bin/../lib/gcc/arm-none-eabi/9.3.1/../../../../arm-none-eabi/lib/thumb/v7e-m+fp/hard/libnosys.a(lseek.o)
                              /opt/gcc-arm-none-eabi-9-2020-q2-update/bin/../lib/gcc/arm-none-eabi/9.3.1/../../../../arm-none-eabi/lib/thumb/v7e-m+fp/hard/libc_nano.a(lib_a-lseekr.o) (_lseek)
/opt/gcc-arm-none-eabi-9-2020-q2-update/bin/../lib/gcc/arm-none-eabi/9.3.1/../../../../arm-none-eabi/lib/thumb/v7e-m+fp/hard/libnosys.a(read.o)
                              /opt/gcc-arm-none-eabi-9-2020-q2-update/bin/../lib/gcc/arm-none-eabi/9.3.1/../../../../arm-none-eabi/lib/thumb/v7e-m+fp/hard/libc_nano.a(lib_a-readr.o) (_read)
/opt/gcc-arm-none-eabi-9-2020-q2-update/bin/../lib/gcc/arm-none-eabi/9.3.1/../../../../arm-none-eabi/lib/thumb/v7e-m+fp/hard/libnosys.a(sbrk.o)
                              /opt/gcc-arm-none-eabi-9-2020-q2-update/bin/../lib/gcc/arm-none-eabi/9.3.1/../../../../arm-none-eabi/lib/thumb/v7e-m+fp/hard/libc_nano.a(lib_a-sbrkr.o) (_sbrk)
/opt/gcc-arm-none-eabi-9-2020-q2-update/bin/../lib/gcc/arm-none-eabi/9.3.1/../../../../arm-none-eabi/lib/thumb/v7e-m+fp/hard/libnosys.a(write.o)
                              /opt/gcc-arm-none-eabi-9-2020-q2-update/bin/../lib/gcc/arm-none-eabi/9.3.1/../../../../arm-none-eabi/lib/thumb/v7e-m+fp/hard/libc_nano.a(lib_a-writer.o) (_write)
/opt/gcc-arm-none-eabi-9-2020-q2-update/bin/../lib/gcc/arm-none-eabi/9.3.1/../../../../arm-none-eabi/lib/thumb/v7e-m+fp/hard/libnosys.a(_exit.o)
                              /opt/gcc-arm-none-eabi-9-2020-q2-update/bin/../lib/gcc/arm-none-eabi/9.3.1/../../../../arm-none-eabi/lib/thumb/v7e-m+fp/hard/libc_nano.a(lib_a-exit.o) (_exit)
/opt/gcc-arm-none-eabi-9-2020-q2-update/bin/../lib/gcc/arm-none-eabi/9.3.1/thumb/v7e-m+fp/hard/libgcc.a(_aeabi_uldivmod.o)
                              build/stm32f4xx_hal_rcc.o (__aeabi_uldivmod)
/opt/gcc-arm-none-eabi-9-2020-q2-update/bin/../lib/gcc/arm-none-eabi/9.3.1/thumb/v7e-m+fp/hard/libgcc.a(_udivmoddi4.o)
                              /opt/gcc-arm-none-eabi-9-2020-q2-update/bin/../lib/gcc/arm-none-eabi/9.3.1/thumb/v7e-m+fp/hard/libgcc.a(_aeabi_uldivmod.o) (__udivmoddi4)
/opt/gcc-arm-none-eabi-9-2020-q2-update/bin/../lib/gcc/arm-none-eabi/9.3.1/thumb/v7e-m+fp/hard/libgcc.a(_dvmd_tls.o)
                              /opt/gcc-arm-none-eabi-9-2020-q2-update/bin/../lib/gcc/arm-none-eabi/9.3.1/thumb/v7e-m+fp/hard/libgcc.a(_aeabi_uldivmod.o) (__aeabi_ldiv0)

Allocating common symbols
Common symbol       size              file

mbport1             0x334             build/main.o
mbport2             0x334             build/main.o
__lock___atexit_recursive_mutex
                    0x1               /opt/gcc-arm-none-eabi-9-2020-q2-update/bin/../lib/gcc/arm-none-eabi/9.3.1/../../../../arm-none-eabi/lib/thumb/v7e-m+fp/hard/libc_nano.a(lib_a-lock.o)
hi2c3               0x54              build/main.o
hdma_usart6_rx      0x60              build/main.o
uart3_cbuffer_data_space
                    0x400             build/main.o
__lock___arc4random_mutex
                    0x1               /opt/gcc-arm-none-eabi-9-2020-q2-update/bin/../lib/gcc/arm-none-eabi/9.3.1/../../../../arm-none-eabi/lib/thumb/v7e-m+fp/hard/libc_nano.a(lib_a-lock.o)
can1_rx_semaphoreHandle
                    0x4               build/main.o
can_proxy           0xc               build/can_proxy.o
timers              0x90              build/soft_timer.o
hspi5               0x58              build/main.o
errno               0x4               /opt/gcc-arm-none-eabi-9-2020-q2-update/bin/../lib/gcc/arm-none-eabi/9.3.1/../../../../arm-none-eabi/lib/thumb/v7e-m+fp/hard/libc_nano.a(lib_a-reent.o)
hdma_usart3_rx      0x60              build/main.o
huart3              0x40              build/main.o
mbproxy             0x50              build/modbus_proxy.o
device1             0x202             build/main.o
device2             0x202             build/main.o
object_status       0x4               build/commutator_gui.o
button_iostate      0x18              build/commutator_gui.o
can_port            0x1454            build/can_port.o
uwTick              0x4               build/stm32f4xx_hal.o
xQueueRegistry      0x40              build/queue.o
hdma_usart3_tx      0x60              build/main.o
pFlash              0x20              build/stm32f4xx_hal_flash.o
__lock___env_recursive_mutex
                    0x1               /opt/gcc-arm-none-eabi-9-2020-q2-update/bin/../lib/gcc/arm-none-eabi/9.3.1/../../../../arm-none-eabi/lib/thumb/v7e-m+fp/hard/libc_nano.a(lib_a-lock.o)
__lock___sinit_recursive_mutex
                    0x1               /opt/gcc-arm-none-eabi-9-2020-q2-update/bin/../lib/gcc/arm-none-eabi/9.3.1/../../../../arm-none-eabi/lib/thumb/v7e-m+fp/hard/libc_nano.a(lib_a-lock.o)
hspi3               0x58              build/main.o
can1_rx_queue       0x4               build/main.o
__lock___malloc_recursive_mutex
                    0x1               /opt/gcc-arm-none-eabi-9-2020-q2-update/bin/../lib/gcc/arm-none-eabi/9.3.1/../../../../arm-none-eabi/lib/thumb/v7e-m+fp/hard/libc_nano.a(lib_a-lock.o)
Usart3RxSemaphoreHandle
                    0x4               build/main.o
hdma_usart1_tx      0x60              build/main.o
hdma_usart6_tx      0x60              build/main.o
hcan2               0x28              build/main.o
hdma_usart1_rx      0x60              build/main.o
gui                 0x64              build/commutator_gui.o
obj_buff_wnd_status
                    0xc0              build/commutator_gui.o
huart1              0x40              build/main.o
Usart1RxSemaphoreHandle
                    0x4               build/main.o
uptime_mod          0x10              build/uptime.o
object_time         0x4               build/commutator_gui.o
can1_cbuffer_data_space
                    0x400             build/main.o
button_voltage      0x18              build/commutator_gui.o
RxQueue1            0x4               build/main.o
input_task_Handle   0x4               build/main.o
canTaskHandle       0x4               build/main.o
TxData              0x8               build/main.o
can2_cbuffer_data_space
                    0x400             build/main.o
htim1               0x3c              build/stm32f4xx_hal_timebase_tim.o
RxQueue6            0x4               build/main.o
TxMailbox           0x4               build/main.o
errors              0x188             build/errors.o
modbus_error        0x1               build/main.o
huart6              0x40              build/main.o
button_setup        0x18              build/commutator_gui.o
uart1_cbuffer_data_space
                    0x400             build/main.o
can_port2           0x1454            build/main.o
RxData              0x8               build/main.o
mbproxy_regs        0x2               build/main.o
__lock___at_quick_exit_mutex
                    0x1               /opt/gcc-arm-none-eabi-9-2020-q2-update/bin/../lib/gcc/arm-none-eabi/9.3.1/../../../../arm-none-eabi/lib/thumb/v7e-m+fp/hard/libc_nano.a(lib_a-lock.o)
hcan1               0x28              build/main.o
can2_rx_semaphoreHandle
                    0x4               build/main.o
inputHighWaterMark  0x4               build/main.o
RxQueue3            0x4               build/main.o
timerTaskHandle     0x4               build/main.o
TxHeader            0x18              build/main.o
can_port1           0x1454            build/main.o
RxHeader            0x1c              build/main.o
uart6_cbuffer_data_space
                    0x400             build/main.o
output_task_Handle  0x4               build/main.o
__lock___dd_hash_mutex
                    0x1               /opt/gcc-arm-none-eabi-9-2020-q2-update/bin/../lib/gcc/arm-none-eabi/9.3.1/../../../../arm-none-eabi/lib/thumb/v7e-m+fp/hard/libc_nano.a(lib_a-lock.o)
Usart6RxSemaphoreHandle
                    0x4               build/main.o
__lock___tz_mutex   0x1               /opt/gcc-arm-none-eabi-9-2020-q2-update/bin/../lib/gcc/arm-none-eabi/9.3.1/../../../../arm-none-eabi/lib/thumb/v7e-m+fp/hard/libc_nano.a(lib_a-lock.o)
htim7               0x3c              build/main.o
window_status       0x38              build/commutator_gui.o
can2_rx_queue       0x4               build/main.o
__lock___sfp_recursive_mutex
                    0x1               /opt/gcc-arm-none-eabi-9-2020-q2-update/bin/../lib/gcc/arm-none-eabi/9.3.1/../../../../arm-none-eabi/lib/thumb/v7e-m+fp/hard/libc_nano.a(lib_a-lock.o)
mbport3             0x334             build/main.o
button_temperature  0x18              build/commutator_gui.o

Discarded input sections

 .text          0x0000000000000000        0x0 /opt/gcc-arm-none-eabi-9-2020-q2-update/bin/../lib/gcc/arm-none-eabi/9.3.1/thumb/v7e-m+fp/hard/crti.o
 .data          0x0000000000000000        0x0 /opt/gcc-arm-none-eabi-9-2020-q2-update/bin/../lib/gcc/arm-none-eabi/9.3.1/thumb/v7e-m+fp/hard/crti.o
 .bss           0x0000000000000000        0x0 /opt/gcc-arm-none-eabi-9-2020-q2-update/bin/../lib/gcc/arm-none-eabi/9.3.1/thumb/v7e-m+fp/hard/crti.o
 .data          0x0000000000000000        0x4 /opt/gcc-arm-none-eabi-9-2020-q2-update/bin/../lib/gcc/arm-none-eabi/9.3.1/thumb/v7e-m+fp/hard/crtbegin.o
 .text          0x0000000000000000       0x7c /opt/gcc-arm-none-eabi-9-2020-q2-update/bin/../lib/gcc/arm-none-eabi/9.3.1/../../../../arm-none-eabi/lib/thumb/v7e-m+fp/hard/crt0.o
 .data          0x0000000000000000        0x0 /opt/gcc-arm-none-eabi-9-2020-q2-update/bin/../lib/gcc/arm-none-eabi/9.3.1/../../../../arm-none-eabi/lib/thumb/v7e-m+fp/hard/crt0.o
 .bss           0x0000000000000000        0x0 /opt/gcc-arm-none-eabi-9-2020-q2-update/bin/../lib/gcc/arm-none-eabi/9.3.1/../../../../arm-none-eabi/lib/thumb/v7e-m+fp/hard/crt0.o
 .ARM.extab     0x0000000000000000        0x0 /opt/gcc-arm-none-eabi-9-2020-q2-update/bin/../lib/gcc/arm-none-eabi/9.3.1/../../../../arm-none-eabi/lib/thumb/v7e-m+fp/hard/crt0.o
 .ARM.exidx     0x0000000000000000       0x10 /opt/gcc-arm-none-eabi-9-2020-q2-update/bin/../lib/gcc/arm-none-eabi/9.3.1/../../../../arm-none-eabi/lib/thumb/v7e-m+fp/hard/crt0.o
 .ARM.attributes
                0x0000000000000000       0x1c /opt/gcc-arm-none-eabi-9-2020-q2-update/bin/../lib/gcc/arm-none-eabi/9.3.1/../../../../arm-none-eabi/lib/thumb/v7e-m+fp/hard/crt0.o
 .group         0x0000000000000000        0xc build/main.o
 .group         0x0000000000000000        0xc build/main.o
 .group         0x0000000000000000        0xc build/main.o
 .group         0x0000000000000000        0xc build/main.o
 .group         0x0000000000000000        0xc build/main.o
 .group         0x0000000000000000        0xc build/main.o
 .group         0x0000000000000000        0xc build/main.o
Memory Configuration

Name             Origin             Length             Attributes
RAM              0x0000000020000000 0x0000000000030000 xrw
CCMRAM           0x0000000010000000 0x0000000000010000 xrw
FLASH            0x0000000008000000 0x0000000000200000 xr
*default*        0x0000000000000000 0xffffffffffffffff

Linker script and memory map

LOAD /opt/gcc-arm-none-eabi-9-2020-q2-update/bin/../lib/gcc/arm-none-eabi/9.3.1/thumb/v7e-m+fp/hard/crti.o
LOAD /opt/gcc-arm-none-eabi-9-2020-q2-update/bin/../lib/gcc/arm-none-eabi/9.3.1/thumb/v7e-m+fp/hard/crtbegin.o
LOAD /opt/gcc-arm-none-eabi-9-2020-q2-update/bin/../lib/gcc/arm-none-eabi/9.3.1/../../../../arm-none-eabi/lib/thumb/v7e-m+fp/hard/crt0.o
LOAD build/main.o
LOAD build/freertos.o
LOAD build/stm32f4xx_it.o
LOAD build/stm32f4xx_hal_msp.o
LOAD build/stm32f4xx_hal_timebase_tim.o
LOAD build/stm32f4xx_hal_can.o
LOAD build/stm32f4xx_hal_rcc.o
LOAD build/stm32f4xx_hal_rcc_ex.o
LOAD build/stm32f4xx_hal_flash.o
LOAD build/stm32f4xx_hal_flash_ex.o
LOAD build/stm32f4xx_hal_flash_ramfunc.o
LOAD build/stm32f4xx_hal_gpio.o
LOAD build/stm32f4xx_hal_dma_ex.o
LOAD build/stm32f4xx_hal_dma.o
LOAD build/stm32f4xx_hal_pwr.o
LOAD build/stm32f4xx_hal_pwr_ex.o
LOAD build/stm32f4xx_hal_cortex.o
LOAD build/stm32f4xx_hal.o
LOAD build/stm32f4xx_hal_i2c.o
LOAD build/stm32f4xx_hal_i2c_ex.o
LOAD build/stm32f4xx_hal_spi.o
LOAD build/stm32f4xx_hal_tim.o
LOAD build/stm32f4xx_hal_tim_ex.o
LOAD build/stm32f4xx_hal_uart.o
LOAD build/system_stm32f4xx.o
LOAD build/croutine.o
LOAD build/event_groups.o
LOAD build/list.o
LOAD build/queue.o
LOAD build/tasks.o
LOAD build/timers.o
LOAD build/cmsis_os.o
LOAD build/heap_4.o
LOAD build/port.o
LOAD build/ugui.o
LOAD build/ili9341.o
LOAD build/commutator_gui.o
LOAD build/CRC.o
LOAD build/soft_timer.o
LOAD build/circular_buffer.o
LOAD build/modbus.o
LOAD build/modbus_proxy.o
LOAD build/modbus_port.o
LOAD build/can_proxy.o
LOAD build/can_port.o
LOAD build/dma_usart_idle.o
LOAD build/errors.o
LOAD build/uptime.o
LOAD build/device.o
LOAD build/startup_stm32f429xx.o
LOAD /opt/gcc-arm-none-eabi-9-2020-q2-update/bin/../lib/gcc/arm-none-eabi/9.3.1/../../../../arm-none-eabi/lib/thumb/v7e-m+fp/hard/libc_nano.a
LOAD /opt/gcc-arm-none-eabi-9-2020-q2-update/bin/../lib/gcc/arm-none-eabi/9.3.1/../../../../arm-none-eabi/lib/thumb/v7e-m+fp/hard/libm.a
LOAD /opt/gcc-arm-none-eabi-9-2020-q2-update/bin/../lib/gcc/arm-none-eabi/9.3.1/../../../../arm-none-eabi/lib/thumb/v7e-m+fp/hard/libnosys.a
START GROUP
LOAD /opt/gcc-arm-none-eabi-9-2020-q2-update/bin/../lib/gcc/arm-none-eabi/9.3.1/thumb/v7e-m+fp/hard/libgcc.a
LOAD /opt/gcc-arm-none-eabi-9-2020-q2-update/bin/../lib/gcc/arm-none-eabi/9.3.1/../../../../arm-none-eabi/lib/thumb/v7e-m+fp/hard/libc_nano.a
END GROUP
START GROUP
LOAD /opt/gcc-arm-none-eabi-9-2020-q2-update/bin/../lib/gcc/arm-none-eabi/9.3.1/thumb/v7e-m+fp/hard/libgcc.a
LOAD /opt/gcc-arm-none-eabi-9-2020-q2-update/bin/../lib/gcc/arm-none-eabi/9.3.1/../../../../arm-none-eabi/lib/thumb/v7e-m+fp/hard/libc_nano.a
END GROUP
LOAD /opt/gcc-arm-none-eabi-9-2020-q2-update/bin/../lib/gcc/arm-none-eabi/9.3.1/thumb/v7e-m+fp/hard/crtend.o
LOAD /opt/gcc-arm-none-eabi-9-2020-q2-update/bin/../lib/gcc/arm-none-eabi/9.3.1/thumb/v7e-m+fp/hard/crtn.o
                0x0000000020030000                _estack = 0x20030000
                0x0000000000000200                _Min_Heap_Size = 0x200
                0x0000000000000400                _Min_Stack_Size = 0x400

.isr_vector     0x0000000008000000      0x1ac
                0x0000000008000000                . = ALIGN (0x4)
 *(.isr_vector)
 .isr_vector    0x0000000008000000      0x1ac build/startup_stm32f429xx.o
                0x0000000008000000                g_pfnVectors
                0x00000000080001ac                . = ALIGN (0x4)

.text           0x00000000080001b0     0xcbec
                0x00000000080001b0                . = ALIGN (0x4)
 *(.text)
 .text          0x00000000080001b0       0x40 /opt/gcc-arm-none-eabi-9-2020-q2-update/bin/../lib/gcc/arm-none-eabi/9.3.1/thumb/v7e-m+fp/hard/crtbegin.o
 .text          0x00000000080001f0       0xa0 /opt/gcc-arm-none-eabi-9-2020-q2-update/bin/../lib/gcc/arm-none-eabi/9.3.1/../../../../arm-none-eabi/lib/thumb/v7e-m+fp/hard/libc_nano.a(lib_a-memchr.o)
                0x00000000080001f0                memchr
 .text          0x0000000008000290       0x30 /opt/gcc-arm-none-eabi-9-2020-q2-update/bin/../lib/gcc/arm-none-eabi/9.3.1/thumb/v7e-m+fp/hard/libgcc.a(_aeabi_uldivmod.o)
                0x0000000008000290                __aeabi_uldivmod
 .text          0x00000000080002c0      0x2c4 /opt/gcc-arm-none-eabi-9-2020-q2-update/bin/../lib/gcc/arm-none-eabi/9.3.1/thumb/v7e-m+fp/hard/libgcc.a(_udivmoddi4.o)
                0x00000000080002c0                __udivmoddi4
 .text          0x0000000008000584        0x4 /opt/gcc-arm-none-eabi-9-2020-q2-update/bin/../lib/gcc/arm-none-eabi/9.3.1/thumb/v7e-m+fp/hard/libgcc.a(_dvmd_tls.o)
                0x0000000008000584                __aeabi_ldiv0
                0x0000000008000584                __aeabi_idiv0
 *(.text*)
 .text.vApplicationStackOverflowHook
                0x0000000008000588        0xc build/main.o
                0x0000000008000588                vApplicationStackOverflowHook
 .text.main     0x0000000008000594      0x2bc build/main.o
                0x0000000008000594                main
 .text.SystemClock_Config
                0x0000000008000850       0xe0 build/main.o
                0x0000000008000850                SystemClock_Config
 .text.MX_CAN1_Init
                0x0000000008000930       0xd4 build/main.o
                0x0000000008000930                MX_CAN1_Init
 .text.MX_CAN2_Init
                0x0000000008000a04       0x70 build/main.o
                0x0000000008000a04                MX_CAN2_Init
 .text.MX_I2C3_Init
                0x0000000008000a74       0x80 build/main.o
 .text.MX_SPI3_Init
                0x0000000008000af4       0x70 build/main.o
 .text.MX_SPI5_Init
                0x0000000008000b64       0x70 build/main.o
 .text.MX_USART1_UART_Init
                0x0000000008000bd4       0x54 build/main.o
 .text.MX_USART3_UART_Init
                0x0000000008000c28       0x54 build/main.o
 .text.MX_USART6_UART_Init
                0x0000000008000c7c       0x54 build/main.o
 .text.MX_DMA_Init
                0x0000000008000cd0       0xac build/main.o
 .text.MX_GPIO_Init
                0x0000000008000d7c      0x244 build/main.o
 .text.can_task
                0x0000000008000fc0       0x24 build/main.o
                0x0000000008000fc0                can_task
 .text.input_task
                0x0000000008000fe4       0x40 build/main.o
                0x0000000008000fe4                input_task
 .text.output_task
                0x0000000008001024       0x10 build/main.o
                0x0000000008001024                output_task
 .text.get_canport
                0x0000000008001034       0x40 build/main.o
                0x0000000008001034                get_canport
 .text.HAL_CAN_RxFifo0MsgPendingCallback
                0x0000000008001074       0xc4 build/main.o
                0x0000000008001074                HAL_CAN_RxFifo0MsgPendingCallback
 .text.soft_timer_init_timebase
                0x0000000008001138       0x88 build/main.o
                0x0000000008001138                soft_timer_init_timebase
 .text.timer_task
                0x00000000080011c0       0x14 build/main.o
                0x00000000080011c0                timer_task
 .text.HAL_TIM_PeriodElapsedCallback
                0x00000000080011d4       0x24 build/main.o
                0x00000000080011d4                HAL_TIM_PeriodElapsedCallback
 .text.Error_Handler
                0x00000000080011f8        0xe build/main.o
                0x00000000080011f8                Error_Handler
 .text.NMI_Handler
                0x0000000008001206        0xe build/stm32f4xx_it.o
                0x0000000008001206                NMI_Handler
 .text.HardFault_Handler
                0x0000000008001214        0x6 build/stm32f4xx_it.o
                0x0000000008001214                HardFault_Handler
 .text.MemManage_Handler
                0x000000000800121a        0x6 build/stm32f4xx_it.o
                0x000000000800121a                MemManage_Handler
 .text.BusFault_Handler
                0x0000000008001220        0x6 build/stm32f4xx_it.o
                0x0000000008001220                BusFault_Handler
 .text.UsageFault_Handler
                0x0000000008001226        0x6 build/stm32f4xx_it.o
                0x0000000008001226                UsageFault_Handler
 .text.DebugMon_Handler
                0x000000000800122c        0xe build/stm32f4xx_it.o
                0x000000000800122c                DebugMon_Handler
 *fill*         0x000000000800123a        0x2 
 .text.DMA1_Stream1_IRQHandler
                0x000000000800123c       0x14 build/stm32f4xx_it.o
                0x000000000800123c                DMA1_Stream1_IRQHandler
 .text.DMA1_Stream3_IRQHandler
                0x0000000008001250       0x14 build/stm32f4xx_it.o
                0x0000000008001250                DMA1_Stream3_IRQHandler
 .text.CAN1_TX_IRQHandler
                0x0000000008001264       0x14 build/stm32f4xx_it.o
                0x0000000008001264                CAN1_TX_IRQHandler
 .text.CAN1_RX0_IRQHandler
                0x0000000008001278       0x14 build/stm32f4xx_it.o
                0x0000000008001278                CAN1_RX0_IRQHandler
 .text.CAN1_RX1_IRQHandler
                0x000000000800128c       0x14 build/stm32f4xx_it.o
                0x000000000800128c                CAN1_RX1_IRQHandler
 .text.CAN1_SCE_IRQHandler
                0x00000000080012a0       0x14 build/stm32f4xx_it.o
                0x00000000080012a0                CAN1_SCE_IRQHandler
 .text.TIM1_UP_TIM10_IRQHandler
                0x00000000080012b4       0x14 build/stm32f4xx_it.o
                0x00000000080012b4                TIM1_UP_TIM10_IRQHandler
 .text.USART1_IRQHandler
                0x00000000080012c8       0x18 build/stm32f4xx_it.o
                0x00000000080012c8                USART1_IRQHandler
 .text.USART3_IRQHandler
                0x00000000080012e0       0x18 build/stm32f4xx_it.o
                0x00000000080012e0                USART3_IRQHandler
 .text.DMA2_Stream1_IRQHandler
                0x00000000080012f8       0x14 build/stm32f4xx_it.o
                0x00000000080012f8                DMA2_Stream1_IRQHandler
 .text.DMA2_Stream2_IRQHandler
                0x000000000800130c       0x14 build/stm32f4xx_it.o
                0x000000000800130c                DMA2_Stream2_IRQHandler
 .text.CAN2_TX_IRQHandler
                0x0000000008001320       0x14 build/stm32f4xx_it.o
                0x0000000008001320                CAN2_TX_IRQHandler
 .text.CAN2_RX0_IRQHandler
                0x0000000008001334       0x14 build/stm32f4xx_it.o
                0x0000000008001334                CAN2_RX0_IRQHandler
 .text.CAN2_RX1_IRQHandler
                0x0000000008001348       0x14 build/stm32f4xx_it.o
                0x0000000008001348                CAN2_RX1_IRQHandler
 .text.CAN2_SCE_IRQHandler
                0x000000000800135c       0x14 build/stm32f4xx_it.o
                0x000000000800135c                CAN2_SCE_IRQHandler
 .text.DMA2_Stream6_IRQHandler
                0x0000000008001370       0x14 build/stm32f4xx_it.o
                0x0000000008001370                DMA2_Stream6_IRQHandler
 .text.DMA2_Stream7_IRQHandler
                0x0000000008001384       0x14 build/stm32f4xx_it.o
                0x0000000008001384                DMA2_Stream7_IRQHandler
 .text.USART6_IRQHandler
                0x0000000008001398       0x18 build/stm32f4xx_it.o
                0x0000000008001398                USART6_IRQHandler
 .text.TIM7_IRQHandler
                0x00000000080013b0       0x1c build/stm32f4xx_it.o
                0x00000000080013b0                TIM7_IRQHandler
 .text.HAL_MspInit
                0x00000000080013cc       0x58 build/stm32f4xx_hal_msp.o
                0x00000000080013cc                HAL_MspInit
 .text.HAL_CAN_MspInit
                0x0000000008001424      0x1c4 build/stm32f4xx_hal_msp.o
                0x0000000008001424                HAL_CAN_MspInit
 .text.HAL_I2C_MspInit
                0x00000000080015e8       0xd4 build/stm32f4xx_hal_msp.o
                0x00000000080015e8                HAL_I2C_MspInit
 .text.HAL_SPI_MspInit
                0x00000000080016bc      0x140 build/stm32f4xx_hal_msp.o
                0x00000000080016bc                HAL_SPI_MspInit
 .text.HAL_UART_MspInit
                0x00000000080017fc      0x404 build/stm32f4xx_hal_msp.o
                0x00000000080017fc                HAL_UART_MspInit
 .text.HAL_UART_MspDeInit
                0x0000000008001c00       0xdc build/stm32f4xx_hal_msp.o
                0x0000000008001c00                HAL_UART_MspDeInit
 .text.HAL_InitTick
                0x0000000008001cdc       0xb4 build/stm32f4xx_hal_timebase_tim.o
                0x0000000008001cdc                HAL_InitTick
 .text.HAL_CAN_Init
                0x0000000008001d90      0x1fa build/stm32f4xx_hal_can.o
                0x0000000008001d90                HAL_CAN_Init
 *fill*         0x0000000008001f8a        0x2 
 .text.HAL_CAN_ConfigFilter
                0x0000000008001f8c      0x1c4 build/stm32f4xx_hal_can.o
                0x0000000008001f8c                HAL_CAN_ConfigFilter
 .text.HAL_CAN_Start
                0x0000000008002150       0x8c build/stm32f4xx_hal_can.o
                0x0000000008002150                HAL_CAN_Start
 .text.HAL_CAN_GetRxMessage
                0x00000000080021dc      0x236 build/stm32f4xx_hal_can.o
                0x00000000080021dc                HAL_CAN_GetRxMessage
 .text.HAL_CAN_ActivateNotification
                0x0000000008002412       0x50 build/stm32f4xx_hal_can.o
                0x0000000008002412                HAL_CAN_ActivateNotification
 .text.HAL_CAN_IRQHandler
                0x0000000008002462      0x36e build/stm32f4xx_hal_can.o
                0x0000000008002462                HAL_CAN_IRQHandler
 .text.HAL_CAN_TxMailbox0CompleteCallback
                0x00000000080027d0       0x14 build/stm32f4xx_hal_can.o
                0x00000000080027d0                HAL_CAN_TxMailbox0CompleteCallback
 .text.HAL_CAN_TxMailbox1CompleteCallback
                0x00000000080027e4       0x14 build/stm32f4xx_hal_can.o
                0x00000000080027e4                HAL_CAN_TxMailbox1CompleteCallback
 .text.HAL_CAN_TxMailbox2CompleteCallback
                0x00000000080027f8       0x14 build/stm32f4xx_hal_can.o
                0x00000000080027f8                HAL_CAN_TxMailbox2CompleteCallback
 .text.HAL_CAN_TxMailbox0AbortCallback
                0x000000000800280c       0x14 build/stm32f4xx_hal_can.o
                0x000000000800280c                HAL_CAN_TxMailbox0AbortCallback
 .text.HAL_CAN_TxMailbox1AbortCallback
                0x0000000008002820       0x14 build/stm32f4xx_hal_can.o
                0x0000000008002820                HAL_CAN_TxMailbox1AbortCallback
 .text.HAL_CAN_TxMailbox2AbortCallback
                0x0000000008002834       0x14 build/stm32f4xx_hal_can.o
                0x0000000008002834                HAL_CAN_TxMailbox2AbortCallback
 .text.HAL_CAN_RxFifo0FullCallback
                0x0000000008002848       0x14 build/stm32f4xx_hal_can.o
                0x0000000008002848                HAL_CAN_RxFifo0FullCallback
 .text.HAL_CAN_RxFifo1MsgPendingCallback
                0x000000000800285c       0x14 build/stm32f4xx_hal_can.o
                0x000000000800285c                HAL_CAN_RxFifo1MsgPendingCallback
 .text.HAL_CAN_RxFifo1FullCallback
                0x0000000008002870       0x14 build/stm32f4xx_hal_can.o
                0x0000000008002870                HAL_CAN_RxFifo1FullCallback
 .text.HAL_CAN_SleepCallback
                0x0000000008002884       0x14 build/stm32f4xx_hal_can.o
                0x0000000008002884                HAL_CAN_SleepCallback
 .text.HAL_CAN_WakeUpFromRxMsgCallback
                0x0000000008002898       0x14 build/stm32f4xx_hal_can.o
                0x0000000008002898                HAL_CAN_WakeUpFromRxMsgCallback
 .text.HAL_CAN_ErrorCallback
                0x00000000080028ac       0x14 build/stm32f4xx_hal_can.o
                0x00000000080028ac                HAL_CAN_ErrorCallback
 .text.HAL_RCC_OscConfig
                0x00000000080028c0      0x484 build/stm32f4xx_hal_rcc.o
                0x00000000080028c0                HAL_RCC_OscConfig
 .text.HAL_RCC_ClockConfig
                0x0000000008002d44      0x1c4 build/stm32f4xx_hal_rcc.o
                0x0000000008002d44                HAL_RCC_ClockConfig
 .text.HAL_RCC_GetSysClockFreq
                0x0000000008002f08      0x1c4 build/stm32f4xx_hal_rcc.o
                0x0000000008002f08                HAL_RCC_GetSysClockFreq
 .text.HAL_RCC_GetHCLKFreq
                0x00000000080030cc       0x18 build/stm32f4xx_hal_rcc.o
                0x00000000080030cc                HAL_RCC_GetHCLKFreq
 .text.HAL_RCC_GetPCLK1Freq
                0x00000000080030e4       0x28 build/stm32f4xx_hal_rcc.o
                0x00000000080030e4                HAL_RCC_GetPCLK1Freq
 .text.HAL_RCC_GetPCLK2Freq
                0x000000000800310c       0x28 build/stm32f4xx_hal_rcc.o
                0x000000000800310c                HAL_RCC_GetPCLK2Freq
 .text.HAL_RCC_GetClockConfig
                0x0000000008003134       0x64 build/stm32f4xx_hal_rcc.o
                0x0000000008003134                HAL_RCC_GetClockConfig
 .text.HAL_GPIO_Init
                0x0000000008003198      0x358 build/stm32f4xx_hal_gpio.o
                0x0000000008003198                HAL_GPIO_Init
 .text.HAL_GPIO_DeInit
                0x00000000080034f0      0x218 build/stm32f4xx_hal_gpio.o
                0x00000000080034f0                HAL_GPIO_DeInit
 .text.HAL_GPIO_WritePin
                0x0000000008003708       0x32 build/stm32f4xx_hal_gpio.o
                0x0000000008003708                HAL_GPIO_WritePin
 *fill*         0x000000000800373a        0x2 
 .text.HAL_DMA_Init
                0x000000000800373c      0x15c build/stm32f4xx_hal_dma.o
                0x000000000800373c                HAL_DMA_Init
 .text.HAL_DMA_DeInit
                0x0000000008003898       0x98 build/stm32f4xx_hal_dma.o
                0x0000000008003898                HAL_DMA_DeInit
 .text.HAL_DMA_Start_IT
                0x0000000008003930       0xc0 build/stm32f4xx_hal_dma.o
                0x0000000008003930                HAL_DMA_Start_IT
 .text.HAL_DMA_Abort_IT
                0x00000000080039f0       0x44 build/stm32f4xx_hal_dma.o
                0x00000000080039f0                HAL_DMA_Abort_IT
 .text.HAL_DMA_IRQHandler
                0x0000000008003a34      0x314 build/stm32f4xx_hal_dma.o
                0x0000000008003a34                HAL_DMA_IRQHandler
 .text.DMA_SetConfig
                0x0000000008003d48       0x5c build/stm32f4xx_hal_dma.o
 .text.DMA_CalcBaseAndBitshift
                0x0000000008003da4       0x6c build/stm32f4xx_hal_dma.o
 .text.DMA_CheckFifoParam
                0x0000000008003e10       0xf8 build/stm32f4xx_hal_dma.o
 .text.HAL_PWREx_EnableOverDrive
                0x0000000008003f08       0xa0 build/stm32f4xx_hal_pwr_ex.o
                0x0000000008003f08                HAL_PWREx_EnableOverDrive
 .text.NVIC_SetPriorityGrouping
                0x0000000008003fa8       0x48 build/stm32f4xx_hal_cortex.o
 .text.NVIC_GetPriorityGrouping
                0x0000000008003ff0       0x1c build/stm32f4xx_hal_cortex.o
 .text.NVIC_EnableIRQ
                0x000000000800400c       0x34 build/stm32f4xx_hal_cortex.o
 .text.NVIC_DisableIRQ
                0x0000000008004040       0x34 build/stm32f4xx_hal_cortex.o
 .text.NVIC_SetPriority
                0x0000000008004074       0x54 build/stm32f4xx_hal_cortex.o
 .text.NVIC_EncodePriority
                0x00000000080040c8       0x66 build/stm32f4xx_hal_cortex.o
 .text.HAL_NVIC_SetPriorityGrouping
                0x000000000800412e       0x16 build/stm32f4xx_hal_cortex.o
                0x000000000800412e                HAL_NVIC_SetPriorityGrouping
 .text.HAL_NVIC_SetPriority
                0x0000000008004144       0x38 build/stm32f4xx_hal_cortex.o
                0x0000000008004144                HAL_NVIC_SetPriority
 .text.HAL_NVIC_EnableIRQ
                0x000000000800417c       0x1c build/stm32f4xx_hal_cortex.o
                0x000000000800417c                HAL_NVIC_EnableIRQ
 .text.HAL_NVIC_DisableIRQ
                0x0000000008004198       0x1c build/stm32f4xx_hal_cortex.o
                0x0000000008004198                HAL_NVIC_DisableIRQ
 .text.HAL_Init
                0x00000000080041b4       0x44 build/stm32f4xx_hal.o
                0x00000000080041b4                HAL_Init
 .text.HAL_IncTick
                0x00000000080041f8       0x28 build/stm32f4xx_hal.o
                0x00000000080041f8                HAL_IncTick
 .text.HAL_GetTick
                0x0000000008004220       0x18 build/stm32f4xx_hal.o
                0x0000000008004220                HAL_GetTick
 .text.HAL_Delay
                0x0000000008004238       0x48 build/stm32f4xx_hal.o
                0x0000000008004238                HAL_Delay
 .text.HAL_I2C_Init
                0x0000000008004280      0x1c4 build/stm32f4xx_hal_i2c.o
                0x0000000008004280                HAL_I2C_Init
 .text.HAL_I2CEx_ConfigAnalogFilter
                0x0000000008004444       0x78 build/stm32f4xx_hal_i2c_ex.o
                0x0000000008004444                HAL_I2CEx_ConfigAnalogFilter
 .text.HAL_I2CEx_ConfigDigitalFilter
                0x00000000080044bc       0x7e build/stm32f4xx_hal_i2c_ex.o
                0x00000000080044bc                HAL_I2CEx_ConfigDigitalFilter
 .text.HAL_SPI_Init
                0x000000000800453a       0xc8 build/stm32f4xx_hal_spi.o
                0x000000000800453a                HAL_SPI_Init
 .text.HAL_SPI_Transmit
                0x0000000008004602      0x27a build/stm32f4xx_hal_spi.o
                0x0000000008004602                HAL_SPI_Transmit
 .text.SPI_WaitFlagStateUntilTimeout
                0x000000000800487c       0xd2 build/stm32f4xx_hal_spi.o
 .text.SPI_CheckFlag_BSY
                0x000000000800494e       0x3c build/stm32f4xx_hal_spi.o
 .text.HAL_TIM_Base_Init
                0x000000000800498a       0x56 build/stm32f4xx_hal_tim.o
                0x000000000800498a                HAL_TIM_Base_Init
 .text.HAL_TIM_Base_MspInit
                0x00000000080049e0       0x14 build/stm32f4xx_hal_tim.o
                0x00000000080049e0                HAL_TIM_Base_MspInit
 .text.HAL_TIM_Base_Start_IT
                0x00000000080049f4       0x36 build/stm32f4xx_hal_tim.o
                0x00000000080049f4                HAL_TIM_Base_Start_IT
 .text.HAL_TIM_IRQHandler
                0x0000000008004a2a      0x210 build/stm32f4xx_hal_tim.o
                0x0000000008004a2a                HAL_TIM_IRQHandler
 .text.HAL_TIM_OC_DelayElapsedCallback
                0x0000000008004c3a       0x14 build/stm32f4xx_hal_tim.o
                0x0000000008004c3a                HAL_TIM_OC_DelayElapsedCallback
 .text.HAL_TIM_IC_CaptureCallback
                0x0000000008004c4e       0x14 build/stm32f4xx_hal_tim.o
                0x0000000008004c4e                HAL_TIM_IC_CaptureCallback
 .text.HAL_TIM_PWM_PulseFinishedCallback
                0x0000000008004c62       0x14 build/stm32f4xx_hal_tim.o
                0x0000000008004c62                HAL_TIM_PWM_PulseFinishedCallback
 .text.HAL_TIM_TriggerCallback
                0x0000000008004c76       0x14 build/stm32f4xx_hal_tim.o
                0x0000000008004c76                HAL_TIM_TriggerCallback
 *fill*         0x0000000008004c8a        0x2 
 .text.TIM_Base_SetConfig
                0x0000000008004c8c      0x154 build/stm32f4xx_hal_tim.o
                0x0000000008004c8c                TIM_Base_SetConfig
 .text.HAL_TIMEx_CommutationCallback
                0x0000000008004de0       0x14 build/stm32f4xx_hal_tim_ex.o
                0x0000000008004de0                HAL_TIMEx_CommutationCallback
 .text.HAL_TIMEx_BreakCallback
                0x0000000008004df4       0x14 build/stm32f4xx_hal_tim_ex.o
                0x0000000008004df4                HAL_TIMEx_BreakCallback
 .text.HAL_UART_Init
                0x0000000008004e08       0x9a build/stm32f4xx_hal_uart.o
                0x0000000008004e08                HAL_UART_Init
 .text.HAL_UART_DeInit
                0x0000000008004ea2       0x48 build/stm32f4xx_hal_uart.o
                0x0000000008004ea2                HAL_UART_DeInit
 *fill*         0x0000000008004eea        0x2 
 .text.HAL_UART_Transmit_DMA
                0x0000000008004eec       0xd8 build/stm32f4xx_hal_uart.o
                0x0000000008004eec                HAL_UART_Transmit_DMA
 .text.HAL_UART_Receive_DMA
                0x0000000008004fc4      0x100 build/stm32f4xx_hal_uart.o
                0x0000000008004fc4                HAL_UART_Receive_DMA
 .text.HAL_UART_IRQHandler
                0x00000000080050c4      0x1f4 build/stm32f4xx_hal_uart.o
                0x00000000080050c4                HAL_UART_IRQHandler
 .text.HAL_UART_TxCpltCallback
                0x00000000080052b8       0x14 build/stm32f4xx_hal_uart.o
                0x00000000080052b8                HAL_UART_TxCpltCallback
 .text.HAL_UART_TxHalfCpltCallback
                0x00000000080052cc       0x14 build/stm32f4xx_hal_uart.o
                0x00000000080052cc                HAL_UART_TxHalfCpltCallback
 .text.HAL_UART_RxCpltCallback
                0x00000000080052e0       0x14 build/stm32f4xx_hal_uart.o
                0x00000000080052e0                HAL_UART_RxCpltCallback
 .text.HAL_UART_RxHalfCpltCallback
                0x00000000080052f4       0x14 build/stm32f4xx_hal_uart.o
                0x00000000080052f4                HAL_UART_RxHalfCpltCallback
 .text.HAL_UART_ErrorCallback
                0x0000000008005308       0x14 build/stm32f4xx_hal_uart.o
                0x0000000008005308                HAL_UART_ErrorCallback
 .text.UART_DMATransmitCplt
                0x000000000800531c       0x52 build/stm32f4xx_hal_uart.o
 .text.UART_DMATxHalfCplt
                0x000000000800536e       0x1c build/stm32f4xx_hal_uart.o
 .text.UART_DMAReceiveCplt
                0x000000000800538a       0x68 build/stm32f4xx_hal_uart.o
 .text.UART_DMARxHalfCplt
                0x00000000080053f2       0x1c build/stm32f4xx_hal_uart.o
 .text.UART_DMAError
                0x000000000800540e       0x94 build/stm32f4xx_hal_uart.o
 .text.UART_EndTxTransfer
                0x00000000080054a2       0x2c build/stm32f4xx_hal_uart.o
 .text.UART_EndRxTransfer
                0x00000000080054ce       0x3c build/stm32f4xx_hal_uart.o
 .text.UART_DMAAbortOnError
                0x000000000800550a       0x28 build/stm32f4xx_hal_uart.o
 .text.UART_Transmit_IT
                0x0000000008005532       0xac build/stm32f4xx_hal_uart.o
 .text.UART_EndTransmit_IT
                0x00000000080055de       0x30 build/stm32f4xx_hal_uart.o
 .text.UART_Receive_IT
                0x000000000800560e       0xf2 build/stm32f4xx_hal_uart.o
 .text.UART_SetConfig
                0x0000000008005700      0x438 build/stm32f4xx_hal_uart.o
 .text.SystemInit
                0x0000000008005b38       0x6c build/system_stm32f4xx.o
                0x0000000008005b38                SystemInit
 .text.vListInitialise
                0x0000000008005ba4       0x40 build/list.o
                0x0000000008005ba4                vListInitialise
 .text.vListInitialiseItem
                0x0000000008005be4       0x1a build/list.o
                0x0000000008005be4                vListInitialiseItem
 .text.vListInsertEnd
                0x0000000008005bfe       0x48 build/list.o
                0x0000000008005bfe                vListInsertEnd
 .text.vListInsert
                0x0000000008005c46       0x72 build/list.o
                0x0000000008005c46                vListInsert
 .text.uxListRemove
                0x0000000008005cb8       0x54 build/list.o
                0x0000000008005cb8                uxListRemove
 .text.xQueueGenericReset
                0x0000000008005d0c       0xd0 build/queue.o
                0x0000000008005d0c                xQueueGenericReset
 .text.xQueueGenericCreate
                0x0000000008005ddc       0x74 build/queue.o
                0x0000000008005ddc                xQueueGenericCreate
 .text.prvInitialiseNewQueue
                0x0000000008005e50       0x3e build/queue.o
 .text.prvInitialiseMutex
                0x0000000008005e8e       0x34 build/queue.o
 .text.xQueueCreateMutex
                0x0000000008005ec2       0x30 build/queue.o
                0x0000000008005ec2                xQueueCreateMutex
 *fill*         0x0000000008005ef2        0x2 
 .text.xQueueGenericSend
                0x0000000008005ef4      0x1fc build/queue.o
                0x0000000008005ef4                xQueueGenericSend
 .text.xQueueGenericSendFromISR
                0x00000000080060f0      0x130 build/queue.o
                0x00000000080060f0                xQueueGenericSendFromISR
 .text.xQueueGiveFromISR
                0x0000000008006220      0x11a build/queue.o
                0x0000000008006220                xQueueGiveFromISR
 *fill*         0x000000000800633a        0x2 
 .text.xQueueGenericReceive
                0x000000000800633c      0x22c build/queue.o
                0x000000000800633c                xQueueGenericReceive
 .text.prvCopyDataToQueue
                0x0000000008006568       0xd4 build/queue.o
 .text.prvCopyDataFromQueue
                0x000000000800663c       0x4c build/queue.o
 .text.prvUnlockQueue
                0x0000000008006688       0xa4 build/queue.o
 .text.prvIsQueueEmpty
                0x000000000800672c       0x2c build/queue.o
 .text.prvIsQueueFull
                0x0000000008006758       0x30 build/queue.o
 .text.xTaskCreate
                0x0000000008006788       0x82 build/tasks.o
                0x0000000008006788                xTaskCreate
 .text.prvInitialiseNewTask
                0x000000000800680a      0x10e build/tasks.o
 .text.prvAddNewTaskToReadyList
                0x0000000008006918       0xd4 build/tasks.o
 .text.vTaskDelay
                0x00000000080069ec       0x68 build/tasks.o
                0x00000000080069ec                vTaskDelay
 .text.vTaskStartScheduler
                0x0000000008006a54       0x90 build/tasks.o
                0x0000000008006a54                vTaskStartScheduler
 .text.vTaskSuspendAll
                0x0000000008006ae4       0x1c build/tasks.o
                0x0000000008006ae4                vTaskSuspendAll
 .text.xTaskResumeAll
                0x0000000008006b00      0x138 build/tasks.o
                0x0000000008006b00                xTaskResumeAll
 .text.xTaskIncrementTick
                0x0000000008006c38      0x17c build/tasks.o
                0x0000000008006c38                xTaskIncrementTick
 .text.vTaskSwitchContext
                0x0000000008006db4       0xd4 build/tasks.o
                0x0000000008006db4                vTaskSwitchContext
 .text.vTaskPlaceOnEventList
                0x0000000008006e88       0x48 build/tasks.o
                0x0000000008006e88                vTaskPlaceOnEventList
 .text.xTaskRemoveFromEventList
                0x0000000008006ed0       0xc4 build/tasks.o
                0x0000000008006ed0                xTaskRemoveFromEventList
 .text.vTaskSetTimeOutState
                0x0000000008006f94       0x48 build/tasks.o
                0x0000000008006f94                vTaskSetTimeOutState
 .text.xTaskCheckForTimeOut
                0x0000000008006fdc       0xc0 build/tasks.o
                0x0000000008006fdc                xTaskCheckForTimeOut
 .text.vTaskMissedYield
                0x000000000800709c       0x18 build/tasks.o
                0x000000000800709c                vTaskMissedYield
 .text.prvIdleTask
                0x00000000080070b4       0x30 build/tasks.o
 .text.prvInitialiseTaskLists
                0x00000000080070e4       0x80 build/tasks.o
 .text.prvCheckTasksWaitingTermination
                0x0000000008007164       0x78 build/tasks.o
 .text.prvTaskCheckFreeStackSpace
                0x00000000080071dc       0x38 build/tasks.o
 .text.uxTaskGetStackHighWaterMark
                0x0000000008007214       0x38 build/tasks.o
                0x0000000008007214                uxTaskGetStackHighWaterMark
 .text.prvDeleteTCB
                0x000000000800724c       0x20 build/tasks.o
 .text.prvResetNextTaskUnblockTime
                0x000000000800726c       0x4c build/tasks.o
 .text.xTaskGetSchedulerState
                0x00000000080072b8       0x3c build/tasks.o
                0x00000000080072b8                xTaskGetSchedulerState
 .text.vTaskPriorityInherit
                0x00000000080072f4       0xec build/tasks.o
                0x00000000080072f4                vTaskPriorityInherit
 .text.xTaskPriorityDisinherit
                0x00000000080073e0      0x10c build/tasks.o
                0x00000000080073e0                xTaskPriorityDisinherit
 .text.pvTaskIncrementMutexHeldCount
                0x00000000080074ec       0x28 build/tasks.o
                0x00000000080074ec                pvTaskIncrementMutexHeldCount
 .text.prvAddCurrentTaskToDelayedList
                0x0000000008007514       0xcc build/tasks.o
 .text.makeFreeRtosPriority
                0x00000000080075e0       0x30 build/cmsis_os.o
 .text.osKernelStart
                0x0000000008007610        0xe build/cmsis_os.o
                0x0000000008007610                osKernelStart
 .text.osThreadCreate
                0x000000000800761e       0x4e build/cmsis_os.o
                0x000000000800761e                osThreadCreate
 .text.osDelay  0x000000000800766c       0x28 build/cmsis_os.o
                0x000000000800766c                osDelay
 .text.osSemaphoreCreate
                0x0000000008007694       0x3c build/cmsis_os.o
                0x0000000008007694                osSemaphoreCreate
 .text.pvPortMalloc
                0x00000000080076d0      0x188 build/heap_4.o
                0x00000000080076d0                pvPortMalloc
 .text.vPortFree
                0x0000000008007858       0xb4 build/heap_4.o
                0x0000000008007858                vPortFree
 .text.prvHeapInit
                0x000000000800790c       0xc4 build/heap_4.o
 .text.prvInsertBlockIntoFreeList
                0x00000000080079d0       0xb4 build/heap_4.o
 .text.pxPortInitialiseStack
                0x0000000008007a84       0x68 build/port.o
                0x0000000008007a84                pxPortInitialiseStack
 .text.prvTaskExitError
                0x0000000008007aec       0x40 build/port.o
 *fill*         0x0000000008007b2c        0x4 
 .text.SVC_Handler
                0x0000000008007b30       0x28 build/port.o
                0x0000000008007b30                SVC_Handler
 .text.prvPortStartFirstTask
                0x0000000008007b58       0x20 build/port.o
 .text.xPortStartScheduler
                0x0000000008007b78      0x11c build/port.o
                0x0000000008007b78                xPortStartScheduler
 .text.vPortEnterCritical
                0x0000000008007c94       0x60 build/port.o
                0x0000000008007c94                vPortEnterCritical
 .text.vPortExitCritical
                0x0000000008007cf4       0x54 build/port.o
                0x0000000008007cf4                vPortExitCritical
 *fill*         0x0000000008007d48        0x8 
 .text.PendSV_Handler
                0x0000000008007d50       0x68 build/port.o
                0x0000000008007d50                PendSV_Handler
 .text.SysTick_Handler
                0x0000000008007db8       0x44 build/port.o
                0x0000000008007db8                SysTick_Handler
 .text.vPortSetupTimerInterrupt
                0x0000000008007dfc       0x38 build/port.o
                0x0000000008007dfc                vPortSetupTimerInterrupt
 .text.vPortEnableVFP
                0x0000000008007e34       0x14 build/port.o
 .text.vPortValidateInterruptPriority
                0x0000000008007e48       0x80 build/port.o
                0x0000000008007e48                vPortValidateInterruptPriority
 .text.UG_Init  0x0000000008007ec8      0x12c build/ugui.o
                0x0000000008007ec8                UG_Init
 .text.UG_FillFrame
                0x0000000008007ff4       0xe0 build/ugui.o
                0x0000000008007ff4                UG_FillFrame
 .text.UG_DrawFrame
                0x00000000080080d4       0x96 build/ugui.o
                0x00000000080080d4                UG_DrawFrame
 *fill*         0x000000000800816a        0x2 
 .text.UG_DrawLine
                0x000000000800816c      0x1b8 build/ugui.o
                0x000000000800816c                UG_DrawLine
 .text.UG_PutString
                0x0000000008008324      0x15c build/ugui.o
                0x0000000008008324                UG_PutString
 .text.UG_PutChar
                0x0000000008008480       0x48 build/ugui.o
                0x0000000008008480                UG_PutChar
 .text.UG_GetXDim
                0x00000000080084c8       0x1c build/ugui.o
                0x00000000080084c8                UG_GetXDim
 .text.UG_GetYDim
                0x00000000080084e4       0x1c build/ugui.o
                0x00000000080084e4                UG_GetYDim
 .text._UG_PutChar
                0x0000000008008500      0x170 build/ugui.o
                0x0000000008008500                _UG_PutChar
 .text._UG_PutText
                0x0000000008008670      0x336 build/ugui.o
                0x0000000008008670                _UG_PutText
 .text._UG_GetFreeObject
                0x00000000080089a6       0x5a build/ugui.o
                0x00000000080089a6                _UG_GetFreeObject
 .text._UG_SearchObject
                0x0000000008008a00       0x76 build/ugui.o
                0x0000000008008a00                _UG_SearchObject
 .text._UG_DrawObjectFrame
                0x0000000008008a76      0x242 build/ugui.o
                0x0000000008008a76                _UG_DrawObjectFrame
 .text.UG_DriverRegister
                0x0000000008008cb8       0x44 build/ugui.o
                0x0000000008008cb8                UG_DriverRegister
 .text.UG_DriverEnable
                0x0000000008008cfc       0x5c build/ugui.o
                0x0000000008008cfc                UG_DriverEnable
 .text.UG_WindowCreate
                0x0000000008008d58      0x120 build/ugui.o
                0x0000000008008d58                UG_WindowCreate
 .text.UG_WindowShow
                0x0000000008008e78       0x4c build/ugui.o
                0x0000000008008e78                UG_WindowShow
 .text.UG_WindowResize
                0x0000000008008ec4      0x1f0 build/ugui.o
                0x0000000008008ec4                UG_WindowResize
 .text.UG_WindowSetTitleText
                0x00000000080090b4       0x44 build/ugui.o
                0x00000000080090b4                UG_WindowSetTitleText
 .text.UG_WindowSetTitleTextFont
                0x00000000080090f8       0x78 build/ugui.o
                0x00000000080090f8                UG_WindowSetTitleTextFont
 .text.UG_WindowSetXEnd
                0x0000000008009170       0x64 build/ugui.o
                0x0000000008009170                UG_WindowSetXEnd
 .text.UG_WindowSetYEnd
                0x00000000080091d4       0x64 build/ugui.o
                0x00000000080091d4                UG_WindowSetYEnd
 .text.UG_WindowGetArea
                0x0000000008009238       0xd6 build/ugui.o
                0x0000000008009238                UG_WindowGetArea
 .text.UG_WindowGetInnerWidth
                0x000000000800930e       0x64 build/ugui.o
                0x000000000800930e                UG_WindowGetInnerWidth
 .text.UG_WindowGetInnerHeight
                0x0000000008009372       0x80 build/ugui.o
                0x0000000008009372                UG_WindowGetInnerHeight
 *fill*         0x00000000080093f2        0x2 
 .text.UG_ButtonCreate
                0x00000000080093f4      0x10c build/ugui.o
                0x00000000080093f4                UG_ButtonCreate
 .text.UG_ButtonSetText
                0x0000000008009500       0x54 build/ugui.o
                0x0000000008009500                UG_ButtonSetText
 .text.UG_ButtonSetFont
                0x0000000008009554       0x54 build/ugui.o
                0x0000000008009554                UG_ButtonSetFont
 .text._UG_ButtonUpdate
                0x00000000080095a8      0x3a4 build/ugui.o
                0x00000000080095a8                _UG_ButtonUpdate
 .text.UG_Object_Coordinates
                0x000000000800994c       0x32 build/ugui.o
                0x000000000800994c                UG_Object_Coordinates
 .text.UG_Custom_Object_Create
                0x000000000800997e       0xb2 build/ugui.o
                0x000000000800997e                UG_Custom_Object_Create
 .text.ILI9341_Select
                0x0000000008009a30       0x18 build/ili9341.o
 .text.ILI9341_Unselect
                0x0000000008009a48       0x18 build/ili9341.o
                0x0000000008009a48                ILI9341_Unselect
 .text.ILI9341_WriteCommand
                0x0000000008009a60       0x34 build/ili9341.o
 .text.ILI9341_WriteData
                0x0000000008009a94       0x5c build/ili9341.o
 .text.ILI9341_SetAddressWindow
                0x0000000008009af0       0x90 build/ili9341.o
 .text.ILI9341_Init
                0x0000000008009b80      0x258 build/ili9341.o
                0x0000000008009b80                ILI9341_Init
 .text.ILI9341_DrawPixel
                0x0000000008009dd8       0x62 build/ili9341.o
                0x0000000008009dd8                ILI9341_DrawPixel
 *fill*         0x0000000008009e3a        0x2 
 .text.ILI9341_FillRectangle
                0x0000000008009e3c       0xe0 build/ili9341.o
                0x0000000008009e3c                ILI9341_FillRectangle
 .text.ILI9341_FillScreen
                0x0000000008009f1c       0x24 build/ili9341.o
                0x0000000008009f1c                ILI9341_FillScreen
 .text.shot_gui_fill_frame
                0x0000000008009f40       0x6a build/commutator_gui.o
 .text.shot_gui_draw_line
                0x0000000008009faa       0x6a build/commutator_gui.o
 .text.window_status_callback
                0x000000000800a014       0x54 build/commutator_gui.o
 .text.shot_gui_status_draw
                0x000000000800a068       0x38 build/commutator_gui.o
                0x000000000800a068                shot_gui_status_draw
 .text.shot_gui_time_draw
                0x000000000800a0a0       0x4a build/commutator_gui.o
                0x000000000800a0a0                shot_gui_time_draw
 *fill*         0x000000000800a0ea        0x2 
 .text.create_status_window
                0x000000000800a0ec      0x264 build/commutator_gui.o
 .text.show_status_window
                0x000000000800a350       0x14 build/commutator_gui.o
 .text.commutator_gui_init
                0x000000000800a364       0x4c build/commutator_gui.o
                0x000000000800a364                commutator_gui_init
 .text.CRC16    0x000000000800a3b0       0x6c build/CRC.o
                0x000000000800a3b0                CRC16
 .text.soft_timer_is_active
                0x000000000800a41c       0x28 build/soft_timer.o
                0x000000000800a41c                soft_timer_is_active
 .text.soft_timer_init
                0x000000000800a444       0x78 build/soft_timer.o
                0x000000000800a444                soft_timer_init
 .text.soft_timer_stop
                0x000000000800a4bc       0x44 build/soft_timer.o
                0x000000000800a4bc                soft_timer_stop
 .text.soft_timer_tick
                0x000000000800a500       0x50 build/soft_timer.o
                0x000000000800a500                soft_timer_tick
 .text.soft_timer_poll
                0x000000000800a550       0xac build/soft_timer.o
                0x000000000800a550                soft_timer_poll
 .text.cbuffer_push
                0x000000000800a5fc       0xb0 build/circular_buffer.o
                0x000000000800a5fc                cbuffer_push
 .text.cbuffer_pop
                0x000000000800a6ac       0x9e build/circular_buffer.o
                0x000000000800a6ac                cbuffer_pop
 .text.modbus_response_error
                0x000000000800a74a       0x6e build/modbus.o
                0x000000000800a74a                modbus_response_error
 .text.modbus_response_echo
                0x000000000800a7b8       0xa6 build/modbus.o
                0x000000000800a7b8                modbus_response_echo
 .text.get_holding_reg
                0x000000000800a85e      0x19a build/modbus.o
 .text.modbus_f3
                0x000000000800a9f8       0x38 build/modbus.o
                0x000000000800a9f8                modbus_f3
 .text.write_single_reg
                0x000000000800aa30      0x130 build/modbus.o
 .text.modbus_f6
                0x000000000800ab60       0x3a build/modbus.o
                0x000000000800ab60                modbus_f6
 .text.write_multiple_reg
                0x000000000800ab9a      0x1cc build/modbus.o
 .text.modbus_f16
                0x000000000800ad66       0x44 build/modbus.o
                0x000000000800ad66                modbus_f16
 *fill*         0x000000000800adaa        0x2 
 .text.modbus_on_rtu
                0x000000000800adac       0xb4 build/modbus.o
                0x000000000800adac                modbus_on_rtu
 .text.mbproxy_data
                0x000000000800ae60      0x10c build/modbus_proxy.o
                0x000000000800ae60                mbproxy_data
 .text.mbproxy_read_data
                0x000000000800af6c       0x70 build/modbus_proxy.o
                0x000000000800af6c                mbproxy_read_data
 .text.mbproxy_write
                0x000000000800afdc      0x16c build/modbus_proxy.o
                0x000000000800afdc                mbproxy_write
 .text.mbproxy_write_data
                0x000000000800b148       0x74 build/modbus_proxy.o
                0x000000000800b148                mbproxy_write_data
 .text.mbproxy_inc_crc_err_rq
                0x000000000800b1bc       0x1c build/modbus_proxy.o
                0x000000000800b1bc                mbproxy_inc_crc_err_rq
 .text.mbproxy_inc_handled_rq
                0x000000000800b1d8       0x1c build/modbus_proxy.o
                0x000000000800b1d8                mbproxy_inc_handled_rq
 .text.mbproxy_inc_total_rq
                0x000000000800b1f4       0x1c build/modbus_proxy.o
                0x000000000800b1f4                mbproxy_inc_total_rq
 .text.mbproxy_rs485_port_init
                0x000000000800b210       0x9c build/modbus_proxy.o
                0x000000000800b210                mbproxy_rs485_port_init
 .text.mbproxy_init
                0x000000000800b2ac       0x60 build/modbus_proxy.o
                0x000000000800b2ac                mbproxy_init
 .text.on_slave1_timeout
                0x000000000800b30c       0x24 build/modbus_proxy.o
                0x000000000800b30c                on_slave1_timeout
 .text.send_port_request
                0x000000000800b330       0x4c build/modbus_proxy.o
                0x000000000800b330                send_port_request
 .text.on_commutator_request
                0x000000000800b37c       0x32 build/modbus_proxy.o
                0x000000000800b37c                on_commutator_request
 *fill*         0x000000000800b3ae        0x2 
 .text.on_port_request
                0x000000000800b3b0       0x4c build/modbus_proxy.o
                0x000000000800b3b0                on_port_request
 .text.response_f3
                0x000000000800b3fc       0x1a build/modbus_proxy.o
                0x000000000800b3fc                response_f3
 .text.response_f6
                0x000000000800b416       0x1a build/modbus_proxy.o
                0x000000000800b416                response_f6
 .text.response_f16
                0x000000000800b430       0x1a build/modbus_proxy.o
                0x000000000800b430                response_f16
 .text.on_slave_response
                0x000000000800b44a       0x72 build/modbus_proxy.o
                0x000000000800b44a                on_slave_response
 .text.master_porton_rtu
                0x000000000800b4bc       0x80 build/modbus_proxy.o
                0x000000000800b4bc                master_porton_rtu
 .text.slave_port1_on_rtu
                0x000000000800b53c       0x68 build/modbus_proxy.o
                0x000000000800b53c                slave_port1_on_rtu
 .text.slave_port2_on_rtu
                0x000000000800b5a4       0x60 build/modbus_proxy.o
                0x000000000800b5a4                slave_port2_on_rtu
 .text.mbproxy_on_rtu
                0x000000000800b604       0xa0 build/modbus_proxy.o
                0x000000000800b604                mbproxy_on_rtu
 .text.mbport_transmit
                0x000000000800b6a4       0x2e build/modbus_port.o
                0x000000000800b6a4                mbport_transmit
 .text.mbport_process
                0x000000000800b6d2       0x76 build/modbus_port.o
                0x000000000800b6d2                mbport_process
 .text.mbport_init
                0x000000000800b748       0x58 build/modbus_port.o
                0x000000000800b748                mbport_init
 .text.can_proxy_port_init
                0x000000000800b7a0       0x16 build/can_proxy.o
                0x000000000800b7a0                can_proxy_port_init
 *fill*         0x000000000800b7b6        0x2 
 .text.can_proxy_init
                0x000000000800b7b8       0x30 build/can_proxy.o
                0x000000000800b7b8                can_proxy_init
 .text.can_port_init
                0x000000000800b7e8       0x2c build/can_port.o
                0x000000000800b7e8                can_port_init
 .text.can_port_process
                0x000000000800b814       0x74 build/can_port.o
                0x000000000800b814                can_port_process
 .text.can_port_on_read
                0x000000000800b888       0x18 build/can_port.o
                0x000000000800b888                can_port_on_read
 .text.get_mbport
                0x000000000800b8a0       0x54 build/dma_usart_idle.o
                0x000000000800b8a0                get_mbport
 .text.USART_IRQHandler
                0x000000000800b8f4      0x18e build/dma_usart_idle.o
                0x000000000800b8f4                USART_IRQHandler
 .text.dma_usart_idle_reinit
                0x000000000800ba82       0x5a build/dma_usart_idle.o
                0x000000000800ba82                dma_usart_idle_reinit
 .text.errors_on_error
                0x000000000800badc       0xd4 build/errors.o
                0x000000000800badc                errors_on_error
 .text.uptime   0x000000000800bbb0       0x18 build/uptime.o
                0x000000000800bbb0                uptime
 .text.find_reg
                0x000000000800bbc8       0x58 build/device.o
                0x000000000800bbc8                find_reg
 .text.get_free_index
                0x000000000800bc20       0x5a build/device.o
                0x000000000800bc20                get_free_index
 .text.device_read_data
                0x000000000800bc7a       0x4a build/device.o
                0x000000000800bc7a                device_read_data
 .text.init_reg
                0x000000000800bcc4       0x48 build/device.o
                0x000000000800bcc4                init_reg
 .text.device_write_data
                0x000000000800bd0c       0x88 build/device.o
                0x000000000800bd0c                device_write_data
 .text.Reset_Handler
                0x000000000800bd94       0x50 build/startup_stm32f429xx.o
                0x000000000800bd94                Reset_Handler
 .text.Default_Handler
                0x000000000800bde4        0x2 build/startup_stm32f429xx.o
                0x000000000800bde4                RTC_Alarm_IRQHandler
                0x000000000800bde4                HASH_RNG_IRQHandler
                0x000000000800bde4                EXTI2_IRQHandler
                0x000000000800bde4                TIM8_CC_IRQHandler
                0x000000000800bde4                UART8_IRQHandler
                0x000000000800bde4                SPI4_IRQHandler
                0x000000000800bde4                TIM1_CC_IRQHandler
                0x000000000800bde4                DMA2_Stream5_IRQHandler
                0x000000000800bde4                DMA1_Stream5_IRQHandler
                0x000000000800bde4                PVD_IRQHandler
                0x000000000800bde4                SDIO_IRQHandler
                0x000000000800bde4                TAMP_STAMP_IRQHandler
                0x000000000800bde4                EXTI3_IRQHandler
                0x000000000800bde4                TIM8_TRG_COM_TIM14_IRQHandler
                0x000000000800bde4                TIM8_UP_TIM13_IRQHandler
                0x000000000800bde4                I2C3_ER_IRQHandler
                0x000000000800bde4                EXTI0_IRQHandler
                0x000000000800bde4                I2C2_EV_IRQHandler
                0x000000000800bde4                DMA1_Stream2_IRQHandler
                0x000000000800bde4                FPU_IRQHandler
                0x000000000800bde4                OTG_HS_WKUP_IRQHandler
                0x000000000800bde4                LTDC_ER_IRQHandler
                0x000000000800bde4                SPI1_IRQHandler
                0x000000000800bde4                TIM6_DAC_IRQHandler
                0x000000000800bde4                TIM1_BRK_TIM9_IRQHandler
                0x000000000800bde4                DCMI_IRQHandler
                0x000000000800bde4                DMA2_Stream3_IRQHandler
                0x000000000800bde4                UART5_IRQHandler
                0x000000000800bde4                DMA2_Stream0_IRQHandler
                0x000000000800bde4                TIM4_IRQHandler
                0x000000000800bde4                I2C1_EV_IRQHandler
                0x000000000800bde4                DMA1_Stream6_IRQHandler
                0x000000000800bde4                UART4_IRQHandler
                0x000000000800bde4                TIM3_IRQHandler
                0x000000000800bde4                RCC_IRQHandler
                0x000000000800bde4                TIM8_BRK_TIM12_IRQHandler
                0x000000000800bde4                Default_Handler
                0x000000000800bde4                EXTI15_10_IRQHandler
                0x000000000800bde4                ADC_IRQHandler
                0x000000000800bde4                DMA1_Stream7_IRQHandler
                0x000000000800bde4                SPI5_IRQHandler
                0x000000000800bde4                TIM5_IRQHandler
                0x000000000800bde4                I2C3_EV_IRQHandler
                0x000000000800bde4                EXTI9_5_IRQHandler
                0x000000000800bde4                RTC_WKUP_IRQHandler
                0x000000000800bde4                LTDC_IRQHandler
                0x000000000800bde4                ETH_WKUP_IRQHandler
                0x000000000800bde4                SPI2_IRQHandler
                0x000000000800bde4                OTG_HS_EP1_IN_IRQHandler
                0x000000000800bde4                DMA1_Stream0_IRQHandler
                0x000000000800bde4                EXTI4_IRQHandler
                0x000000000800bde4                ETH_IRQHandler
                0x000000000800bde4                OTG_HS_EP1_OUT_IRQHandler
                0x000000000800bde4                WWDG_IRQHandler
                0x000000000800bde4                SPI6_IRQHandler
                0x000000000800bde4                TIM2_IRQHandler
                0x000000000800bde4                OTG_FS_WKUP_IRQHandler
                0x000000000800bde4                TIM1_TRG_COM_TIM11_IRQHandler
                0x000000000800bde4                OTG_HS_IRQHandler
                0x000000000800bde4                DMA2D_IRQHandler
                0x000000000800bde4                EXTI1_IRQHandler
                0x000000000800bde4                UART7_IRQHandler
                0x000000000800bde4                USART2_IRQHandler
                0x000000000800bde4                I2C2_ER_IRQHandler
                0x000000000800bde4                FLASH_IRQHandler
                0x000000000800bde4                DMA2_Stream4_IRQHandler
                0x000000000800bde4                OTG_FS_IRQHandler
                0x000000000800bde4                SPI3_IRQHandler
                0x000000000800bde4                DMA1_Stream4_IRQHandler
                0x000000000800bde4                I2C1_ER_IRQHandler
                0x000000000800bde4                FMC_IRQHandler
                0x000000000800bde4                SAI1_IRQHandler
 *fill*         0x000000000800bde6        0x2 
 .text.__libc_init_array
                0x000000000800bde8       0x48 /opt/gcc-arm-none-eabi-9-2020-q2-update/bin/../lib/gcc/arm-none-eabi/9.3.1/../../../../arm-none-eabi/lib/thumb/v7e-m+fp/hard/libc_nano.a(lib_a-init.o)
                0x000000000800bde8                __libc_init_array
 .text.memcpy   0x000000000800be30       0x1c /opt/gcc-arm-none-eabi-9-2020-q2-update/bin/../lib/gcc/arm-none-eabi/9.3.1/../../../../arm-none-eabi/lib/thumb/v7e-m+fp/hard/libc_nano.a(lib_a-memcpy-stub.o)
                0x000000000800be30                memcpy
 .text.memset   0x000000000800be4c       0x10 /opt/gcc-arm-none-eabi-9-2020-q2-update/bin/../lib/gcc/arm-none-eabi/9.3.1/../../../../arm-none-eabi/lib/thumb/v7e-m+fp/hard/libc_nano.a(lib_a-memset.o)
                0x000000000800be4c                memset
 .text.printf   0x000000000800be5c       0x30 /opt/gcc-arm-none-eabi-9-2020-q2-update/bin/../lib/gcc/arm-none-eabi/9.3.1/../../../../arm-none-eabi/lib/thumb/v7e-m+fp/hard/libc_nano.a(lib_a-printf.o)
                0x000000000800be5c                printf
                0x000000000800be5c                iprintf
 .text.std      0x000000000800be8c       0x48 /opt/gcc-arm-none-eabi-9-2020-q2-update/bin/../lib/gcc/arm-none-eabi/9.3.1/../../../../arm-none-eabi/lib/thumb/v7e-m+fp/hard/libc_nano.a(lib_a-findfp.o)
 .text._cleanup_r
                0x000000000800bed4        0xc /opt/gcc-arm-none-eabi-9-2020-q2-update/bin/../lib/gcc/arm-none-eabi/9.3.1/../../../../arm-none-eabi/lib/thumb/v7e-m+fp/hard/libc_nano.a(lib_a-findfp.o)
                0x000000000800bed4                _cleanup_r
 .text.__sfmoreglue
                0x000000000800bee0       0x2c /opt/gcc-arm-none-eabi-9-2020-q2-update/bin/../lib/gcc/arm-none-eabi/9.3.1/../../../../arm-none-eabi/lib/thumb/v7e-m+fp/hard/libc_nano.a(lib_a-findfp.o)
                0x000000000800bee0                __sfmoreglue
 .text.__sfp_lock_acquire
                0x000000000800bf0c        0xc /opt/gcc-arm-none-eabi-9-2020-q2-update/bin/../lib/gcc/arm-none-eabi/9.3.1/../../../../arm-none-eabi/lib/thumb/v7e-m+fp/hard/libc_nano.a(lib_a-findfp.o)
                0x000000000800bf0c                __sfp_lock_acquire
 .text.__sfp_lock_release
                0x000000000800bf18        0xc /opt/gcc-arm-none-eabi-9-2020-q2-update/bin/../lib/gcc/arm-none-eabi/9.3.1/../../../../arm-none-eabi/lib/thumb/v7e-m+fp/hard/libc_nano.a(lib_a-findfp.o)
                0x000000000800bf18                __sfp_lock_release
 .text.__sinit_lock_acquire
                0x000000000800bf24        0xc /opt/gcc-arm-none-eabi-9-2020-q2-update/bin/../lib/gcc/arm-none-eabi/9.3.1/../../../../arm-none-eabi/lib/thumb/v7e-m+fp/hard/libc_nano.a(lib_a-findfp.o)
                0x000000000800bf24                __sinit_lock_acquire
 .text.__sinit_lock_release
                0x000000000800bf30        0xc /opt/gcc-arm-none-eabi-9-2020-q2-update/bin/../lib/gcc/arm-none-eabi/9.3.1/../../../../arm-none-eabi/lib/thumb/v7e-m+fp/hard/libc_nano.a(lib_a-findfp.o)
                0x000000000800bf30                __sinit_lock_release
 .text.__sinit  0x000000000800bf3c       0x70 /opt/gcc-arm-none-eabi-9-2020-q2-update/bin/../lib/gcc/arm-none-eabi/9.3.1/../../../../arm-none-eabi/lib/thumb/v7e-m+fp/hard/libc_nano.a(lib_a-findfp.o)
                0x000000000800bf3c                __sinit
 .text.__sfp    0x000000000800bfac       0x8c /opt/gcc-arm-none-eabi-9-2020-q2-update/bin/../lib/gcc/arm-none-eabi/9.3.1/../../../../arm-none-eabi/lib/thumb/v7e-m+fp/hard/libc_nano.a(lib_a-findfp.o)
                0x000000000800bfac                __sfp
 .text._fwalk_reent
                0x000000000800c038       0x3e /opt/gcc-arm-none-eabi-9-2020-q2-update/bin/../lib/gcc/arm-none-eabi/9.3.1/../../../../arm-none-eabi/lib/thumb/v7e-m+fp/hard/libc_nano.a(lib_a-fwalk.o)
                0x000000000800c038                _fwalk_reent
 .text.__retarget_lock_init_recursive
                0x000000000800c076        0x2 /opt/gcc-arm-none-eabi-9-2020-q2-update/bin/../lib/gcc/arm-none-eabi/9.3.1/../../../../arm-none-eabi/lib/thumb/v7e-m+fp/hard/libc_nano.a(lib_a-lock.o)
                0x000000000800c076                __retarget_lock_init_recursive
 .text.__retarget_lock_acquire_recursive
                0x000000000800c078        0x2 /opt/gcc-arm-none-eabi-9-2020-q2-update/bin/../lib/gcc/arm-none-eabi/9.3.1/../../../../arm-none-eabi/lib/thumb/v7e-m+fp/hard/libc_nano.a(lib_a-lock.o)
                0x000000000800c078                __retarget_lock_acquire_recursive
 .text.__retarget_lock_release_recursive
                0x000000000800c07a        0x2 /opt/gcc-arm-none-eabi-9-2020-q2-update/bin/../lib/gcc/arm-none-eabi/9.3.1/../../../../arm-none-eabi/lib/thumb/v7e-m+fp/hard/libc_nano.a(lib_a-lock.o)
                0x000000000800c07a                __retarget_lock_release_recursive
 .text._malloc_r
                0x000000000800c07c       0xb4 /opt/gcc-arm-none-eabi-9-2020-q2-update/bin/../lib/gcc/arm-none-eabi/9.3.1/../../../../arm-none-eabi/lib/thumb/v7e-m+fp/hard/libc_nano.a(lib_a-nano-mallocr.o)
                0x000000000800c07c                _malloc_r
 .text.__sfputc_r
                0x000000000800c130       0x2e /opt/gcc-arm-none-eabi-9-2020-q2-update/bin/../lib/gcc/arm-none-eabi/9.3.1/../../../../arm-none-eabi/lib/thumb/v7e-m+fp/hard/libc_nano.a(lib_a-nano-vfprintf.o)
 .text.__sfputs_r
                0x000000000800c15e       0x24 /opt/gcc-arm-none-eabi-9-2020-q2-update/bin/../lib/gcc/arm-none-eabi/9.3.1/../../../../arm-none-eabi/lib/thumb/v7e-m+fp/hard/libc_nano.a(lib_a-nano-vfprintf.o)
                0x000000000800c15e                __sfputs_r
 *fill*         0x000000000800c182        0x2 
 .text._vfprintf_r
                0x000000000800c184      0x260 /opt/gcc-arm-none-eabi-9-2020-q2-update/bin/../lib/gcc/arm-none-eabi/9.3.1/../../../../arm-none-eabi/lib/thumb/v7e-m+fp/hard/libc_nano.a(lib_a-nano-vfprintf.o)
                0x000000000800c184                _vfiprintf_r
                0x000000000800c184                _vfprintf_r
 .text._printf_common
                0x000000000800c3e4       0xda /opt/gcc-arm-none-eabi-9-2020-q2-update/bin/../lib/gcc/arm-none-eabi/9.3.1/../../../../arm-none-eabi/lib/thumb/v7e-m+fp/hard/libc_nano.a(lib_a-nano-vfprintf_i.o)
                0x000000000800c3e4                _printf_common
 *fill*         0x000000000800c4be        0x2 
 .text._printf_i
                0x000000000800c4c0      0x24c /opt/gcc-arm-none-eabi-9-2020-q2-update/bin/../lib/gcc/arm-none-eabi/9.3.1/../../../../arm-none-eabi/lib/thumb/v7e-m+fp/hard/libc_nano.a(lib_a-nano-vfprintf_i.o)
                0x000000000800c4c0                _printf_i
 .text._sbrk_r  0x000000000800c70c       0x20 /opt/gcc-arm-none-eabi-9-2020-q2-update/bin/../lib/gcc/arm-none-eabi/9.3.1/../../../../arm-none-eabi/lib/thumb/v7e-m+fp/hard/libc_nano.a(lib_a-sbrkr.o)
                0x000000000800c70c                _sbrk_r
 .text.__sread  0x000000000800c72c       0x22 /opt/gcc-arm-none-eabi-9-2020-q2-update/bin/../lib/gcc/arm-none-eabi/9.3.1/../../../../arm-none-eabi/lib/thumb/v7e-m+fp/hard/libc_nano.a(lib_a-stdio.o)
                0x000000000800c72c                __sread
 .text.__swrite
                0x000000000800c74e       0x38 /opt/gcc-arm-none-eabi-9-2020-q2-update/bin/../lib/gcc/arm-none-eabi/9.3.1/../../../../arm-none-eabi/lib/thumb/v7e-m+fp/hard/libc_nano.a(lib_a-stdio.o)
                0x000000000800c74e                __swrite
 .text.__sseek  0x000000000800c786       0x24 /opt/gcc-arm-none-eabi-9-2020-q2-update/bin/../lib/gcc/arm-none-eabi/9.3.1/../../../../arm-none-eabi/lib/thumb/v7e-m+fp/hard/libc_nano.a(lib_a-stdio.o)
                0x000000000800c786                __sseek
 .text.__sclose
                0x000000000800c7aa        0x8 /opt/gcc-arm-none-eabi-9-2020-q2-update/bin/../lib/gcc/arm-none-eabi/9.3.1/../../../../arm-none-eabi/lib/thumb/v7e-m+fp/hard/libc_nano.a(lib_a-stdio.o)
                0x000000000800c7aa                __sclose
 *fill*         0x000000000800c7b2        0x2 
 .text.__swbuf_r
                0x000000000800c7b4       0xa4 /opt/gcc-arm-none-eabi-9-2020-q2-update/bin/../lib/gcc/arm-none-eabi/9.3.1/../../../../arm-none-eabi/lib/thumb/v7e-m+fp/hard/libc_nano.a(lib_a-wbuf.o)
                0x000000000800c7b4                __swbuf_r
 .text._write_r
                0x000000000800c858       0x24 /opt/gcc-arm-none-eabi-9-2020-q2-update/bin/../lib/gcc/arm-none-eabi/9.3.1/../../../../arm-none-eabi/lib/thumb/v7e-m+fp/hard/libc_nano.a(lib_a-writer.o)
                0x000000000800c858                _write_r
 .text.__swsetup_r
                0x000000000800c87c       0xdc /opt/gcc-arm-none-eabi-9-2020-q2-update/bin/../lib/gcc/arm-none-eabi/9.3.1/../../../../arm-none-eabi/lib/thumb/v7e-m+fp/hard/libc_nano.a(lib_a-wsetup.o)
                0x000000000800c87c                __swsetup_r
 .text._close_r
                0x000000000800c958       0x20 /opt/gcc-arm-none-eabi-9-2020-q2-update/bin/../lib/gcc/arm-none-eabi/9.3.1/../../../../arm-none-eabi/lib/thumb/v7e-m+fp/hard/libc_nano.a(lib_a-closer.o)
                0x000000000800c958                _close_r
 .text.__sflush_r
                0x000000000800c978      0x10c /opt/gcc-arm-none-eabi-9-2020-q2-update/bin/../lib/gcc/arm-none-eabi/9.3.1/../../../../arm-none-eabi/lib/thumb/v7e-m+fp/hard/libc_nano.a(lib_a-fflush.o)
                0x000000000800c978                __sflush_r
 .text._fflush_r
                0x000000000800ca84       0x78 /opt/gcc-arm-none-eabi-9-2020-q2-update/bin/../lib/gcc/arm-none-eabi/9.3.1/../../../../arm-none-eabi/lib/thumb/v7e-m+fp/hard/libc_nano.a(lib_a-fflush.o)
                0x000000000800ca84                _fflush_r
 .text._lseek_r
                0x000000000800cafc       0x24 /opt/gcc-arm-none-eabi-9-2020-q2-update/bin/../lib/gcc/arm-none-eabi/9.3.1/../../../../arm-none-eabi/lib/thumb/v7e-m+fp/hard/libc_nano.a(lib_a-lseekr.o)
                0x000000000800cafc                _lseek_r
 .text.__swhatbuf_r
                0x000000000800cb20       0x48 /opt/gcc-arm-none-eabi-9-2020-q2-update/bin/../lib/gcc/arm-none-eabi/9.3.1/../../../../arm-none-eabi/lib/thumb/v7e-m+fp/hard/libc_nano.a(lib_a-makebuf.o)
                0x000000000800cb20                __swhatbuf_r
 .text.__smakebuf_r
                0x000000000800cb68       0x80 /opt/gcc-arm-none-eabi-9-2020-q2-update/bin/../lib/gcc/arm-none-eabi/9.3.1/../../../../arm-none-eabi/lib/thumb/v7e-m+fp/hard/libc_nano.a(lib_a-makebuf.o)
                0x000000000800cb68                __smakebuf_r
 .text.__malloc_lock
                0x000000000800cbe8        0xc /opt/gcc-arm-none-eabi-9-2020-q2-update/bin/../lib/gcc/arm-none-eabi/9.3.1/../../../../arm-none-eabi/lib/thumb/v7e-m+fp/hard/libc_nano.a(lib_a-mlock.o)
                0x000000000800cbe8                __malloc_lock
 .text.__malloc_unlock
                0x000000000800cbf4        0xc /opt/gcc-arm-none-eabi-9-2020-q2-update/bin/../lib/gcc/arm-none-eabi/9.3.1/../../../../arm-none-eabi/lib/thumb/v7e-m+fp/hard/libc_nano.a(lib_a-mlock.o)
                0x000000000800cbf4                __malloc_unlock
 .text._free_r  0x000000000800cc00       0xa0 /opt/gcc-arm-none-eabi-9-2020-q2-update/bin/../lib/gcc/arm-none-eabi/9.3.1/../../../../arm-none-eabi/lib/thumb/v7e-m+fp/hard/libc_nano.a(lib_a-nano-freer.o)
                0x000000000800cc00                _free_r
 .text._read_r  0x000000000800cca0       0x24 /opt/gcc-arm-none-eabi-9-2020-q2-update/bin/../lib/gcc/arm-none-eabi/9.3.1/../../../../arm-none-eabi/lib/thumb/v7e-m+fp/hard/libc_nano.a(lib_a-readr.o)
                0x000000000800cca0                _read_r
 .text._fstat_r
                0x000000000800ccc4       0x24 /opt/gcc-arm-none-eabi-9-2020-q2-update/bin/../lib/gcc/arm-none-eabi/9.3.1/../../../../arm-none-eabi/lib/thumb/v7e-m+fp/hard/libc_nano.a(lib_a-fstatr.o)
                0x000000000800ccc4                _fstat_r
 .text._isatty_r
                0x000000000800cce8       0x20 /opt/gcc-arm-none-eabi-9-2020-q2-update/bin/../lib/gcc/arm-none-eabi/9.3.1/../../../../arm-none-eabi/lib/thumb/v7e-m+fp/hard/libc_nano.a(lib_a-isattyr.o)
                0x000000000800cce8                _isatty_r
 .text._close   0x000000000800cd08       0x10 /opt/gcc-arm-none-eabi-9-2020-q2-update/bin/../lib/gcc/arm-none-eabi/9.3.1/../../../../arm-none-eabi/lib/thumb/v7e-m+fp/hard/libnosys.a(close.o)
                0x000000000800cd08                _close
 .text._fstat   0x000000000800cd18       0x10 /opt/gcc-arm-none-eabi-9-2020-q2-update/bin/../lib/gcc/arm-none-eabi/9.3.1/../../../../arm-none-eabi/lib/thumb/v7e-m+fp/hard/libnosys.a(fstat.o)
                0x000000000800cd18                _fstat
 .text._isatty  0x000000000800cd28       0x10 /opt/gcc-arm-none-eabi-9-2020-q2-update/bin/../lib/gcc/arm-none-eabi/9.3.1/../../../../arm-none-eabi/lib/thumb/v7e-m+fp/hard/libnosys.a(isatty.o)
                0x000000000800cd28                _isatty
 .text._lseek   0x000000000800cd38       0x10 /opt/gcc-arm-none-eabi-9-2020-q2-update/bin/../lib/gcc/arm-none-eabi/9.3.1/../../../../arm-none-eabi/lib/thumb/v7e-m+fp/hard/libnosys.a(lseek.o)
                0x000000000800cd38                _lseek
 .text._read    0x000000000800cd48       0x10 /opt/gcc-arm-none-eabi-9-2020-q2-update/bin/../lib/gcc/arm-none-eabi/9.3.1/../../../../arm-none-eabi/lib/thumb/v7e-m+fp/hard/libnosys.a(read.o)
                0x000000000800cd48                _read
 .text._sbrk    0x000000000800cd58       0x1c /opt/gcc-arm-none-eabi-9-2020-q2-update/bin/../lib/gcc/arm-none-eabi/9.3.1/../../../../arm-none-eabi/lib/thumb/v7e-m+fp/hard/libnosys.a(sbrk.o)
                0x000000000800cd58                _sbrk
 .text._write   0x000000000800cd74       0x10 /opt/gcc-arm-none-eabi-9-2020-q2-update/bin/../lib/gcc/arm-none-eabi/9.3.1/../../../../arm-none-eabi/lib/thumb/v7e-m+fp/hard/libnosys.a(write.o)
                0x000000000800cd74                _write
 *(.glue_7)
 .glue_7        0x000000000800cd84        0x0 linker stubs
 *(.glue_7t)
 .glue_7t       0x000000000800cd84        0x0 linker stubs
 *(.eh_frame)
 .eh_frame      0x000000000800cd84        0x0 /opt/gcc-arm-none-eabi-9-2020-q2-update/bin/../lib/gcc/arm-none-eabi/9.3.1/thumb/v7e-m+fp/hard/crtbegin.o
 *(.init)
 .init          0x000000000800cd84        0x4 /opt/gcc-arm-none-eabi-9-2020-q2-update/bin/../lib/gcc/arm-none-eabi/9.3.1/thumb/v7e-m+fp/hard/crti.o
                0x000000000800cd84                _init
 .init          0x000000000800cd88        0x8 /opt/gcc-arm-none-eabi-9-2020-q2-update/bin/../lib/gcc/arm-none-eabi/9.3.1/thumb/v7e-m+fp/hard/crtn.o
 *(.fini)
 .fini          0x000000000800cd90        0x4 /opt/gcc-arm-none-eabi-9-2020-q2-update/bin/../lib/gcc/arm-none-eabi/9.3.1/thumb/v7e-m+fp/hard/crti.o
                0x000000000800cd90                _fini
 .fini          0x000000000800cd94        0x8 /opt/gcc-arm-none-eabi-9-2020-q2-update/bin/../lib/gcc/arm-none-eabi/9.3.1/thumb/v7e-m+fp/hard/crtn.o
                0x000000000800cd9c                . = ALIGN (0x4)
                0x000000000800cd9c                _etext = .

.vfp11_veneer   0x000000000800cd9c        0x0
 .vfp11_veneer  0x000000000800cd9c        0x0 linker stubs

.v4_bx          0x000000000800cd9c        0x0
 .v4_bx         0x000000000800cd9c        0x0 linker stubs

.iplt           0x000000000800cd9c        0x0
 .iplt          0x000000000800cd9c        0x0 /opt/gcc-arm-none-eabi-9-2020-q2-update/bin/../lib/gcc/arm-none-eabi/9.3.1/thumb/v7e-m+fp/hard/crtbegin.o

.rodata         0x000000000800cd9c      0xbd4
                0x000000000800cd9c                . = ALIGN (0x4)
 *(.rodata)
 .rodata        0x000000000800cd9c       0x80 build/main.o
 .rodata        0x000000000800ce1c        0x5 build/tasks.o
 *fill*         0x000000000800ce21        0x3 
 .rodata        0x000000000800ce24        0x2 build/ugui.o
 *fill*         0x000000000800ce26        0x2 
 .rodata        0x000000000800ce28       0x33 build/ili9341.o
 *fill*         0x000000000800ce5b        0x1 
 .rodata        0x000000000800ce5c       0x27 build/commutator_gui.o
 *fill*         0x000000000800ce83        0x1 
 .rodata        0x000000000800ce84       0x22 build/device.o
 *(.rodata*)
 *fill*         0x000000000800cea6        0x2 
 .rodata.flagBitshiftOffset.9771
                0x000000000800cea8        0x8 build/stm32f4xx_hal_dma.o
 .rodata.AHBPrescTable
                0x000000000800ceb0       0x10 build/system_stm32f4xx.o
                0x000000000800ceb0                AHBPrescTable
 .rodata.APBPrescTable
                0x000000000800cec0        0x8 build/system_stm32f4xx.o
                0x000000000800cec0                APBPrescTable
 .rodata.font_8x14_ru
                0x000000000800cec8      0x8c0 build/ugui.o
                0x000000000800cec8                font_8x14_ru
 .rodata.FONT_8X14_RU
                0x000000000800d788       0x14 build/ugui.o
                0x000000000800d788                FONT_8X14_RU
 .rodata.pal_button_pressed
                0x000000000800d79c       0x18 build/ugui.o
                0x000000000800d79c                pal_button_pressed
 .rodata.pal_button_released
                0x000000000800d7b4       0x18 build/ugui.o
                0x000000000800d7b4                pal_button_released
 .rodata.crc_hi
                0x000000000800d7cc      0x100 build/CRC.o
 .rodata.__FUNCTION__.10805
                0x000000000800d8cc        0x9 build/device.o
 *fill*         0x000000000800d8d5        0x3 
 .rodata._global_impure_ptr
                0x000000000800d8d8        0x4 /opt/gcc-arm-none-eabi-9-2020-q2-update/bin/../lib/gcc/arm-none-eabi/9.3.1/../../../../arm-none-eabi/lib/thumb/v7e-m+fp/hard/libc_nano.a(lib_a-impure.o)
                0x000000000800d8d8                _global_impure_ptr
 .rodata.__sf_fake_stderr
                0x000000000800d8dc       0x20 /opt/gcc-arm-none-eabi-9-2020-q2-update/bin/../lib/gcc/arm-none-eabi/9.3.1/../../../../arm-none-eabi/lib/thumb/v7e-m+fp/hard/libc_nano.a(lib_a-findfp.o)
                0x000000000800d8dc                __sf_fake_stderr
 .rodata.__sf_fake_stdin
                0x000000000800d8fc       0x20 /opt/gcc-arm-none-eabi-9-2020-q2-update/bin/../lib/gcc/arm-none-eabi/9.3.1/../../../../arm-none-eabi/lib/thumb/v7e-m+fp/hard/libc_nano.a(lib_a-findfp.o)
                0x000000000800d8fc                __sf_fake_stdin
 .rodata.__sf_fake_stdout
                0x000000000800d91c       0x20 /opt/gcc-arm-none-eabi-9-2020-q2-update/bin/../lib/gcc/arm-none-eabi/9.3.1/../../../../arm-none-eabi/lib/thumb/v7e-m+fp/hard/libc_nano.a(lib_a-findfp.o)
                0x000000000800d91c                __sf_fake_stdout
 .rodata._vfprintf_r.str1.1
                0x000000000800d93c       0x11 /opt/gcc-arm-none-eabi-9-2020-q2-update/bin/../lib/gcc/arm-none-eabi/9.3.1/../../../../arm-none-eabi/lib/thumb/v7e-m+fp/hard/libc_nano.a(lib_a-nano-vfprintf.o)
 .rodata._printf_i.str1.1
                0x000000000800d94d       0x22 /opt/gcc-arm-none-eabi-9-2020-q2-update/bin/../lib/gcc/arm-none-eabi/9.3.1/../../../../arm-none-eabi/lib/thumb/v7e-m+fp/hard/libc_nano.a(lib_a-nano-vfprintf_i.o)
                0x000000000800d970                . = ALIGN (0x4)
 *fill*         0x000000000800d96f        0x1 

.ARM.extab
 *(.ARM.extab* .gnu.linkonce.armextab.*)

.ARM            0x000000000800d970        0x8
                0x000000000800d970                __exidx_start = .
 *(.ARM.exidx*)
 .ARM.exidx     0x000000000800d970        0x8 /opt/gcc-arm-none-eabi-9-2020-q2-update/bin/../lib/gcc/arm-none-eabi/9.3.1/thumb/v7e-m+fp/hard/libgcc.a(_udivmoddi4.o)
                0x000000000800d978                __exidx_end = .

.rel.dyn        0x000000000800d978        0x0
 .rel.iplt      0x000000000800d978        0x0 /opt/gcc-arm-none-eabi-9-2020-q2-update/bin/../lib/gcc/arm-none-eabi/9.3.1/thumb/v7e-m+fp/hard/crtbegin.o

.preinit_array  0x000000000800d978        0x0
                0x000000000800d978                PROVIDE (__preinit_array_start = .)
 *(.preinit_array*)
                0x000000000800d978                PROVIDE (__preinit_array_end = .)

.init_array     0x000000000800d978        0x4
                0x000000000800d978                PROVIDE (__init_array_start = .)
 *(SORT_BY_NAME(.init_array.*))
 *(.init_array*)
 .init_array    0x000000000800d978        0x4 /opt/gcc-arm-none-eabi-9-2020-q2-update/bin/../lib/gcc/arm-none-eabi/9.3.1/thumb/v7e-m+fp/hard/crtbegin.o
                0x000000000800d97c                PROVIDE (__init_array_end = .)

.fini_array     0x000000000800d97c        0x4
                [!provide]                        PROVIDE (__fini_array_start = .)
 *(SORT_BY_NAME(.fini_array.*))
 *(.fini_array*)
 .fini_array    0x000000000800d97c        0x4 /opt/gcc-arm-none-eabi-9-2020-q2-update/bin/../lib/gcc/arm-none-eabi/9.3.1/thumb/v7e-m+fp/hard/crtbegin.o
                [!provide]                        PROVIDE (__fini_array_end = .)
                0x000000000800d980                _sidata = LOADADDR (.data)

.data           0x0000000020000000      0x1e8 load address 0x000000000800d980
                0x0000000020000000                . = ALIGN (0x4)
                0x0000000020000000                _sdata = .
 *(.data)
 *(.data*)
 .data.uart1_cbuffer
                0x0000000020000000       0x18 build/main.o
                0x0000000020000000                uart1_cbuffer
 .data.uart3_cbuffer
                0x0000000020000018       0x18 build/main.o
                0x0000000020000018                uart3_cbuffer
 .data.uart6_cbuffer
                0x0000000020000030       0x18 build/main.o
                0x0000000020000030                uart6_cbuffer
 .data.can1_cbuffer
                0x0000000020000048       0x18 build/main.o
                0x0000000020000048                can1_cbuffer
 .data.can2_cbuffer
                0x0000000020000060       0x18 build/main.o
                0x0000000020000060                can2_cbuffer
 .data.uwTickFreq
                0x0000000020000078        0x1 build/stm32f4xx_hal.o
                0x0000000020000078                uwTickFreq
 *fill*         0x0000000020000079        0x3 
 .data.SystemCoreClock
                0x000000002000007c        0x4 build/system_stm32f4xx.o
                0x000000002000007c                SystemCoreClock
 .data.uxCriticalNesting
                0x0000000020000080        0x4 build/port.o
 .data.crc_lo   0x0000000020000084      0x100 build/CRC.o
 .data._impure_ptr
                0x0000000020000184        0x4 /opt/gcc-arm-none-eabi-9-2020-q2-update/bin/../lib/gcc/arm-none-eabi/9.3.1/../../../../arm-none-eabi/lib/thumb/v7e-m+fp/hard/libc_nano.a(lib_a-impure.o)
                0x0000000020000184                _impure_ptr
 .data.impure_data
                0x0000000020000188       0x60 /opt/gcc-arm-none-eabi-9-2020-q2-update/bin/../lib/gcc/arm-none-eabi/9.3.1/../../../../arm-none-eabi/lib/thumb/v7e-m+fp/hard/libc_nano.a(lib_a-impure.o)
                0x00000000200001e8                . = ALIGN (0x4)
                0x00000000200001e8                _edata = .
                0x000000000800db68                _siccmram = LOADADDR (.ccmram)

.igot.plt       0x00000000200001e8        0x0 load address 0x000000000800db68
 .igot.plt      0x00000000200001e8        0x0 /opt/gcc-arm-none-eabi-9-2020-q2-update/bin/../lib/gcc/arm-none-eabi/9.3.1/thumb/v7e-m+fp/hard/crtbegin.o

.ccmram         0x0000000010000000        0x0 load address 0x000000000800db68
                0x0000000010000000                . = ALIGN (0x4)
                0x0000000010000000                _sccmram = .
 *(.ccmram)
 *(.ccmram*)
                0x0000000010000000                . = ALIGN (0x4)
                0x0000000010000000                _eccmram = .
                0x0000000010000000                . = ALIGN (0x4)

.bss            0x00000000200001e8     0x917c
                0x00000000200001e8                _sbss = .
                0x00000000200001e8                __bss_start__ = _sbss
 *(.bss)
 .bss           0x00000000200001e8       0x1c /opt/gcc-arm-none-eabi-9-2020-q2-update/bin/../lib/gcc/arm-none-eabi/9.3.1/thumb/v7e-m+fp/hard/crtbegin.o
 *(.bss*)
 .bss.HAL_RCC_CAN1_CLK_ENABLED
                0x0000000020000204        0x4 build/stm32f4xx_hal_msp.o
 .bss.pxCurrentTCB
                0x0000000020000208        0x4 build/tasks.o
                0x0000000020000208                pxCurrentTCB
 .bss.pxReadyTasksLists
                0x000000002000020c       0x8c build/tasks.o
 .bss.xDelayedTaskList1
                0x0000000020000298       0x14 build/tasks.o
 .bss.xDelayedTaskList2
                0x00000000200002ac       0x14 build/tasks.o
 .bss.pxDelayedTaskList
                0x00000000200002c0        0x4 build/tasks.o
 .bss.pxOverflowDelayedTaskList
                0x00000000200002c4        0x4 build/tasks.o
 .bss.xPendingReadyList
                0x00000000200002c8       0x14 build/tasks.o
 .bss.xTasksWaitingTermination
                0x00000000200002dc       0x14 build/tasks.o
 .bss.uxDeletedTasksWaitingCleanUp
                0x00000000200002f0        0x4 build/tasks.o
 .bss.xSuspendedTaskList
                0x00000000200002f4       0x14 build/tasks.o
 .bss.uxCurrentNumberOfTasks
                0x0000000020000308        0x4 build/tasks.o
 .bss.xTickCount
                0x000000002000030c        0x4 build/tasks.o
 .bss.uxTopReadyPriority
                0x0000000020000310        0x4 build/tasks.o
 .bss.xSchedulerRunning
                0x0000000020000314        0x4 build/tasks.o
 .bss.uxPendedTicks
                0x0000000020000318        0x4 build/tasks.o
 .bss.xYieldPending
                0x000000002000031c        0x4 build/tasks.o
 .bss.xNumOfOverflows
                0x0000000020000320        0x4 build/tasks.o
 .bss.uxTaskNumber
                0x0000000020000324        0x4 build/tasks.o
 .bss.xNextTaskUnblockTime
                0x0000000020000328        0x4 build/tasks.o
 .bss.xIdleTaskHandle
                0x000000002000032c        0x4 build/tasks.o
 .bss.uxSchedulerSuspended
                0x0000000020000330        0x4 build/tasks.o
 .bss.ucHeap    0x0000000020000334     0x3c00 build/heap_4.o
 .bss.xStart    0x0000000020003f34        0x8 build/heap_4.o
 .bss.pxEnd     0x0000000020003f3c        0x4 build/heap_4.o
 .bss.xFreeBytesRemaining
                0x0000000020003f40        0x4 build/heap_4.o
 .bss.xMinimumEverFreeBytesRemaining
                0x0000000020003f44        0x4 build/heap_4.o
 .bss.xBlockAllocatedBit
                0x0000000020003f48        0x4 build/heap_4.o
 .bss.ucMaxSysCallPriority
                0x0000000020003f4c        0x1 build/port.o
 *fill*         0x0000000020003f4d        0x3 
 .bss.ulMaxPRIGROUPValue
                0x0000000020003f50        0x4 build/port.o
 .bss.gui       0x0000000020003f54        0x4 build/ugui.o
 .bss.__malloc_free_list
                0x0000000020003f58        0x4 /opt/gcc-arm-none-eabi-9-2020-q2-update/bin/../lib/gcc/arm-none-eabi/9.3.1/../../../../arm-none-eabi/lib/thumb/v7e-m+fp/hard/libc_nano.a(lib_a-nano-mallocr.o)
                0x0000000020003f58                __malloc_free_list
 .bss.__malloc_sbrk_start
                0x0000000020003f5c        0x4 /opt/gcc-arm-none-eabi-9-2020-q2-update/bin/../lib/gcc/arm-none-eabi/9.3.1/../../../../arm-none-eabi/lib/thumb/v7e-m+fp/hard/libc_nano.a(lib_a-nano-mallocr.o)
                0x0000000020003f5c                __malloc_sbrk_start
 .bss.heap_end.5507
                0x0000000020003f60        0x4 /opt/gcc-arm-none-eabi-9-2020-q2-update/bin/../lib/gcc/arm-none-eabi/9.3.1/../../../../arm-none-eabi/lib/thumb/v7e-m+fp/hard/libnosys.a(sbrk.o)
 *(COMMON)
 COMMON         0x0000000020003f64     0x4f68 build/main.o
                0x0000000020003f64                mbport1
                0x0000000020004298                mbport2
                0x00000000200045cc                hi2c3
                0x0000000020004620                hdma_usart6_rx
                0x0000000020004680                uart3_cbuffer_data_space
                0x0000000020004a80                can1_rx_semaphoreHandle
                0x0000000020004a84                hspi5
                0x0000000020004adc                hdma_usart3_rx
                0x0000000020004b3c                huart3
                0x0000000020004b7c                device1
                0x0000000020004d80                device2
                0x0000000020004f84                hdma_usart3_tx
                0x0000000020004fe4                hspi3
                0x000000002000503c                can1_rx_queue
                0x0000000020005040                Usart3RxSemaphoreHandle
                0x0000000020005044                hdma_usart1_tx
                0x00000000200050a4                hdma_usart6_tx
                0x0000000020005104                hcan2
                0x000000002000512c                hdma_usart1_rx
                0x000000002000518c                huart1
                0x00000000200051cc                Usart1RxSemaphoreHandle
                0x00000000200051d0                can1_cbuffer_data_space
                0x00000000200055d0                RxQueue1
                0x00000000200055d4                input_task_Handle
                0x00000000200055d8                canTaskHandle
                0x00000000200055dc                TxData
                0x00000000200055e4                can2_cbuffer_data_space
                0x00000000200059e4                RxQueue6
                0x00000000200059e8                TxMailbox
                0x00000000200059ec                modbus_error
                0x00000000200059f0                huart6
                0x0000000020005a30                uart1_cbuffer_data_space
                0x0000000020005e30                can_port2
                0x0000000020007284                RxData
                0x000000002000728c                mbproxy_regs
                0x0000000020007290                hcan1
                0x00000000200072b8                can2_rx_semaphoreHandle
                0x00000000200072bc                inputHighWaterMark
                0x00000000200072c0                RxQueue3
                0x00000000200072c4                timerTaskHandle
                0x00000000200072c8                TxHeader
                0x00000000200072e0                can_port1
                0x0000000020008734                RxHeader
                0x0000000020008750                uart6_cbuffer_data_space
                0x0000000020008b50                output_task_Handle
                0x0000000020008b54                Usart6RxSemaphoreHandle
                0x0000000020008b58                htim7
                0x0000000020008b94                can2_rx_queue
                0x0000000020008b98                mbport3
 COMMON         0x0000000020008ecc       0x3c build/stm32f4xx_hal_timebase_tim.o
                0x0000000020008ecc                htim1
 COMMON         0x0000000020008f08        0x4 build/stm32f4xx_hal.o
                0x0000000020008f08                uwTick
 COMMON         0x0000000020008f0c      0x1c4 build/commutator_gui.o
                0x0000000020008f0c                object_status
                0x0000000020008f10                button_iostate
                0x0000000020008f28                gui
                0x0000000020008f8c                obj_buff_wnd_status
                0x000000002000904c                object_time
                0x0000000020009050                button_voltage
                0x0000000020009068                button_setup
                0x0000000020009080                window_status
                0x00000000200090b8                button_temperature
 COMMON         0x00000000200090d0       0x90 build/soft_timer.o
                0x00000000200090d0                timers
 COMMON         0x0000000020009160       0x50 build/modbus_proxy.o
                0x0000000020009160                mbproxy
 COMMON         0x00000000200091b0        0xc build/can_proxy.o
                0x00000000200091b0                can_proxy
 COMMON         0x00000000200091bc      0x188 build/errors.o
                0x00000000200091bc                errors
 COMMON         0x0000000020009344       0x10 build/uptime.o
                0x0000000020009344                uptime_mod
 COMMON         0x0000000020009354        0x9 /opt/gcc-arm-none-eabi-9-2020-q2-update/bin/../lib/gcc/arm-none-eabi/9.3.1/../../../../arm-none-eabi/lib/thumb/v7e-m+fp/hard/libc_nano.a(lib_a-lock.o)
                0x0000000020009354                __lock___atexit_recursive_mutex
                0x0000000020009355                __lock___arc4random_mutex
                0x0000000020009356                __lock___env_recursive_mutex
                0x0000000020009357                __lock___sinit_recursive_mutex
                0x0000000020009358                __lock___malloc_recursive_mutex
                0x0000000020009359                __lock___at_quick_exit_mutex
                0x000000002000935a                __lock___dd_hash_mutex
                0x000000002000935b                __lock___tz_mutex
                0x000000002000935c                __lock___sfp_recursive_mutex
 *fill*         0x000000002000935d        0x3 
 COMMON         0x0000000020009360        0x4 /opt/gcc-arm-none-eabi-9-2020-q2-update/bin/../lib/gcc/arm-none-eabi/9.3.1/../../../../arm-none-eabi/lib/thumb/v7e-m+fp/hard/libc_nano.a(lib_a-reent.o)
                0x0000000020009360                errno
                0x0000000020009364                . = ALIGN (0x4)
                0x0000000020009364                _ebss = .
                0x0000000020009364                __bss_end__ = _ebss

._user_heap_stack
                0x0000000020009364      0x604
                0x0000000020009368                . = ALIGN (0x8)
 *fill*         0x0000000020009364        0x4 
                0x0000000020009368                PROVIDE (end = .)
                [!provide]                        PROVIDE (_end = .)
                0x0000000020009568                . = (. + _Min_Heap_Size)
 *fill*         0x0000000020009368      0x200 
                0x0000000020009968                . = (. + _Min_Stack_Size)
 *fill*         0x0000000020009568      0x400 
                0x0000000020009968                . = ALIGN (0x8)

/DISCARD/
 libc.a(*)
 libm.a(*)
 libgcc.a(*)

.ARM.attributes
                0x0000000000000000       0x30
 *(.ARM.attributes)
 .ARM.attributes
                0x0000000000000000       0x1e /opt/gcc-arm-none-eabi-9-2020-q2-update/bin/../lib/gcc/arm-none-eabi/9.3.1/thumb/v7e-m+fp/hard/crti.o
 .ARM.attributes
                0x000000000000001e       0x34 /opt/gcc-arm-none-eabi-9-2020-q2-update/bin/../lib/gcc/arm-none-eabi/9.3.1/thumb/v7e-m+fp/hard/crtbegin.o
 .ARM.attributes
                0x0000000000000052       0x34 build/main.o
 .ARM.attributes
                0x0000000000000086       0x34 build/stm32f4xx_it.o
 .ARM.attributes
                0x00000000000000ba       0x34 build/stm32f4xx_hal_msp.o
 .ARM.attributes
                0x00000000000000ee       0x34 build/stm32f4xx_hal_timebase_tim.o
 .ARM.attributes
                0x0000000000000122       0x34 build/stm32f4xx_hal_can.o
 .ARM.attributes
                0x0000000000000156       0x34 build/stm32f4xx_hal_rcc.o
 .ARM.attributes
                0x000000000000018a       0x34 build/stm32f4xx_hal_gpio.o
 .ARM.attributes
                0x00000000000001be       0x34 build/stm32f4xx_hal_dma.o
 .ARM.attributes
                0x00000000000001f2       0x34 build/stm32f4xx_hal_pwr_ex.o
 .ARM.attributes
                0x0000000000000226       0x34 build/stm32f4xx_hal_cortex.o
 .ARM.attributes
                0x000000000000025a       0x34 build/stm32f4xx_hal.o
 .ARM.attributes
                0x000000000000028e       0x34 build/stm32f4xx_hal_i2c.o
 .ARM.attributes
                0x00000000000002c2       0x34 build/stm32f4xx_hal_i2c_ex.o
 .ARM.attributes
                0x00000000000002f6       0x34 build/stm32f4xx_hal_spi.o
 .ARM.attributes
                0x000000000000032a       0x34 build/stm32f4xx_hal_tim.o
 .ARM.attributes
                0x000000000000035e       0x34 build/stm32f4xx_hal_tim_ex.o
 .ARM.attributes
                0x0000000000000392       0x34 build/stm32f4xx_hal_uart.o
 .ARM.attributes
                0x00000000000003c6       0x34 build/system_stm32f4xx.o
 .ARM.attributes
                0x00000000000003fa       0x34 build/list.o
 .ARM.attributes
                0x000000000000042e       0x34 build/queue.o
 .ARM.attributes
                0x0000000000000462       0x34 build/tasks.o
 .ARM.attributes
                0x0000000000000496       0x34 build/cmsis_os.o
 .ARM.attributes
                0x00000000000004ca       0x34 build/heap_4.o
 .ARM.attributes
                0x00000000000004fe       0x34 build/port.o
 .ARM.attributes
                0x0000000000000532       0x34 build/ugui.o
 .ARM.attributes
                0x0000000000000566       0x34 build/ili9341.o
 .ARM.attributes
                0x000000000000059a       0x34 build/commutator_gui.o
 .ARM.attributes
                0x00000000000005ce       0x34 build/CRC.o
 .ARM.attributes
                0x0000000000000602       0x34 build/soft_timer.o
 .ARM.attributes
                0x0000000000000636       0x34 build/circular_buffer.o
 .ARM.attributes
                0x000000000000066a       0x34 build/modbus.o
 .ARM.attributes
                0x000000000000069e       0x34 build/modbus_proxy.o
 .ARM.attributes
                0x00000000000006d2       0x34 build/modbus_port.o
 .ARM.attributes
                0x0000000000000706       0x34 build/can_proxy.o
 .ARM.attributes
                0x000000000000073a       0x34 build/can_port.o
 .ARM.attributes
                0x000000000000076e       0x34 build/dma_usart_idle.o
 .ARM.attributes
                0x00000000000007a2       0x34 build/errors.o
 .ARM.attributes
                0x00000000000007d6       0x34 build/uptime.o
 .ARM.attributes
                0x000000000000080a       0x34 build/device.o
 .ARM.attributes
                0x000000000000083e       0x21 build/startup_stm32f429xx.o
 .ARM.attributes
                0x000000000000085f       0x32 /opt/gcc-arm-none-eabi-9-2020-q2-update/bin/../lib/gcc/arm-none-eabi/9.3.1/../../../../arm-none-eabi/lib/thumb/v7e-m+fp/hard/libc_nano.a(lib_a-impure.o)
 .ARM.attributes
                0x0000000000000891       0x34 /opt/gcc-arm-none-eabi-9-2020-q2-update/bin/../lib/gcc/arm-none-eabi/9.3.1/../../../../arm-none-eabi/lib/thumb/v7e-m+fp/hard/libc_nano.a(lib_a-init.o)
 .ARM.attributes
                0x00000000000008c5       0x34 /opt/gcc-arm-none-eabi-9-2020-q2-update/bin/../lib/gcc/arm-none-eabi/9.3.1/../../../../arm-none-eabi/lib/thumb/v7e-m+fp/hard/libc_nano.a(lib_a-memcpy-stub.o)
 .ARM.attributes
                0x00000000000008f9       0x34 /opt/gcc-arm-none-eabi-9-2020-q2-update/bin/../lib/gcc/arm-none-eabi/9.3.1/../../../../arm-none-eabi/lib/thumb/v7e-m+fp/hard/libc_nano.a(lib_a-memset.o)
 .ARM.attributes
                0x000000000000092d       0x34 /opt/gcc-arm-none-eabi-9-2020-q2-update/bin/../lib/gcc/arm-none-eabi/9.3.1/../../../../arm-none-eabi/lib/thumb/v7e-m+fp/hard/libc_nano.a(lib_a-printf.o)
 .ARM.attributes
                0x0000000000000961       0x34 /opt/gcc-arm-none-eabi-9-2020-q2-update/bin/../lib/gcc/arm-none-eabi/9.3.1/../../../../arm-none-eabi/lib/thumb/v7e-m+fp/hard/libc_nano.a(lib_a-findfp.o)
 .ARM.attributes
                0x0000000000000995       0x34 /opt/gcc-arm-none-eabi-9-2020-q2-update/bin/../lib/gcc/arm-none-eabi/9.3.1/../../../../arm-none-eabi/lib/thumb/v7e-m+fp/hard/libc_nano.a(lib_a-fwalk.o)
 .ARM.attributes
                0x00000000000009c9       0x34 /opt/gcc-arm-none-eabi-9-2020-q2-update/bin/../lib/gcc/arm-none-eabi/9.3.1/../../../../arm-none-eabi/lib/thumb/v7e-m+fp/hard/libc_nano.a(lib_a-lock.o)
 .ARM.attributes
                0x00000000000009fd       0x34 /opt/gcc-arm-none-eabi-9-2020-q2-update/bin/../lib/gcc/arm-none-eabi/9.3.1/../../../../arm-none-eabi/lib/thumb/v7e-m+fp/hard/libc_nano.a(lib_a-nano-mallocr.o)
 .ARM.attributes
                0x0000000000000a31       0x34 /opt/gcc-arm-none-eabi-9-2020-q2-update/bin/../lib/gcc/arm-none-eabi/9.3.1/../../../../arm-none-eabi/lib/thumb/v7e-m+fp/hard/libc_nano.a(lib_a-nano-vfprintf.o)
 .ARM.attributes
                0x0000000000000a65       0x34 /opt/gcc-arm-none-eabi-9-2020-q2-update/bin/../lib/gcc/arm-none-eabi/9.3.1/../../../../arm-none-eabi/lib/thumb/v7e-m+fp/hard/libc_nano.a(lib_a-nano-vfprintf_i.o)
 .ARM.attributes
                0x0000000000000a99       0x34 /opt/gcc-arm-none-eabi-9-2020-q2-update/bin/../lib/gcc/arm-none-eabi/9.3.1/../../../../arm-none-eabi/lib/thumb/v7e-m+fp/hard/libc_nano.a(lib_a-sbrkr.o)
 .ARM.attributes
                0x0000000000000acd       0x34 /opt/gcc-arm-none-eabi-9-2020-q2-update/bin/../lib/gcc/arm-none-eabi/9.3.1/../../../../arm-none-eabi/lib/thumb/v7e-m+fp/hard/libc_nano.a(lib_a-stdio.o)
 .ARM.attributes
                0x0000000000000b01       0x34 /opt/gcc-arm-none-eabi-9-2020-q2-update/bin/../lib/gcc/arm-none-eabi/9.3.1/../../../../arm-none-eabi/lib/thumb/v7e-m+fp/hard/libc_nano.a(lib_a-wbuf.o)
 .ARM.attributes
                0x0000000000000b35       0x34 /opt/gcc-arm-none-eabi-9-2020-q2-update/bin/../lib/gcc/arm-none-eabi/9.3.1/../../../../arm-none-eabi/lib/thumb/v7e-m+fp/hard/libc_nano.a(lib_a-writer.o)
 .ARM.attributes
                0x0000000000000b69       0x34 /opt/gcc-arm-none-eabi-9-2020-q2-update/bin/../lib/gcc/arm-none-eabi/9.3.1/../../../../arm-none-eabi/lib/thumb/v7e-m+fp/hard/libc_nano.a(lib_a-wsetup.o)
 .ARM.attributes
                0x0000000000000b9d       0x34 /opt/gcc-arm-none-eabi-9-2020-q2-update/bin/../lib/gcc/arm-none-eabi/9.3.1/../../../../arm-none-eabi/lib/thumb/v7e-m+fp/hard/libc_nano.a(lib_a-closer.o)
 .ARM.attributes
                0x0000000000000bd1       0x34 /opt/gcc-arm-none-eabi-9-2020-q2-update/bin/../lib/gcc/arm-none-eabi/9.3.1/../../../../arm-none-eabi/lib/thumb/v7e-m+fp/hard/libc_nano.a(lib_a-fflush.o)
 .ARM.attributes
                0x0000000000000c05       0x34 /opt/gcc-arm-none-eabi-9-2020-q2-update/bin/../lib/gcc/arm-none-eabi/9.3.1/../../../../arm-none-eabi/lib/thumb/v7e-m+fp/hard/libc_nano.a(lib_a-lseekr.o)
 .ARM.attributes
                0x0000000000000c39       0x34 /opt/gcc-arm-none-eabi-9-2020-q2-update/bin/../lib/gcc/arm-none-eabi/9.3.1/../../../../arm-none-eabi/lib/thumb/v7e-m+fp/hard/libc_nano.a(lib_a-makebuf.o)
 .ARM.attributes
                0x0000000000000c6d       0x1c /opt/gcc-arm-none-eabi-9-2020-q2-update/bin/../lib/gcc/arm-none-eabi/9.3.1/../../../../arm-none-eabi/lib/thumb/v7e-m+fp/hard/libc_nano.a(lib_a-memchr.o)
 .ARM.attributes
                0x0000000000000c89       0x34 /opt/gcc-arm-none-eabi-9-2020-q2-update/bin/../lib/gcc/arm-none-eabi/9.3.1/../../../../arm-none-eabi/lib/thumb/v7e-m+fp/hard/libc_nano.a(lib_a-mlock.o)
 .ARM.attributes
                0x0000000000000cbd       0x34 /opt/gcc-arm-none-eabi-9-2020-q2-update/bin/../lib/gcc/arm-none-eabi/9.3.1/../../../../arm-none-eabi/lib/thumb/v7e-m+fp/hard/libc_nano.a(lib_a-nano-freer.o)
 .ARM.attributes
                0x0000000000000cf1       0x34 /opt/gcc-arm-none-eabi-9-2020-q2-update/bin/../lib/gcc/arm-none-eabi/9.3.1/../../../../arm-none-eabi/lib/thumb/v7e-m+fp/hard/libc_nano.a(lib_a-readr.o)
 .ARM.attributes
                0x0000000000000d25       0x34 /opt/gcc-arm-none-eabi-9-2020-q2-update/bin/../lib/gcc/arm-none-eabi/9.3.1/../../../../arm-none-eabi/lib/thumb/v7e-m+fp/hard/libc_nano.a(lib_a-reent.o)
 .ARM.attributes
                0x0000000000000d59       0x34 /opt/gcc-arm-none-eabi-9-2020-q2-update/bin/../lib/gcc/arm-none-eabi/9.3.1/../../../../arm-none-eabi/lib/thumb/v7e-m+fp/hard/libc_nano.a(lib_a-fstatr.o)
 .ARM.attributes
                0x0000000000000d8d       0x34 /opt/gcc-arm-none-eabi-9-2020-q2-update/bin/../lib/gcc/arm-none-eabi/9.3.1/../../../../arm-none-eabi/lib/thumb/v7e-m+fp/hard/libc_nano.a(lib_a-isattyr.o)
 .ARM.attributes
                0x0000000000000dc1       0x34 /opt/gcc-arm-none-eabi-9-2020-q2-update/bin/../lib/gcc/arm-none-eabi/9.3.1/../../../../arm-none-eabi/lib/thumb/v7e-m+fp/hard/libnosys.a(close.o)
 .ARM.attributes
                0x0000000000000df5       0x34 /opt/gcc-arm-none-eabi-9-2020-q2-update/bin/../lib/gcc/arm-none-eabi/9.3.1/../../../../arm-none-eabi/lib/thumb/v7e-m+fp/hard/libnosys.a(fstat.o)
 .ARM.attributes
                0x0000000000000e29       0x34 /opt/gcc-arm-none-eabi-9-2020-q2-update/bin/../lib/gcc/arm-none-eabi/9.3.1/../../../../arm-none-eabi/lib/thumb/v7e-m+fp/hard/libnosys.a(isatty.o)
 .ARM.attributes
                0x0000000000000e5d       0x34 /opt/gcc-arm-none-eabi-9-2020-q2-update/bin/../lib/gcc/arm-none-eabi/9.3.1/../../../../arm-none-eabi/lib/thumb/v7e-m+fp/hard/libnosys.a(lseek.o)
 .ARM.attributes
                0x0000000000000e91       0x34 /opt/gcc-arm-none-eabi-9-2020-q2-update/bin/../lib/gcc/arm-none-eabi/9.3.1/../../../../arm-none-eabi/lib/thumb/v7e-m+fp/hard/libnosys.a(read.o)
 .ARM.attributes
                0x0000000000000ec5       0x34 /opt/gcc-arm-none-eabi-9-2020-q2-update/bin/../lib/gcc/arm-none-eabi/9.3.1/../../../../arm-none-eabi/lib/thumb/v7e-m+fp/hard/libnosys.a(sbrk.o)
 .ARM.attributes
                0x0000000000000ef9       0x34 /opt/gcc-arm-none-eabi-9-2020-q2-update/bin/../lib/gcc/arm-none-eabi/9.3.1/../../../../arm-none-eabi/lib/thumb/v7e-m+fp/hard/libnosys.a(write.o)
 .ARM.attributes
                0x0000000000000f2d       0x1e /opt/gcc-arm-none-eabi-9-2020-q2-update/bin/../lib/gcc/arm-none-eabi/9.3.1/thumb/v7e-m+fp/hard/libgcc.a(_aeabi_uldivmod.o)
 .ARM.attributes
                0x0000000000000f4b       0x34 /opt/gcc-arm-none-eabi-9-2020-q2-update/bin/../lib/gcc/arm-none-eabi/9.3.1/thumb/v7e-m+fp/hard/libgcc.a(_udivmoddi4.o)
 .ARM.attributes
                0x0000000000000f7f       0x1e /opt/gcc-arm-none-eabi-9-2020-q2-update/bin/../lib/gcc/arm-none-eabi/9.3.1/thumb/v7e-m+fp/hard/libgcc.a(_dvmd_tls.o)
 .ARM.attributes
                0x0000000000000f9d       0x1e /opt/gcc-arm-none-eabi-9-2020-q2-update/bin/../lib/gcc/arm-none-eabi/9.3.1/thumb/v7e-m+fp/hard/crtn.o
OUTPUT(build/can_comutator.elf elf32-littlearm)
LOAD linker stubs
LOAD /opt/gcc-arm-none-eabi-9-2020-q2-update/bin/../lib/gcc/arm-none-eabi/9.3.1/../../../../arm-none-eabi/lib/thumb/v7e-m+fp/hard/libc.a
LOAD /opt/gcc-arm-none-eabi-9-2020-q2-update/bin/../lib/gcc/arm-none-eabi/9.3.1/../../../../arm-none-eabi/lib/thumb/v7e-m+fp/hard/libm.a
LOAD /opt/gcc-arm-none-eabi-9-2020-q2-update/bin/../lib/gcc/arm-none-eabi/9.3.1/thumb/v7e-m+fp/hard/libgcc.a

.debug_info     0x0000000000000000    0x3d1ac
 .debug_info    0x0000000000000000     0x36f8 build/main.o
 .debug_info    0x00000000000036f8     0x19eb build/stm32f4xx_it.o
 .debug_info    0x00000000000050e3     0x243c build/stm32f4xx_hal_msp.o
 .debug_info    0x000000000000751f     0x161e build/stm32f4xx_hal_timebase_tim.o
 .debug_info    0x0000000000008b3d     0x1a37 build/stm32f4xx_hal_can.o
 .debug_info    0x000000000000a574     0x13b6 build/stm32f4xx_hal_rcc.o
 .debug_info    0x000000000000b92a     0x1220 build/stm32f4xx_hal_gpio.o
 .debug_info    0x000000000000cb4a     0x13b6 build/stm32f4xx_hal_dma.o
 .debug_info    0x000000000000df00     0x11c5 build/stm32f4xx_hal_pwr_ex.o
 .debug_info    0x000000000000f0c5     0x194e build/stm32f4xx_hal_cortex.o
 .debug_info    0x0000000000010a13     0x1467 build/stm32f4xx_hal.o
 .debug_info    0x0000000000011e7a     0x2dbe build/stm32f4xx_hal_i2c.o
 .debug_info    0x0000000000014c38     0x1150 build/stm32f4xx_hal_i2c_ex.o
 .debug_info    0x0000000000015d88     0x2126 build/stm32f4xx_hal_spi.o
 .debug_info    0x0000000000017eae     0x304e build/stm32f4xx_hal_tim.o
 .debug_info    0x000000000001aefc     0x1ba1 build/stm32f4xx_hal_tim_ex.o
 .debug_info    0x000000000001ca9d     0x1dd9 build/stm32f4xx_hal_uart.o
 .debug_info    0x000000000001e876      0xf70 build/system_stm32f4xx.o
 .debug_info    0x000000000001f7e6      0xc8e build/list.o
 .debug_info    0x0000000000020474     0x1b81 build/queue.o
 .debug_info    0x0000000000021ff5     0x23b9 build/tasks.o
 .debug_info    0x00000000000243ae     0x1eac build/cmsis_os.o
 .debug_info    0x000000000002625a      0xd85 build/heap_4.o
 .debug_info    0x0000000000026fdf      0x511 build/port.o
 .debug_info    0x00000000000274f0     0x576c build/ugui.o
 .debug_info    0x000000000002cc5c     0x1c35 build/ili9341.o
 .debug_info    0x000000000002e891     0x1bd3 build/commutator_gui.o
 .debug_info    0x0000000000030464      0xb7f build/CRC.o
 .debug_info    0x0000000000030fe3      0x2e6 build/soft_timer.o
 .debug_info    0x00000000000312c9      0xb73 build/circular_buffer.o
 .debug_info    0x0000000000031e3c     0x1a87 build/modbus.o
 .debug_info    0x00000000000338c3     0x1d07 build/modbus_proxy.o
 .debug_info    0x00000000000355ca     0x16fa build/modbus_port.o
 .debug_info    0x0000000000036cc4     0x119d build/can_proxy.o
 .debug_info    0x0000000000037e61     0x1499 build/can_port.o
 .debug_info    0x00000000000392fa     0x17c9 build/dma_usart_idle.o
 .debug_info    0x000000000003aac3      0xcea build/errors.o
 .debug_info    0x000000000003b7ad      0xbc1 build/uptime.o
 .debug_info    0x000000000003c36e      0xe1c build/device.o
 .debug_info    0x000000000003d18a       0x22 build/startup_stm32f429xx.o

.debug_abbrev   0x0000000000000000     0x6bb7
 .debug_abbrev  0x0000000000000000      0x39e build/main.o
 .debug_abbrev  0x000000000000039e      0x23c build/stm32f4xx_it.o
 .debug_abbrev  0x00000000000005da      0x28e build/stm32f4xx_hal_msp.o
 .debug_abbrev  0x0000000000000868      0x25c build/stm32f4xx_hal_timebase_tim.o
 .debug_abbrev  0x0000000000000ac4      0x30e build/stm32f4xx_hal_can.o
 .debug_abbrev  0x0000000000000dd2      0x329 build/stm32f4xx_hal_rcc.o
 .debug_abbrev  0x00000000000010fb      0x2a5 build/stm32f4xx_hal_gpio.o
 .debug_abbrev  0x00000000000013a0      0x2e5 build/stm32f4xx_hal_dma.o
 .debug_abbrev  0x0000000000001685      0x2ce build/stm32f4xx_hal_pwr_ex.o
 .debug_abbrev  0x0000000000001953      0x3c2 build/stm32f4xx_hal_cortex.o
 .debug_abbrev  0x0000000000001d15      0x2dd build/stm32f4xx_hal.o
 .debug_abbrev  0x0000000000001ff2      0x2fe build/stm32f4xx_hal_i2c.o
 .debug_abbrev  0x00000000000022f0      0x228 build/stm32f4xx_hal_i2c_ex.o
 .debug_abbrev  0x0000000000002518      0x30b build/stm32f4xx_hal_spi.o
 .debug_abbrev  0x0000000000002823      0x30e build/stm32f4xx_hal_tim.o
 .debug_abbrev  0x0000000000002b31      0x2e9 build/stm32f4xx_hal_tim_ex.o
 .debug_abbrev  0x0000000000002e1a      0x31e build/stm32f4xx_hal_uart.o
 .debug_abbrev  0x0000000000003138      0x217 build/system_stm32f4xx.o
 .debug_abbrev  0x000000000000334f      0x20e build/list.o
 .debug_abbrev  0x000000000000355d      0x335 build/queue.o
 .debug_abbrev  0x0000000000003892      0x3c0 build/tasks.o
 .debug_abbrev  0x0000000000003c52      0x3d7 build/cmsis_os.o
 .debug_abbrev  0x0000000000004029      0x2f1 build/heap_4.o
 .debug_abbrev  0x000000000000431a      0x20f build/port.o
 .debug_abbrev  0x0000000000004529      0x341 build/ugui.o
 .debug_abbrev  0x000000000000486a      0x30b build/ili9341.o
 .debug_abbrev  0x0000000000004b75      0x2ee build/commutator_gui.o
 .debug_abbrev  0x0000000000004e63      0x1ee build/CRC.o
 .debug_abbrev  0x0000000000005051      0x152 build/soft_timer.o
 .debug_abbrev  0x00000000000051a3      0x1ea build/circular_buffer.o
 .debug_abbrev  0x000000000000538d      0x2e8 build/modbus.o
 .debug_abbrev  0x0000000000005675      0x393 build/modbus_proxy.o
 .debug_abbrev  0x0000000000005a08      0x272 build/modbus_port.o
 .debug_abbrev  0x0000000000005c7a      0x246 build/can_proxy.o
 .debug_abbrev  0x0000000000005ec0      0x2d4 build/can_port.o
 .debug_abbrev  0x0000000000006194      0x2a1 build/dma_usart_idle.o
 .debug_abbrev  0x0000000000006435      0x283 build/errors.o
 .debug_abbrev  0x00000000000066b8      0x239 build/uptime.o
 .debug_abbrev  0x00000000000068f1      0x2b4 build/device.o
 .debug_abbrev  0x0000000000006ba5       0x12 build/startup_stm32f429xx.o

.debug_loc      0x0000000000000000    0x13235
 .debug_loc     0x0000000000000000      0x588 build/main.o
 .debug_loc     0x0000000000000588      0x47c build/stm32f4xx_it.o
 .debug_loc     0x0000000000000a04      0x2d2 build/stm32f4xx_hal_msp.o
 .debug_loc     0x0000000000000cd6       0xd8 build/stm32f4xx_hal_timebase_tim.o
 .debug_loc     0x0000000000000dae      0xcb4 build/stm32f4xx_hal_can.o
 .debug_loc     0x0000000000001a62      0x3d0 build/stm32f4xx_hal_rcc.o
 .debug_loc     0x0000000000001e32      0x2d4 build/stm32f4xx_hal_gpio.o
 .debug_loc     0x0000000000002106      0x510 build/stm32f4xx_hal_dma.o
 .debug_loc     0x0000000000002616      0x2b8 build/stm32f4xx_hal_pwr_ex.o
 .debug_loc     0x00000000000028ce      0x9f4 build/stm32f4xx_hal_cortex.o
 .debug_loc     0x00000000000032c2      0x738 build/stm32f4xx_hal.o
 .debug_loc     0x00000000000039fa     0x18ae build/stm32f4xx_hal_i2c.o
 .debug_loc     0x00000000000052a8       0xb8 build/stm32f4xx_hal_i2c_ex.o
 .debug_loc     0x0000000000005360     0x11b8 build/stm32f4xx_hal_spi.o
 .debug_loc     0x0000000000006518     0x2348 build/stm32f4xx_hal_tim.o
 .debug_loc     0x0000000000008860      0xc20 build/stm32f4xx_hal_tim_ex.o
 .debug_loc     0x0000000000009480     0x1250 build/stm32f4xx_hal_uart.o
 .debug_loc     0x000000000000a6d0       0xa0 build/system_stm32f4xx.o
 .debug_loc     0x000000000000a770      0x1cc build/list.o
 .debug_loc     0x000000000000a93c      0x822 build/queue.o
 .debug_loc     0x000000000000b15e      0xf76 build/tasks.o
 .debug_loc     0x000000000000c0d4     0x1120 build/cmsis_os.o
 .debug_loc     0x000000000000d1f4      0x224 build/heap_4.o
 .debug_loc     0x000000000000d418      0x2e8 build/port.o
 .debug_loc     0x000000000000d700     0x38da build/ugui.o
 .debug_loc     0x0000000000010fda      0x4bb build/ili9341.o
 .debug_loc     0x0000000000011495      0x246 build/commutator_gui.o
 .debug_loc     0x00000000000116db       0x5c build/CRC.o
 .debug_loc     0x0000000000011737      0x1c0 build/soft_timer.o
 .debug_loc     0x00000000000118f7       0xa0 build/circular_buffer.o
 .debug_loc     0x0000000000011997      0x320 build/modbus.o
 .debug_loc     0x0000000000011cb7      0x864 build/modbus_proxy.o
 .debug_loc     0x000000000001251b       0xf0 build/modbus_port.o
 .debug_loc     0x000000000001260b       0xac build/can_proxy.o
 .debug_loc     0x00000000000126b7      0x3d2 build/can_port.o
 .debug_loc     0x0000000000012a89      0x23c build/dma_usart_idle.o
 .debug_loc     0x0000000000012cc5      0x288 build/errors.o
 .debug_loc     0x0000000000012f4d       0xe4 build/uptime.o
 .debug_loc     0x0000000000013031      0x204 build/device.o

.debug_aranges  0x0000000000000000     0x2220
 .debug_aranges
                0x0000000000000000       0xd0 build/main.o
 .debug_aranges
                0x00000000000000d0       0xe0 build/stm32f4xx_it.o
 .debug_aranges
                0x00000000000001b0       0x60 build/stm32f4xx_hal_msp.o
 .debug_aranges
                0x0000000000000210       0x30 build/stm32f4xx_hal_timebase_tim.o
 .debug_aranges
                0x0000000000000240      0x138 build/stm32f4xx_hal_can.o
 .debug_aranges
                0x0000000000000378       0x88 build/stm32f4xx_hal_rcc.o
 .debug_aranges
                0x0000000000000400       0x58 build/stm32f4xx_hal_gpio.o
 .debug_aranges
                0x0000000000000458       0x90 build/stm32f4xx_hal_dma.o
 .debug_aranges
                0x00000000000004e8       0x60 build/stm32f4xx_hal_pwr_ex.o
 .debug_aranges
                0x0000000000000548      0x118 build/stm32f4xx_hal_cortex.o
 .debug_aranges
                0x0000000000000660       0xf0 build/stm32f4xx_hal.o
 .debug_aranges
                0x0000000000000750      0x268 build/stm32f4xx_hal_i2c.o
 .debug_aranges
                0x00000000000009b8       0x28 build/stm32f4xx_hal_i2c_ex.o
 .debug_aranges
                0x00000000000009e0      0x1c8 build/stm32f4xx_hal_spi.o
 .debug_aranges
                0x0000000000000ba8      0x368 build/stm32f4xx_hal_tim.o
 .debug_aranges
                0x0000000000000f10      0x140 build/stm32f4xx_hal_tim_ex.o
 .debug_aranges
                0x0000000000001050      0x1d0 build/stm32f4xx_hal_uart.o
 .debug_aranges
                0x0000000000001220       0x28 build/system_stm32f4xx.o
 .debug_aranges
                0x0000000000001248       0x40 build/list.o
 .debug_aranges
                0x0000000000001288       0xe0 build/queue.o
 .debug_aranges
                0x0000000000001368      0x1a0 build/tasks.o
 .debug_aranges
                0x0000000000001508      0x1d8 build/cmsis_os.o
 .debug_aranges
                0x00000000000016e0       0x50 build/heap_4.o
 .debug_aranges
                0x0000000000001730       0x80 build/port.o
 .debug_aranges
                0x00000000000017b0      0x588 build/ugui.o
 .debug_aranges
                0x0000000000001d38       0x98 build/ili9341.o
 .debug_aranges
                0x0000000000001dd0       0x58 build/commutator_gui.o
 .debug_aranges
                0x0000000000001e28       0x20 build/CRC.o
 .debug_aranges
                0x0000000000001e48       0x40 build/soft_timer.o
 .debug_aranges
                0x0000000000001e88       0x28 build/circular_buffer.o
 .debug_aranges
                0x0000000000001eb0       0x68 build/modbus.o
 .debug_aranges
                0x0000000000001f18       0xf0 build/modbus_proxy.o
 .debug_aranges
                0x0000000000002008       0x30 build/modbus_port.o
 .debug_aranges
                0x0000000000002038       0x28 build/can_proxy.o
 .debug_aranges
                0x0000000000002060       0x70 build/can_port.o
 .debug_aranges
                0x00000000000020d0       0x50 build/dma_usart_idle.o
 .debug_aranges
                0x0000000000002120       0x60 build/errors.o
 .debug_aranges
                0x0000000000002180       0x30 build/uptime.o
 .debug_aranges
                0x00000000000021b0       0x48 build/device.o
 .debug_aranges
                0x00000000000021f8       0x28 build/startup_stm32f429xx.o

.debug_ranges   0x0000000000000000     0x1ff0
 .debug_ranges  0x0000000000000000       0xc0 build/main.o
 .debug_ranges  0x00000000000000c0       0xd0 build/stm32f4xx_it.o
 .debug_ranges  0x0000000000000190       0x50 build/stm32f4xx_hal_msp.o
 .debug_ranges  0x00000000000001e0       0x20 build/stm32f4xx_hal_timebase_tim.o
 .debug_ranges  0x0000000000000200      0x128 build/stm32f4xx_hal_can.o
 .debug_ranges  0x0000000000000328       0x78 build/stm32f4xx_hal_rcc.o
 .debug_ranges  0x00000000000003a0       0x48 build/stm32f4xx_hal_gpio.o
 .debug_ranges  0x00000000000003e8       0x80 build/stm32f4xx_hal_dma.o
 .debug_ranges  0x0000000000000468       0x50 build/stm32f4xx_hal_pwr_ex.o
 .debug_ranges  0x00000000000004b8      0x108 build/stm32f4xx_hal_cortex.o
 .debug_ranges  0x00000000000005c0       0xe0 build/stm32f4xx_hal.o
 .debug_ranges  0x00000000000006a0      0x258 build/stm32f4xx_hal_i2c.o
 .debug_ranges  0x00000000000008f8       0x18 build/stm32f4xx_hal_i2c_ex.o
 .debug_ranges  0x0000000000000910      0x1b8 build/stm32f4xx_hal_spi.o
 .debug_ranges  0x0000000000000ac8      0x358 build/stm32f4xx_hal_tim.o
 .debug_ranges  0x0000000000000e20      0x130 build/stm32f4xx_hal_tim_ex.o
 .debug_ranges  0x0000000000000f50      0x1c0 build/stm32f4xx_hal_uart.o
 .debug_ranges  0x0000000000001110       0x18 build/system_stm32f4xx.o
 .debug_ranges  0x0000000000001128       0x30 build/list.o
 .debug_ranges  0x0000000000001158       0xd0 build/queue.o
 .debug_ranges  0x0000000000001228      0x190 build/tasks.o
 .debug_ranges  0x00000000000013b8      0x1c8 build/cmsis_os.o
 .debug_ranges  0x0000000000001580       0x40 build/heap_4.o
 .debug_ranges  0x00000000000015c0       0x70 build/port.o
 .debug_ranges  0x0000000000001630      0x578 build/ugui.o
 .debug_ranges  0x0000000000001ba8       0xa0 build/ili9341.o
 .debug_ranges  0x0000000000001c48       0x48 build/commutator_gui.o
 .debug_ranges  0x0000000000001c90       0x10 build/CRC.o
 .debug_ranges  0x0000000000001ca0       0x30 build/soft_timer.o
 .debug_ranges  0x0000000000001cd0       0x18 build/circular_buffer.o
 .debug_ranges  0x0000000000001ce8       0x88 build/modbus.o
 .debug_ranges  0x0000000000001d70       0xe0 build/modbus_proxy.o
 .debug_ranges  0x0000000000001e50       0x20 build/modbus_port.o
 .debug_ranges  0x0000000000001e70       0x18 build/can_proxy.o
 .debug_ranges  0x0000000000001e88       0x60 build/can_port.o
 .debug_ranges  0x0000000000001ee8       0x40 build/dma_usart_idle.o
 .debug_ranges  0x0000000000001f28       0x50 build/errors.o
 .debug_ranges  0x0000000000001f78       0x20 build/uptime.o
 .debug_ranges  0x0000000000001f98       0x38 build/device.o
 .debug_ranges  0x0000000000001fd0       0x20 build/startup_stm32f429xx.o

.debug_macro    0x0000000000000000    0x2b0ff
 .debug_macro   0x0000000000000000      0x4f8 build/main.o
 .debug_macro   0x00000000000004f8      0xaa8 build/main.o
 .debug_macro   0x0000000000000fa0      0x198 build/main.o
 .debug_macro   0x0000000000001138       0x32 build/main.o
 .debug_macro   0x000000000000116a       0x28 build/main.o
 .debug_macro   0x0000000000001192       0x22 build/main.o
 .debug_macro   0x00000000000011b4       0x8e build/main.o
 .debug_macro   0x0000000000001242       0x51 build/main.o
 .debug_macro   0x0000000000001293      0x103 build/main.o
 .debug_macro   0x0000000000001396       0x6a build/main.o
 .debug_macro   0x0000000000001400      0x1df build/main.o
 .debug_macro   0x00000000000015df       0x35 build/main.o
 .debug_macro   0x0000000000001614       0x50 build/main.o
 .debug_macro   0x0000000000001664      0xe66 build/main.o
 .debug_macro   0x00000000000024ca    0x17e1c build/main.o
 .debug_macro   0x000000000001a2e6       0x43 build/main.o
 .debug_macro   0x000000000001a329     0x35a5 build/main.o
 .debug_macro   0x000000000001d8ce       0x64 build/main.o
 .debug_macro   0x000000000001d932       0x18 build/main.o
 .debug_macro   0x000000000001d94a       0x35 build/main.o
 .debug_macro   0x000000000001d97f       0x34 build/main.o
 .debug_macro   0x000000000001d9b3       0x16 build/main.o
 .debug_macro   0x000000000001d9c9       0x97 build/main.o
 .debug_macro   0x000000000001da60      0x339 build/main.o
 .debug_macro   0x000000000001dd99       0xfd build/main.o
 .debug_macro   0x000000000001de96       0x10 build/main.o
 .debug_macro   0x000000000001dea6       0x16 build/main.o
 .debug_macro   0x000000000001debc       0x43 build/main.o
 .debug_macro   0x000000000001deff       0x34 build/main.o
 .debug_macro   0x000000000001df33       0x10 build/main.o
 .debug_macro   0x000000000001df43       0x58 build/main.o
 .debug_macro   0x000000000001df9b      0x182 build/main.o
 .debug_macro   0x000000000001e11d       0x10 build/main.o
 .debug_macro   0x000000000001e12d       0x1c build/main.o
 .debug_macro   0x000000000001e149       0x52 build/main.o
 .debug_macro   0x000000000001e19b       0x22 build/main.o
 .debug_macro   0x000000000001e1bd       0x10 build/main.o
 .debug_macro   0x000000000001e1cd       0x40 build/main.o
 .debug_macro   0x000000000001e20d       0xd5 build/main.o
 .debug_macro   0x000000000001e2e2       0x1c build/main.o
 .debug_macro   0x000000000001e2fe       0x3d build/main.o
 .debug_macro   0x000000000001e33b       0x16 build/main.o
 .debug_macro   0x000000000001e351      0x16f build/main.o
 .debug_macro   0x000000000001e4c0       0x57 build/main.o
 .debug_macro   0x000000000001e517      0xca5 build/main.o
 .debug_macro   0x000000000001f1bc      0xa02 build/main.o
 .debug_macro   0x000000000001fbbe      0x11e build/main.o
 .debug_macro   0x000000000001fcdc      0x15f build/main.o
 .debug_macro   0x000000000001fe3b       0x27 build/main.o
 .debug_macro   0x000000000001fe62      0x287 build/main.o
 .debug_macro   0x00000000000200e9       0x5f build/main.o
 .debug_macro   0x0000000000020148      0x23a build/main.o
 .debug_macro   0x0000000000020382      0x3f3 build/main.o
 .debug_macro   0x0000000000020775      0x13a build/main.o
 .debug_macro   0x00000000000208af      0x41d build/main.o
 .debug_macro   0x0000000000020ccc       0x2e build/main.o
 .debug_macro   0x0000000000020cfa      0x1a7 build/main.o
 .debug_macro   0x0000000000020ea1       0x22 build/main.o
 .debug_macro   0x0000000000020ec3       0xa5 build/main.o
 .debug_macro   0x0000000000020f68      0x11e build/main.o
 .debug_macro   0x0000000000021086       0xe2 build/main.o
 .debug_macro   0x0000000000021168       0x89 build/main.o
 .debug_macro   0x00000000000211f1      0x202 build/main.o
 .debug_macro   0x00000000000213f3      0x6e0 build/main.o
 .debug_macro   0x0000000000021ad3       0x59 build/main.o
 .debug_macro   0x0000000000021b2c      0x14d build/main.o
 .debug_macro   0x0000000000021c79      0x287 build/main.o
 .debug_macro   0x0000000000021f00      0x13b build/main.o
 .debug_macro   0x000000000002203b       0x10 build/main.o
 .debug_macro   0x000000000002204b      0x10a build/main.o
 .debug_macro   0x0000000000022155      0x168 build/main.o
 .debug_macro   0x00000000000222bd       0xe4 build/main.o
 .debug_macro   0x00000000000223a1       0x10 build/main.o
 .debug_macro   0x00000000000223b1       0x26 build/main.o
 .debug_macro   0x00000000000223d7      0x3fa build/main.o
 .debug_macro   0x00000000000227d1       0xc0 build/main.o
 .debug_macro   0x0000000000022891       0x8c build/main.o
 .debug_macro   0x000000000002291d       0x91 build/main.o
 .debug_macro   0x00000000000229ae       0x94 build/main.o
 .debug_macro   0x0000000000022a42       0x63 build/main.o
 .debug_macro   0x0000000000022aa5       0x19 build/main.o
 .debug_macro   0x0000000000022abe       0xcf build/main.o
 .debug_macro   0x0000000000022b8d       0x22 build/main.o
 .debug_macro   0x0000000000022baf       0x94 build/main.o
 .debug_macro   0x0000000000022c43       0x1c build/main.o
 .debug_macro   0x0000000000022c5f      0x938 build/main.o
 .debug_macro   0x0000000000023597       0x16 build/main.o
 .debug_macro   0x00000000000235ad       0x16 build/main.o
 .debug_macro   0x00000000000235c3       0x35 build/main.o
 .debug_macro   0x00000000000235f8       0x10 build/main.o
 .debug_macro   0x0000000000023608       0x10 build/main.o
 .debug_macro   0x0000000000023618       0x10 build/main.o
 .debug_macro   0x0000000000023628       0x52 build/main.o
 .debug_macro   0x000000000002367a       0x10 build/main.o
 .debug_macro   0x000000000002368a       0x16 build/main.o
 .debug_macro   0x00000000000236a0       0x10 build/main.o
 .debug_macro   0x00000000000236b0      0x428 build/stm32f4xx_it.o
 .debug_macro   0x0000000000023ad8      0x34d build/stm32f4xx_hal_msp.o
 .debug_macro   0x0000000000023e25      0x33e build/stm32f4xx_hal_timebase_tim.o
 .debug_macro   0x0000000000024163      0x346 build/stm32f4xx_hal_can.o
 .debug_macro   0x00000000000244a9      0x362 build/stm32f4xx_hal_rcc.o
 .debug_macro   0x000000000002480b      0x376 build/stm32f4xx_hal_gpio.o
 .debug_macro   0x0000000000024b81      0x345 build/stm32f4xx_hal_dma.o
 .debug_macro   0x0000000000024ec6      0x356 build/stm32f4xx_hal_pwr_ex.o
 .debug_macro   0x000000000002521c      0x33e build/stm32f4xx_hal_cortex.o
 .debug_macro   0x000000000002555a      0x39e build/stm32f4xx_hal.o
 .debug_macro   0x00000000000258f8      0x37e build/stm32f4xx_hal_i2c.o
 .debug_macro   0x0000000000025c76      0x33e build/stm32f4xx_hal_i2c_ex.o
 .debug_macro   0x0000000000025fb4      0x346 build/stm32f4xx_hal_spi.o
 .debug_macro   0x00000000000262fa      0x33e build/stm32f4xx_hal_tim.o
 .debug_macro   0x0000000000026638      0x33e build/stm32f4xx_hal_tim_ex.o
 .debug_macro   0x0000000000026976      0x33f build/stm32f4xx_hal_uart.o
 .debug_macro   0x0000000000026cb5      0x344 build/system_stm32f4xx.o
 .debug_macro   0x0000000000026ff9      0x179 build/list.o
 .debug_macro   0x0000000000027172      0x1ff build/queue.o
 .debug_macro   0x0000000000027371      0x262 build/tasks.o
 .debug_macro   0x00000000000275d3       0x10 build/tasks.o
 .debug_macro   0x00000000000275e3      0x1eb build/cmsis_os.o
 .debug_macro   0x00000000000277ce       0x10 build/cmsis_os.o
 .debug_macro   0x00000000000277de       0x26 build/cmsis_os.o
 .debug_macro   0x0000000000027804      0x1a0 build/heap_4.o
 .debug_macro   0x00000000000279a4      0x19e build/port.o
 .debug_macro   0x0000000000027b42      0x366 build/ugui.o
 .debug_macro   0x0000000000027ea8       0x16 build/ugui.o
 .debug_macro   0x0000000000027ebe      0x360 build/ili9341.o
 .debug_macro   0x000000000002821e      0x388 build/commutator_gui.o
 .debug_macro   0x00000000000285a6      0x351 build/CRC.o
 .debug_macro   0x00000000000288f7       0x7c build/soft_timer.o
 .debug_macro   0x0000000000028973      0x12c build/circular_buffer.o
 .debug_macro   0x0000000000028a9f      0x495 build/modbus.o
 .debug_macro   0x0000000000028f34       0x16 build/modbus.o
 .debug_macro   0x0000000000028f4a       0x10 build/modbus.o
 .debug_macro   0x0000000000028f5a      0x49e build/modbus_proxy.o
 .debug_macro   0x00000000000293f8       0x4c build/modbus_proxy.o
 .debug_macro   0x0000000000029444       0x16 build/modbus_proxy.o
 .debug_macro   0x000000000002945a      0x480 build/modbus_port.o
 .debug_macro   0x00000000000298da       0x1c build/modbus_port.o
 .debug_macro   0x00000000000298f6      0x41d build/can_proxy.o
 .debug_macro   0x0000000000029d13      0x40a build/can_port.o
 .debug_macro   0x000000000002a11d      0x480 build/dma_usart_idle.o
 .debug_macro   0x000000000002a59d      0x398 build/errors.o
 .debug_macro   0x000000000002a935       0x10 build/errors.o
 .debug_macro   0x000000000002a945      0x34c build/uptime.o
 .debug_macro   0x000000000002ac91      0x46e build/device.o

.debug_line     0x0000000000000000    0x22474
 .debug_line    0x0000000000000000      0xe9c build/main.o
 .debug_line    0x0000000000000e9c      0xa36 build/stm32f4xx_it.o
 .debug_line    0x00000000000018d2      0x9a1 build/stm32f4xx_hal_msp.o
 .debug_line    0x0000000000002273      0x6a6 build/stm32f4xx_hal_timebase_tim.o
 .debug_line    0x0000000000002919     0x10fb build/stm32f4xx_hal_can.o
 .debug_line    0x0000000000003a14      0xc4d build/stm32f4xx_hal_rcc.o
 .debug_line    0x0000000000004661      0xaca build/stm32f4xx_hal_gpio.o
 .debug_line    0x000000000000512b      0xe97 build/stm32f4xx_hal_dma.o
 .debug_line    0x0000000000005fc2      0x877 build/stm32f4xx_hal_pwr_ex.o
 .debug_line    0x0000000000006839      0xbc6 build/stm32f4xx_hal_cortex.o
 .debug_line    0x00000000000073ff      0x94a build/stm32f4xx_hal.o
 .debug_line    0x0000000000007d49     0x33cd build/stm32f4xx_hal_i2c.o
 .debug_line    0x000000000000b116      0x6c5 build/stm32f4xx_hal_i2c_ex.o
 .debug_line    0x000000000000b7db     0x1a47 build/stm32f4xx_hal_spi.o
 .debug_line    0x000000000000d222     0x26d1 build/stm32f4xx_hal_tim.o
 .debug_line    0x000000000000f8f3     0x106d build/stm32f4xx_hal_tim_ex.o
 .debug_line    0x0000000000010960     0x16e6 build/stm32f4xx_hal_uart.o
 .debug_line    0x0000000000012046      0x6e8 build/system_stm32f4xx.o
 .debug_line    0x000000000001272e      0x471 build/list.o
 .debug_line    0x0000000000012b9f      0xe7c build/queue.o
 .debug_line    0x0000000000013a1b     0x1527 build/tasks.o
 .debug_line    0x0000000000014f42      0xed8 build/cmsis_os.o
 .debug_line    0x0000000000015e1a      0x631 build/heap_4.o
 .debug_line    0x000000000001644b      0x5a1 build/port.o
 .debug_line    0x00000000000169ec     0x43f4 build/ugui.o
 .debug_line    0x000000000001ade0      0xaea build/ili9341.o
 .debug_line    0x000000000001b8ca      0x863 build/commutator_gui.o
 .debug_line    0x000000000001c12d      0x665 build/CRC.o
 .debug_line    0x000000000001c792      0x340 build/soft_timer.o
 .debug_line    0x000000000001cad2      0x337 build/circular_buffer.o
 .debug_line    0x000000000001ce09      0xbcf build/modbus.o
 .debug_line    0x000000000001d9d8      0xdee build/modbus_proxy.o
 .debug_line    0x000000000001e7c6      0x8f6 build/modbus_port.o
 .debug_line    0x000000000001f0bc      0x800 build/can_proxy.o
 .debug_line    0x000000000001f8bc      0x93a build/can_port.o
 .debug_line    0x00000000000201f6      0xa0f build/dma_usart_idle.o
 .debug_line    0x0000000000020c05      0x7bd build/errors.o
 .debug_line    0x00000000000213c2      0x6d3 build/uptime.o
 .debug_line    0x0000000000021a95      0x96b build/device.o
 .debug_line    0x0000000000022400       0x74 build/startup_stm32f429xx.o

.debug_str      0x0000000000000000    0xe5043
 .debug_str     0x0000000000000000    0xdc630 build/main.o
                                      0xdcb7d (size before relaxing)
 .debug_str     0x00000000000dc630      0x21d build/stm32f4xx_it.o
                                      0xd93ca (size before relaxing)
 .debug_str     0x00000000000dc84d       0xd1 build/stm32f4xx_hal_msp.o
                                      0xd475a (size before relaxing)
 .debug_str     0x00000000000dc91e       0x9c build/stm32f4xx_hal_timebase_tim.o
                                      0xd404a (size before relaxing)
 .debug_str     0x00000000000dc9ba      0x43d build/stm32f4xx_hal_can.o
                                      0xd3d71 (size before relaxing)
 .debug_str     0x00000000000dcdf7      0x275 build/stm32f4xx_hal_rcc.o
                                      0xd3a69 (size before relaxing)
 .debug_str     0x00000000000dd06c      0x209 build/stm32f4xx_hal_gpio.o
                                      0xd38c6 (size before relaxing)
 .debug_str     0x00000000000dd275      0x30d build/stm32f4xx_hal_dma.o
                                      0xd3a89 (size before relaxing)
 .debug_str     0x00000000000dd582      0x192 build/stm32f4xx_hal_pwr_ex.o
                                      0xd3876 (size before relaxing)
 .debug_str     0x00000000000dd714      0x395 build/stm32f4xx_hal_cortex.o
                                      0xd3f84 (size before relaxing)
 .debug_str     0x00000000000ddaa9      0x58d build/stm32f4xx_hal.o
                                      0xd424b (size before relaxing)
 .debug_str     0x00000000000de036      0xa28 build/stm32f4xx_hal_i2c.o
                                      0xd446a (size before relaxing)
 .debug_str     0x00000000000dea5e       0x38 build/stm32f4xx_hal_i2c_ex.o
                                      0xd3a6d (size before relaxing)
 .debug_str     0x00000000000dea96      0x4c6 build/stm32f4xx_hal_spi.o
                                      0xd3e5d (size before relaxing)
 .debug_str     0x00000000000def5c      0xcad build/stm32f4xx_hal_tim.o
                                      0xd4666 (size before relaxing)
 .debug_str     0x00000000000dfc09      0x527 build/stm32f4xx_hal_tim_ex.o
                                      0xd3f21 (size before relaxing)
 .debug_str     0x00000000000e0130      0x4ff build/stm32f4xx_hal_uart.o
                                      0xd3e92 (size before relaxing)
 .debug_str     0x00000000000e062f       0x57 build/system_stm32f4xx.o
                                      0xd3682 (size before relaxing)
 .debug_str     0x00000000000e0686      0x243 build/list.o
                                       0x9dce (size before relaxing)
 .debug_str     0x00000000000e08c9      0x744 build/queue.o
                                       0xb2b8 (size before relaxing)
 .debug_str     0x00000000000e100d     0x1216 build/tasks.o
                                       0xbe77 (size before relaxing)
 .debug_str     0x00000000000e2223      0x682 build/cmsis_os.o
                                       0xc8b5 (size before relaxing)
 .debug_str     0x00000000000e28a5      0x257 build/heap_4.o
                                       0xa4ef (size before relaxing)
 .debug_str     0x00000000000e2afc      0x7f9 build/port.o
                                       0x7e40 (size before relaxing)
 .debug_str     0x00000000000e32f5     0x1036 build/ugui.o
                                      0xd6243 (size before relaxing)
 .debug_str     0x00000000000e432b      0x16d build/ili9341.o
                                      0xd3f35 (size before relaxing)
 .debug_str     0x00000000000e4498      0x15f build/commutator_gui.o
                                      0xd5c0e (size before relaxing)
 .debug_str     0x00000000000e45f7       0x33 build/CRC.o
                                      0xd3558 (size before relaxing)
 .debug_str     0x00000000000e462a       0x8f build/soft_timer.o
                                       0x3dde (size before relaxing)
 .debug_str     0x00000000000e46b9       0x3a build/circular_buffer.o
                                       0x6d6a (size before relaxing)
 .debug_str     0x00000000000e46f3      0x1f0 build/modbus.o
                                      0xd9a5e (size before relaxing)
 .debug_str     0x00000000000e48e3      0x346 build/modbus_proxy.o
                                      0xd9c89 (size before relaxing)
 .debug_str     0x00000000000e4c29       0x3d build/modbus_port.o
                                      0xd9881 (size before relaxing)
 .debug_str     0x00000000000e4c66       0x51 build/can_proxy.o
                                      0xd8d3f (size before relaxing)
 .debug_str     0x00000000000e4cb7      0x106 build/can_port.o
                                      0xd8dc9 (size before relaxing)
 .debug_str     0x00000000000e4dbd       0x9a build/dma_usart_idle.o
                                      0xd982c (size before relaxing)
 .debug_str     0x00000000000e4e57       0xec build/errors.o
                                      0xd36e4 (size before relaxing)
 .debug_str     0x00000000000e4f43       0x6c build/uptime.o
                                      0xd353d (size before relaxing)
 .debug_str     0x00000000000e4faf       0x70 build/device.o
                                      0xd8ca0 (size before relaxing)
 .debug_str     0x00000000000e501f       0x24 build/startup_stm32f429xx.o
                                         0x46 (size before relaxing)

.comment        0x0000000000000000       0x4c
 .comment       0x0000000000000000       0x4c build/main.o
                                         0x4d (size before relaxing)
 .comment       0x000000000000004c       0x4d build/stm32f4xx_it.o
 .comment       0x000000000000004c       0x4d build/stm32f4xx_hal_msp.o
 .comment       0x000000000000004c       0x4d build/stm32f4xx_hal_timebase_tim.o
 .comment       0x000000000000004c       0x4d build/stm32f4xx_hal_can.o
 .comment       0x000000000000004c       0x4d build/stm32f4xx_hal_rcc.o
 .comment       0x000000000000004c       0x4d build/stm32f4xx_hal_gpio.o
 .comment       0x000000000000004c       0x4d build/stm32f4xx_hal_dma.o
 .comment       0x000000000000004c       0x4d build/stm32f4xx_hal_pwr_ex.o
 .comment       0x000000000000004c       0x4d build/stm32f4xx_hal_cortex.o
 .comment       0x000000000000004c       0x4d build/stm32f4xx_hal.o
 .comment       0x000000000000004c       0x4d build/stm32f4xx_hal_i2c.o
 .comment       0x000000000000004c       0x4d build/stm32f4xx_hal_i2c_ex.o
 .comment       0x000000000000004c       0x4d build/stm32f4xx_hal_spi.o
 .comment       0x000000000000004c       0x4d build/stm32f4xx_hal_tim.o
 .comment       0x000000000000004c       0x4d build/stm32f4xx_hal_tim_ex.o
 .comment       0x000000000000004c       0x4d build/stm32f4xx_hal_uart.o
 .comment       0x000000000000004c       0x4d build/system_stm32f4xx.o
 .comment       0x000000000000004c       0x4d build/list.o
 .comment       0x000000000000004c       0x4d build/queue.o
 .comment       0x000000000000004c       0x4d build/tasks.o
 .comment       0x000000000000004c       0x4d build/cmsis_os.o
 .comment       0x000000000000004c       0x4d build/heap_4.o
 .comment       0x000000000000004c       0x4d build/port.o
 .comment       0x000000000000004c       0x4d build/ugui.o
 .comment       0x000000000000004c       0x4d build/ili9341.o
 .comment       0x000000000000004c       0x4d build/commutator_gui.o
 .comment       0x000000000000004c       0x4d build/CRC.o
 .comment       0x000000000000004c       0x4d build/soft_timer.o
 .comment       0x000000000000004c       0x4d build/circular_buffer.o
 .comment       0x000000000000004c       0x4d build/modbus.o
 .comment       0x000000000000004c       0x4d build/modbus_proxy.o
 .comment       0x000000000000004c       0x4d build/modbus_port.o
 .comment       0x000000000000004c       0x4d build/can_proxy.o
 .comment       0x000000000000004c       0x4d build/can_port.o
 .comment       0x000000000000004c       0x4d build/dma_usart_idle.o
 .comment       0x000000000000004c       0x4d build/errors.o
 .comment       0x000000000000004c       0x4d build/uptime.o
 .comment       0x000000000000004c       0x4d build/device.o

.debug_frame    0x0000000000000000     0x975c
 .debug_frame   0x0000000000000000      0x2f8 build/main.o
 .debug_frame   0x00000000000002f8      0x2c4 build/stm32f4xx_it.o
 .debug_frame   0x00000000000005bc      0x158 build/stm32f4xx_hal_msp.o
 .debug_frame   0x0000000000000714       0x74 build/stm32f4xx_hal_timebase_tim.o
 .debug_frame   0x0000000000000788      0x5a0 build/stm32f4xx_hal_can.o
 .debug_frame   0x0000000000000d28      0x1f0 build/stm32f4xx_hal_rcc.o
 .debug_frame   0x0000000000000f18      0x14c build/stm32f4xx_hal_gpio.o
 .debug_frame   0x0000000000001064      0x250 build/stm32f4xx_hal_dma.o
 .debug_frame   0x00000000000012b4      0x14c build/stm32f4xx_hal_pwr_ex.o
 .debug_frame   0x0000000000001400      0x498 build/stm32f4xx_hal_cortex.o
 .debug_frame   0x0000000000001898      0x37c build/stm32f4xx_hal.o
 .debug_frame   0x0000000000001c14      0xb30 build/stm32f4xx_hal_i2c.o
 .debug_frame   0x0000000000002744       0x60 build/stm32f4xx_hal_i2c_ex.o
 .debug_frame   0x00000000000027a4      0x7fc build/stm32f4xx_hal_spi.o
 .debug_frame   0x0000000000002fa0      0xfb4 build/stm32f4xx_hal_tim.o
 .debug_frame   0x0000000000003f54      0x574 build/stm32f4xx_hal_tim_ex.o
 .debug_frame   0x00000000000044c8      0x83c build/stm32f4xx_hal_uart.o
 .debug_frame   0x0000000000004d04       0x58 build/system_stm32f4xx.o
 .debug_frame   0x0000000000004d5c       0xd8 build/list.o
 .debug_frame   0x0000000000004e34      0x3b0 build/queue.o
 .debug_frame   0x00000000000051e4      0x704 build/tasks.o
 .debug_frame   0x00000000000058e8      0x808 build/cmsis_os.o
 .debug_frame   0x00000000000060f0      0x108 build/heap_4.o
 .debug_frame   0x00000000000061f8      0x19c build/port.o
 .debug_frame   0x0000000000006394     0x19cc build/ugui.o
 .debug_frame   0x0000000000007d60      0x268 build/ili9341.o
 .debug_frame   0x0000000000007fc8      0x130 build/commutator_gui.o
 .debug_frame   0x00000000000080f8       0x38 build/CRC.o
 .debug_frame   0x0000000000008130       0xd4 build/soft_timer.o
 .debug_frame   0x0000000000008204       0x58 build/circular_buffer.o
 .debug_frame   0x000000000000825c      0x178 build/modbus.o
 .debug_frame   0x00000000000083d4      0x3d8 build/modbus_proxy.o
 .debug_frame   0x00000000000087ac       0x7c build/modbus_port.o
 .debug_frame   0x0000000000008828       0x5c build/can_proxy.o
 .debug_frame   0x0000000000008884      0x1bc build/can_port.o
 .debug_frame   0x0000000000008a40      0x114 build/dma_usart_idle.o
 .debug_frame   0x0000000000008b54      0x144 build/errors.o
 .debug_frame   0x0000000000008c98       0x7c build/uptime.o
 .debug_frame   0x0000000000008d14       0xf4 build/device.o
 .debug_frame   0x0000000000008e08       0x2c /opt/gcc-arm-none-eabi-9-2020-q2-update/bin/../lib/gcc/arm-none-eabi/9.3.1/../../../../arm-none-eabi/lib/thumb/v7e-m+fp/hard/libc_nano.a(lib_a-init.o)
 .debug_frame   0x0000000000008e34       0x28 /opt/gcc-arm-none-eabi-9-2020-q2-update/bin/../lib/gcc/arm-none-eabi/9.3.1/../../../../arm-none-eabi/lib/thumb/v7e-m+fp/hard/libc_nano.a(lib_a-memcpy-stub.o)
 .debug_frame   0x0000000000008e5c       0x20 /opt/gcc-arm-none-eabi-9-2020-q2-update/bin/../lib/gcc/arm-none-eabi/9.3.1/../../../../arm-none-eabi/lib/thumb/v7e-m+fp/hard/libc_nano.a(lib_a-memset.o)
 .debug_frame   0x0000000000008e7c       0x74 /opt/gcc-arm-none-eabi-9-2020-q2-update/bin/../lib/gcc/arm-none-eabi/9.3.1/../../../../arm-none-eabi/lib/thumb/v7e-m+fp/hard/libc_nano.a(lib_a-printf.o)
 .debug_frame   0x0000000000008ef0      0x14c /opt/gcc-arm-none-eabi-9-2020-q2-update/bin/../lib/gcc/arm-none-eabi/9.3.1/../../../../arm-none-eabi/lib/thumb/v7e-m+fp/hard/libc_nano.a(lib_a-findfp.o)
 .debug_frame   0x000000000000903c       0x54 /opt/gcc-arm-none-eabi-9-2020-q2-update/bin/../lib/gcc/arm-none-eabi/9.3.1/../../../../arm-none-eabi/lib/thumb/v7e-m+fp/hard/libc_nano.a(lib_a-fwalk.o)
 .debug_frame   0x0000000000009090       0xb0 /opt/gcc-arm-none-eabi-9-2020-q2-update/bin/../lib/gcc/arm-none-eabi/9.3.1/../../../../arm-none-eabi/lib/thumb/v7e-m+fp/hard/libc_nano.a(lib_a-lock.o)
 .debug_frame   0x0000000000009140       0x30 /opt/gcc-arm-none-eabi-9-2020-q2-update/bin/../lib/gcc/arm-none-eabi/9.3.1/../../../../arm-none-eabi/lib/thumb/v7e-m+fp/hard/libc_nano.a(lib_a-nano-mallocr.o)
 .debug_frame   0x0000000000009170       0xac /opt/gcc-arm-none-eabi-9-2020-q2-update/bin/../lib/gcc/arm-none-eabi/9.3.1/../../../../arm-none-eabi/lib/thumb/v7e-m+fp/hard/libc_nano.a(lib_a-nano-vfprintf.o)
 .debug_frame   0x000000000000921c       0x60 /opt/gcc-arm-none-eabi-9-2020-q2-update/bin/../lib/gcc/arm-none-eabi/9.3.1/../../../../arm-none-eabi/lib/thumb/v7e-m+fp/hard/libc_nano.a(lib_a-nano-vfprintf_i.o)
 .debug_frame   0x000000000000927c       0x2c /opt/gcc-arm-none-eabi-9-2020-q2-update/bin/../lib/gcc/arm-none-eabi/9.3.1/../../../../arm-none-eabi/lib/thumb/v7e-m+fp/hard/libc_nano.a(lib_a-sbrkr.o)
 .debug_frame   0x00000000000092a8       0x88 /opt/gcc-arm-none-eabi-9-2020-q2-update/bin/../lib/gcc/arm-none-eabi/9.3.1/../../../../arm-none-eabi/lib/thumb/v7e-m+fp/hard/libc_nano.a(lib_a-stdio.o)
 .debug_frame   0x0000000000009330       0x40 /opt/gcc-arm-none-eabi-9-2020-q2-update/bin/../lib/gcc/arm-none-eabi/9.3.1/../../../../arm-none-eabi/lib/thumb/v7e-m+fp/hard/libc_nano.a(lib_a-wbuf.o)
 .debug_frame   0x0000000000009370       0x2c /opt/gcc-arm-none-eabi-9-2020-q2-update/bin/../lib/gcc/arm-none-eabi/9.3.1/../../../../arm-none-eabi/lib/thumb/v7e-m+fp/hard/libc_nano.a(lib_a-writer.o)
 .debug_frame   0x000000000000939c       0x2c /opt/gcc-arm-none-eabi-9-2020-q2-update/bin/../lib/gcc/arm-none-eabi/9.3.1/../../../../arm-none-eabi/lib/thumb/v7e-m+fp/hard/libc_nano.a(lib_a-wsetup.o)
 .debug_frame   0x00000000000093c8       0x2c /opt/gcc-arm-none-eabi-9-2020-q2-update/bin/../lib/gcc/arm-none-eabi/9.3.1/../../../../arm-none-eabi/lib/thumb/v7e-m+fp/hard/libc_nano.a(lib_a-closer.o)
 .debug_frame   0x00000000000093f4       0x5c /opt/gcc-arm-none-eabi-9-2020-q2-update/bin/../lib/gcc/arm-none-eabi/9.3.1/../../../../arm-none-eabi/lib/thumb/v7e-m+fp/hard/libc_nano.a(lib_a-fflush.o)
 .debug_frame   0x0000000000009450       0x2c /opt/gcc-arm-none-eabi-9-2020-q2-update/bin/../lib/gcc/arm-none-eabi/9.3.1/../../../../arm-none-eabi/lib/thumb/v7e-m+fp/hard/libc_nano.a(lib_a-lseekr.o)
 .debug_frame   0x000000000000947c       0x58 /opt/gcc-arm-none-eabi-9-2020-q2-update/bin/../lib/gcc/arm-none-eabi/9.3.1/../../../../arm-none-eabi/lib/thumb/v7e-m+fp/hard/libc_nano.a(lib_a-makebuf.o)
 .debug_frame   0x00000000000094d4       0x30 /opt/gcc-arm-none-eabi-9-2020-q2-update/bin/../lib/gcc/arm-none-eabi/9.3.1/../../../../arm-none-eabi/lib/thumb/v7e-m+fp/hard/libc_nano.a(lib_a-mlock.o)
 .debug_frame   0x0000000000009504       0x38 /opt/gcc-arm-none-eabi-9-2020-q2-update/bin/../lib/gcc/arm-none-eabi/9.3.1/../../../../arm-none-eabi/lib/thumb/v7e-m+fp/hard/libc_nano.a(lib_a-nano-freer.o)
 .debug_frame   0x000000000000953c       0x2c /opt/gcc-arm-none-eabi-9-2020-q2-update/bin/../lib/gcc/arm-none-eabi/9.3.1/../../../../arm-none-eabi/lib/thumb/v7e-m+fp/hard/libc_nano.a(lib_a-readr.o)
 .debug_frame   0x0000000000009568       0x5c /opt/gcc-arm-none-eabi-9-2020-q2-update/bin/../lib/gcc/arm-none-eabi/9.3.1/../../../../arm-none-eabi/lib/thumb/v7e-m+fp/hard/libc_nano.a(lib_a-reent.o)
 .debug_frame   0x00000000000095c4       0x2c /opt/gcc-arm-none-eabi-9-2020-q2-update/bin/../lib/gcc/arm-none-eabi/9.3.1/../../../../arm-none-eabi/lib/thumb/v7e-m+fp/hard/libc_nano.a(lib_a-fstatr.o)
 .debug_frame   0x00000000000095f0       0x2c /opt/gcc-arm-none-eabi-9-2020-q2-update/bin/../lib/gcc/arm-none-eabi/9.3.1/../../../../arm-none-eabi/lib/thumb/v7e-m+fp/hard/libc_nano.a(lib_a-isattyr.o)
 .debug_frame   0x000000000000961c       0x20 /opt/gcc-arm-none-eabi-9-2020-q2-update/bin/../lib/gcc/arm-none-eabi/9.3.1/../../../../arm-none-eabi/lib/thumb/v7e-m+fp/hard/libnosys.a(close.o)
 .debug_frame   0x000000000000963c       0x20 /opt/gcc-arm-none-eabi-9-2020-q2-update/bin/../lib/gcc/arm-none-eabi/9.3.1/../../../../arm-none-eabi/lib/thumb/v7e-m+fp/hard/libnosys.a(fstat.o)
 .debug_frame   0x000000000000965c       0x20 /opt/gcc-arm-none-eabi-9-2020-q2-update/bin/../lib/gcc/arm-none-eabi/9.3.1/../../../../arm-none-eabi/lib/thumb/v7e-m+fp/hard/libnosys.a(isatty.o)
 .debug_frame   0x000000000000967c       0x20 /opt/gcc-arm-none-eabi-9-2020-q2-update/bin/../lib/gcc/arm-none-eabi/9.3.1/../../../../arm-none-eabi/lib/thumb/v7e-m+fp/hard/libnosys.a(lseek.o)
 .debug_frame   0x000000000000969c       0x20 /opt/gcc-arm-none-eabi-9-2020-q2-update/bin/../lib/gcc/arm-none-eabi/9.3.1/../../../../arm-none-eabi/lib/thumb/v7e-m+fp/hard/libnosys.a(read.o)
 .debug_frame   0x00000000000096bc       0x20 /opt/gcc-arm-none-eabi-9-2020-q2-update/bin/../lib/gcc/arm-none-eabi/9.3.1/../../../../arm-none-eabi/lib/thumb/v7e-m+fp/hard/libnosys.a(sbrk.o)
 .debug_frame   0x00000000000096dc       0x20 /opt/gcc-arm-none-eabi-9-2020-q2-update/bin/../lib/gcc/arm-none-eabi/9.3.1/../../../../arm-none-eabi/lib/thumb/v7e-m+fp/hard/libnosys.a(write.o)
 .debug_frame   0x00000000000096fc       0x2c /opt/gcc-arm-none-eabi-9-2020-q2-update/bin/../lib/gcc/arm-none-eabi/9.3.1/thumb/v7e-m+fp/hard/libgcc.a(_aeabi_uldivmod.o)
 .debug_frame   0x0000000000009728       0x34 /opt/gcc-arm-none-eabi-9-2020-q2-update/bin/../lib/gcc/arm-none-eabi/9.3.1/thumb/v7e-m+fp/hard/libgcc.a(_udivmoddi4.o)

.stab           0x0000000000000000       0x9c
 .stab          0x0000000000000000       0x24 /opt/gcc-arm-none-eabi-9-2020-q2-update/bin/../lib/gcc/arm-none-eabi/9.3.1/../../../../arm-none-eabi/lib/thumb/v7e-m+fp/hard/libnosys.a(close.o)
 .stab          0x0000000000000024       0x18 /opt/gcc-arm-none-eabi-9-2020-q2-update/bin/../lib/gcc/arm-none-eabi/9.3.1/../../../../arm-none-eabi/lib/thumb/v7e-m+fp/hard/libnosys.a(fstat.o)
                                         0x24 (size before relaxing)
 .stab          0x000000000000003c       0x18 /opt/gcc-arm-none-eabi-9-2020-q2-update/bin/../lib/gcc/arm-none-eabi/9.3.1/../../../../arm-none-eabi/lib/thumb/v7e-m+fp/hard/libnosys.a(isatty.o)
                                         0x24 (size before relaxing)
 .stab          0x0000000000000054       0x18 /opt/gcc-arm-none-eabi-9-2020-q2-update/bin/../lib/gcc/arm-none-eabi/9.3.1/../../../../arm-none-eabi/lib/thumb/v7e-m+fp/hard/libnosys.a(lseek.o)
                                         0x24 (size before relaxing)
 .stab          0x000000000000006c       0x18 /opt/gcc-arm-none-eabi-9-2020-q2-update/bin/../lib/gcc/arm-none-eabi/9.3.1/../../../../arm-none-eabi/lib/thumb/v7e-m+fp/hard/libnosys.a(read.o)
                                         0x24 (size before relaxing)
 .stab          0x0000000000000084       0x18 /opt/gcc-arm-none-eabi-9-2020-q2-update/bin/../lib/gcc/arm-none-eabi/9.3.1/../../../../arm-none-eabi/lib/thumb/v7e-m+fp/hard/libnosys.a(write.o)
                                         0x24 (size before relaxing)

.stabstr        0x0000000000000000      0x14d
 .stabstr       0x0000000000000000      0x14d /opt/gcc-arm-none-eabi-9-2020-q2-update/bin/../lib/gcc/arm-none-eabi/9.3.1/../../../../arm-none-eabi/lib/thumb/v7e-m+fp/hard/libnosys.a(close.o)

Cross Reference Table

Symbol                                            File
ADC_IRQHandler                                    build/startup_stm32f429xx.o
AHBPrescTable                                     build/system_stm32f4xx.o
                                                  build/stm32f4xx_hal_rcc.o
APBPrescTable                                     build/system_stm32f4xx.o
                                                  build/stm32f4xx_hal_rcc.o
BusFault_Handler                                  build/stm32f4xx_it.o
CAN1_RX0_IRQHandler                               build/stm32f4xx_it.o
CAN1_RX1_IRQHandler                               build/stm32f4xx_it.o
CAN1_SCE_IRQHandler                               build/stm32f4xx_it.o
CAN1_TX_IRQHandler                                build/stm32f4xx_it.o
CAN2_RX0_IRQHandler                               build/stm32f4xx_it.o
CAN2_RX1_IRQHandler                               build/stm32f4xx_it.o
CAN2_SCE_IRQHandler                               build/stm32f4xx_it.o
CAN2_TX_IRQHandler                                build/stm32f4xx_it.o
CRC16                                             build/CRC.o
                                                  build/modbus.o
DCMI_IRQHandler                                   build/startup_stm32f429xx.o
DMA1_Stream0_IRQHandler                           build/startup_stm32f429xx.o
DMA1_Stream1_IRQHandler                           build/stm32f4xx_it.o
DMA1_Stream2_IRQHandler                           build/startup_stm32f429xx.o
DMA1_Stream3_IRQHandler                           build/stm32f4xx_it.o
DMA1_Stream4_IRQHandler                           build/startup_stm32f429xx.o
DMA1_Stream5_IRQHandler                           build/startup_stm32f429xx.o
DMA1_Stream6_IRQHandler                           build/startup_stm32f429xx.o
DMA1_Stream7_IRQHandler                           build/startup_stm32f429xx.o
DMA2D_IRQHandler                                  build/startup_stm32f429xx.o
DMA2_Stream0_IRQHandler                           build/startup_stm32f429xx.o
DMA2_Stream1_IRQHandler                           build/stm32f4xx_it.o
DMA2_Stream2_IRQHandler                           build/stm32f4xx_it.o
DMA2_Stream3_IRQHandler                           build/startup_stm32f429xx.o
DMA2_Stream4_IRQHandler                           build/startup_stm32f429xx.o
DMA2_Stream5_IRQHandler                           build/startup_stm32f429xx.o
DMA2_Stream6_IRQHandler                           build/stm32f4xx_it.o
DMA2_Stream7_IRQHandler                           build/stm32f4xx_it.o
DebugMon_Handler                                  build/stm32f4xx_it.o
Default_Handler                                   build/startup_stm32f429xx.o
ETH_IRQHandler                                    build/startup_stm32f429xx.o
ETH_WKUP_IRQHandler                               build/startup_stm32f429xx.o
EXTI0_IRQHandler                                  build/startup_stm32f429xx.o
EXTI15_10_IRQHandler                              build/startup_stm32f429xx.o
EXTI1_IRQHandler                                  build/startup_stm32f429xx.o
EXTI2_IRQHandler                                  build/startup_stm32f429xx.o
EXTI3_IRQHandler                                  build/startup_stm32f429xx.o
EXTI4_IRQHandler                                  build/startup_stm32f429xx.o
EXTI9_5_IRQHandler                                build/startup_stm32f429xx.o
Error_Handler                                     build/main.o
                                                  build/stm32f4xx_hal_msp.o
FLASH_Erase_Sector                                build/stm32f4xx_hal_flash_ex.o
                                                  build/stm32f4xx_hal_flash.o
FLASH_FlushCaches                                 build/stm32f4xx_hal_flash_ex.o
                                                  build/stm32f4xx_hal_flash.o
FLASH_IRQHandler                                  build/startup_stm32f429xx.o
FLASH_WaitForLastOperation                        build/stm32f4xx_hal_flash.o
                                                  build/stm32f4xx_hal_flash_ex.o
FMC_IRQHandler                                    build/startup_stm32f429xx.o
FONT_8X14_RU                                      build/ugui.o
                                                  build/commutator_gui.o
FPU_IRQHandler                                    build/startup_stm32f429xx.o
HAL_CAN_AbortTxRequest                            build/stm32f4xx_hal_can.o
HAL_CAN_ActivateNotification                      build/stm32f4xx_hal_can.o
                                                  build/main.o
HAL_CAN_AddTxMessage                              build/stm32f4xx_hal_can.o
HAL_CAN_ConfigFilter                              build/stm32f4xx_hal_can.o
                                                  build/main.o
HAL_CAN_DeInit                                    build/stm32f4xx_hal_can.o
HAL_CAN_DeactivateNotification                    build/stm32f4xx_hal_can.o
HAL_CAN_ErrorCallback                             build/stm32f4xx_hal_can.o
HAL_CAN_GetError                                  build/stm32f4xx_hal_can.o
HAL_CAN_GetRxFifoFillLevel                        build/stm32f4xx_hal_can.o
HAL_CAN_GetRxMessage                              build/stm32f4xx_hal_can.o
                                                  build/main.o
HAL_CAN_GetState                                  build/stm32f4xx_hal_can.o
HAL_CAN_GetTxMailboxesFreeLevel                   build/stm32f4xx_hal_can.o
HAL_CAN_GetTxTimestamp                            build/stm32f4xx_hal_can.o
HAL_CAN_IRQHandler                                build/stm32f4xx_hal_can.o
                                                  build/stm32f4xx_it.o
HAL_CAN_Init                                      build/stm32f4xx_hal_can.o
                                                  build/main.o
HAL_CAN_IsSleepActive                             build/stm32f4xx_hal_can.o
HAL_CAN_IsTxMessagePending                        build/stm32f4xx_hal_can.o
HAL_CAN_MspDeInit                                 build/stm32f4xx_hal_msp.o
HAL_CAN_MspInit                                   build/stm32f4xx_hal_msp.o
HAL_CAN_RequestSleep                              build/stm32f4xx_hal_can.o
HAL_CAN_ResetError                                build/stm32f4xx_hal_can.o
HAL_CAN_RxFifo0FullCallback                       build/stm32f4xx_hal_can.o
HAL_CAN_RxFifo0MsgPendingCallback                 build/main.o
HAL_CAN_RxFifo1FullCallback                       build/stm32f4xx_hal_can.o
HAL_CAN_RxFifo1MsgPendingCallback                 build/stm32f4xx_hal_can.o
HAL_CAN_SleepCallback                             build/stm32f4xx_hal_can.o
HAL_CAN_Start                                     build/stm32f4xx_hal_can.o
                                                  build/main.o
HAL_CAN_Stop                                      build/stm32f4xx_hal_can.o
HAL_CAN_TxMailbox0AbortCallback                   build/stm32f4xx_hal_can.o
HAL_CAN_TxMailbox0CompleteCallback                build/stm32f4xx_hal_can.o
HAL_CAN_TxMailbox1AbortCallback                   build/stm32f4xx_hal_can.o
HAL_CAN_TxMailbox1CompleteCallback                build/stm32f4xx_hal_can.o
HAL_CAN_TxMailbox2AbortCallback                   build/stm32f4xx_hal_can.o
HAL_CAN_TxMailbox2CompleteCallback                build/stm32f4xx_hal_can.o
HAL_CAN_WakeUp                                    build/stm32f4xx_hal_can.o
HAL_CAN_WakeUpFromRxMsgCallback                   build/stm32f4xx_hal_can.o
HAL_DBGMCU_DisableDBGSleepMode                    build/stm32f4xx_hal.o
HAL_DBGMCU_DisableDBGStandbyMode                  build/stm32f4xx_hal.o
HAL_DBGMCU_DisableDBGStopMode                     build/stm32f4xx_hal.o
HAL_DBGMCU_EnableDBGSleepMode                     build/stm32f4xx_hal.o
HAL_DBGMCU_EnableDBGStandbyMode                   build/stm32f4xx_hal.o
HAL_DBGMCU_EnableDBGStopMode                      build/stm32f4xx_hal.o
HAL_DMAEx_ChangeMemory                            build/stm32f4xx_hal_dma_ex.o
HAL_DMAEx_MultiBufferStart                        build/stm32f4xx_hal_dma_ex.o
HAL_DMAEx_MultiBufferStart_IT                     build/stm32f4xx_hal_dma_ex.o
HAL_DMA_Abort                                     build/stm32f4xx_hal_dma.o
                                                  build/stm32f4xx_hal_uart.o
                                                  build/stm32f4xx_hal_tim.o
                                                  build/stm32f4xx_hal_spi.o
HAL_DMA_Abort_IT                                  build/stm32f4xx_hal_dma.o
                                                  build/stm32f4xx_hal_uart.o
                                                  build/stm32f4xx_hal_spi.o
                                                  build/stm32f4xx_hal_i2c.o
HAL_DMA_DeInit                                    build/stm32f4xx_hal_dma.o
                                                  build/stm32f4xx_hal_msp.o
HAL_DMA_GetError                                  build/stm32f4xx_hal_dma.o
                                                  build/stm32f4xx_hal_i2c.o
HAL_DMA_GetState                                  build/stm32f4xx_hal_dma.o
HAL_DMA_IRQHandler                                build/stm32f4xx_hal_dma.o
                                                  build/stm32f4xx_it.o
HAL_DMA_Init                                      build/stm32f4xx_hal_dma.o
                                                  build/stm32f4xx_hal_msp.o
HAL_DMA_PollForTransfer                           build/stm32f4xx_hal_dma.o
HAL_DMA_RegisterCallback                          build/stm32f4xx_hal_dma.o
HAL_DMA_Start                                     build/stm32f4xx_hal_dma.o
HAL_DMA_Start_IT                                  build/stm32f4xx_hal_dma.o
                                                  build/stm32f4xx_hal_uart.o
                                                  build/stm32f4xx_hal_tim_ex.o
                                                  build/stm32f4xx_hal_tim.o
                                                  build/stm32f4xx_hal_spi.o
                                                  build/stm32f4xx_hal_i2c.o
HAL_DMA_UnRegisterCallback                        build/stm32f4xx_hal_dma.o
HAL_DeInit                                        build/stm32f4xx_hal.o
HAL_Delay                                         build/stm32f4xx_hal.o
                                                  build/ili9341.o
HAL_DisableCompensationCell                       build/stm32f4xx_hal.o
HAL_DisableMemorySwappingBank                     build/stm32f4xx_hal.o
HAL_EnableCompensationCell                        build/stm32f4xx_hal.o
HAL_EnableMemorySwappingBank                      build/stm32f4xx_hal.o
HAL_FLASHEx_AdvOBGetConfig                        build/stm32f4xx_hal_flash_ex.o
HAL_FLASHEx_AdvOBProgram                          build/stm32f4xx_hal_flash_ex.o
HAL_FLASHEx_Erase                                 build/stm32f4xx_hal_flash_ex.o
HAL_FLASHEx_Erase_IT                              build/stm32f4xx_hal_flash_ex.o
HAL_FLASHEx_OBGetConfig                           build/stm32f4xx_hal_flash_ex.o
HAL_FLASHEx_OBProgram                             build/stm32f4xx_hal_flash_ex.o
HAL_FLASHEx_OB_DeSelectPCROP                      build/stm32f4xx_hal_flash_ex.o
HAL_FLASHEx_OB_GetBank2WRP                        build/stm32f4xx_hal_flash_ex.o
HAL_FLASHEx_OB_SelectPCROP                        build/stm32f4xx_hal_flash_ex.o
HAL_FLASH_EndOfOperationCallback                  build/stm32f4xx_hal_flash.o
HAL_FLASH_GetError                                build/stm32f4xx_hal_flash.o
HAL_FLASH_IRQHandler                              build/stm32f4xx_hal_flash.o
HAL_FLASH_Lock                                    build/stm32f4xx_hal_flash.o
HAL_FLASH_OB_Launch                               build/stm32f4xx_hal_flash.o
HAL_FLASH_OB_Lock                                 build/stm32f4xx_hal_flash.o
HAL_FLASH_OB_Unlock                               build/stm32f4xx_hal_flash.o
HAL_FLASH_OperationErrorCallback                  build/stm32f4xx_hal_flash.o
HAL_FLASH_Program                                 build/stm32f4xx_hal_flash.o
HAL_FLASH_Program_IT                              build/stm32f4xx_hal_flash.o
HAL_FLASH_Unlock                                  build/stm32f4xx_hal_flash.o
HAL_GPIO_DeInit                                   build/stm32f4xx_hal_gpio.o
                                                  build/stm32f4xx_hal_msp.o
HAL_GPIO_EXTI_Callback                            build/stm32f4xx_hal_gpio.o
HAL_GPIO_EXTI_IRQHandler                          build/stm32f4xx_hal_gpio.o
HAL_GPIO_Init                                     build/stm32f4xx_hal_gpio.o
                                                  build/ili9341.o
                                                  build/stm32f4xx_hal_rcc.o
                                                  build/stm32f4xx_hal_msp.o
                                                  build/main.o
HAL_GPIO_LockPin                                  build/stm32f4xx_hal_gpio.o
HAL_GPIO_ReadPin                                  build/stm32f4xx_hal_gpio.o
HAL_GPIO_TogglePin                                build/stm32f4xx_hal_gpio.o
HAL_GPIO_WritePin                                 build/stm32f4xx_hal_gpio.o
                                                  build/ili9341.o
                                                  build/main.o
HAL_GetDEVID                                      build/stm32f4xx_hal.o
HAL_GetHalVersion                                 build/stm32f4xx_hal.o
HAL_GetREVID                                      build/stm32f4xx_hal.o
HAL_GetTick                                       build/stm32f4xx_hal.o
                                                  build/uptime.o
                                                  build/stm32f4xx_hal_uart.o
                                                  build/stm32f4xx_hal_spi.o
                                                  build/stm32f4xx_hal_i2c.o
                                                  build/stm32f4xx_hal_pwr_ex.o
                                                  build/stm32f4xx_hal_dma.o
                                                  build/stm32f4xx_hal_flash.o
                                                  build/stm32f4xx_hal_rcc_ex.o
                                                  build/stm32f4xx_hal_rcc.o
                                                  build/stm32f4xx_hal_can.o
HAL_GetTickFreq                                   build/stm32f4xx_hal.o
HAL_GetTickPrio                                   build/stm32f4xx_hal.o
HAL_GetUID                                        build/stm32f4xx_hal.o
HAL_HalfDuplex_EnableReceiver                     build/stm32f4xx_hal_uart.o
HAL_HalfDuplex_EnableTransmitter                  build/stm32f4xx_hal_uart.o
HAL_HalfDuplex_Init                               build/stm32f4xx_hal_uart.o
HAL_I2CEx_ConfigAnalogFilter                      build/stm32f4xx_hal_i2c_ex.o
                                                  build/main.o
HAL_I2CEx_ConfigDigitalFilter                     build/stm32f4xx_hal_i2c_ex.o
                                                  build/main.o
HAL_I2C_AbortCpltCallback                         build/stm32f4xx_hal_i2c.o
HAL_I2C_AddrCallback                              build/stm32f4xx_hal_i2c.o
HAL_I2C_DeInit                                    build/stm32f4xx_hal_i2c.o
HAL_I2C_DisableListen_IT                          build/stm32f4xx_hal_i2c.o
HAL_I2C_ER_IRQHandler                             build/stm32f4xx_hal_i2c.o
HAL_I2C_EV_IRQHandler                             build/stm32f4xx_hal_i2c.o
HAL_I2C_EnableListen_IT                           build/stm32f4xx_hal_i2c.o
HAL_I2C_ErrorCallback                             build/stm32f4xx_hal_i2c.o
HAL_I2C_GetError                                  build/stm32f4xx_hal_i2c.o
HAL_I2C_GetMode                                   build/stm32f4xx_hal_i2c.o
HAL_I2C_GetState                                  build/stm32f4xx_hal_i2c.o
HAL_I2C_Init                                      build/stm32f4xx_hal_i2c.o
                                                  build/main.o
HAL_I2C_IsDeviceReady                             build/stm32f4xx_hal_i2c.o
HAL_I2C_ListenCpltCallback                        build/stm32f4xx_hal_i2c.o
HAL_I2C_MasterRxCpltCallback                      build/stm32f4xx_hal_i2c.o
HAL_I2C_MasterTxCpltCallback                      build/stm32f4xx_hal_i2c.o
HAL_I2C_Master_Abort_IT                           build/stm32f4xx_hal_i2c.o
HAL_I2C_Master_Receive                            build/stm32f4xx_hal_i2c.o
HAL_I2C_Master_Receive_DMA                        build/stm32f4xx_hal_i2c.o
HAL_I2C_Master_Receive_IT                         build/stm32f4xx_hal_i2c.o
HAL_I2C_Master_Sequential_Receive_IT              build/stm32f4xx_hal_i2c.o
HAL_I2C_Master_Sequential_Transmit_IT             build/stm32f4xx_hal_i2c.o
HAL_I2C_Master_Transmit                           build/stm32f4xx_hal_i2c.o
HAL_I2C_Master_Transmit_DMA                       build/stm32f4xx_hal_i2c.o
HAL_I2C_Master_Transmit_IT                        build/stm32f4xx_hal_i2c.o
HAL_I2C_MemRxCpltCallback                         build/stm32f4xx_hal_i2c.o
HAL_I2C_MemTxCpltCallback                         build/stm32f4xx_hal_i2c.o
HAL_I2C_Mem_Read                                  build/stm32f4xx_hal_i2c.o
HAL_I2C_Mem_Read_DMA                              build/stm32f4xx_hal_i2c.o
HAL_I2C_Mem_Read_IT                               build/stm32f4xx_hal_i2c.o
HAL_I2C_Mem_Write                                 build/stm32f4xx_hal_i2c.o
HAL_I2C_Mem_Write_DMA                             build/stm32f4xx_hal_i2c.o
HAL_I2C_Mem_Write_IT                              build/stm32f4xx_hal_i2c.o
HAL_I2C_MspDeInit                                 build/stm32f4xx_hal_msp.o
HAL_I2C_MspInit                                   build/stm32f4xx_hal_msp.o
HAL_I2C_SlaveRxCpltCallback                       build/stm32f4xx_hal_i2c.o
HAL_I2C_SlaveTxCpltCallback                       build/stm32f4xx_hal_i2c.o
HAL_I2C_Slave_Receive                             build/stm32f4xx_hal_i2c.o
HAL_I2C_Slave_Receive_DMA                         build/stm32f4xx_hal_i2c.o
HAL_I2C_Slave_Receive_IT                          build/stm32f4xx_hal_i2c.o
HAL_I2C_Slave_Sequential_Receive_IT               build/stm32f4xx_hal_i2c.o
HAL_I2C_Slave_Sequential_Transmit_IT              build/stm32f4xx_hal_i2c.o
HAL_I2C_Slave_Transmit                            build/stm32f4xx_hal_i2c.o
HAL_I2C_Slave_Transmit_DMA                        build/stm32f4xx_hal_i2c.o
HAL_I2C_Slave_Transmit_IT                         build/stm32f4xx_hal_i2c.o
HAL_IncTick                                       build/stm32f4xx_hal.o
                                                  build/main.o
HAL_Init                                          build/stm32f4xx_hal.o
                                                  build/main.o
HAL_InitTick                                      build/stm32f4xx_hal_timebase_tim.o
                                                  build/stm32f4xx_hal_rcc_ex.o
                                                  build/stm32f4xx_hal_rcc.o
HAL_LIN_Init                                      build/stm32f4xx_hal_uart.o
HAL_LIN_SendBreak                                 build/stm32f4xx_hal_uart.o
HAL_MPU_ConfigRegion                              build/stm32f4xx_hal_cortex.o
HAL_MPU_Disable                                   build/stm32f4xx_hal_cortex.o
HAL_MPU_Enable                                    build/stm32f4xx_hal_cortex.o
HAL_MspDeInit                                     build/stm32f4xx_hal.o
HAL_MspInit                                       build/stm32f4xx_hal_msp.o
HAL_MultiProcessor_EnterMuteMode                  build/stm32f4xx_hal_uart.o
HAL_MultiProcessor_ExitMuteMode                   build/stm32f4xx_hal_uart.o
HAL_MultiProcessor_Init                           build/stm32f4xx_hal_uart.o
HAL_NVIC_ClearPendingIRQ                          build/stm32f4xx_hal_cortex.o
HAL_NVIC_DisableIRQ                               build/stm32f4xx_hal_cortex.o
                                                  build/modbus_proxy.o
                                                  build/stm32f4xx_hal_msp.o
HAL_NVIC_EnableIRQ                                build/stm32f4xx_hal_cortex.o
                                                  build/modbus_proxy.o
                                                  build/stm32f4xx_hal_timebase_tim.o
                                                  build/stm32f4xx_hal_msp.o
                                                  build/main.o
HAL_NVIC_GetActive                                build/stm32f4xx_hal_cortex.o
HAL_NVIC_GetPendingIRQ                            build/stm32f4xx_hal_cortex.o
HAL_NVIC_GetPriority                              build/stm32f4xx_hal_cortex.o
HAL_NVIC_GetPriorityGrouping                      build/stm32f4xx_hal_cortex.o
HAL_NVIC_SetPendingIRQ                            build/stm32f4xx_hal_cortex.o
HAL_NVIC_SetPriority                              build/stm32f4xx_hal_cortex.o
                                                  build/stm32f4xx_hal.o
                                                  build/stm32f4xx_hal_timebase_tim.o
                                                  build/stm32f4xx_hal_msp.o
                                                  build/main.o
HAL_NVIC_SetPriorityGrouping                      build/stm32f4xx_hal_cortex.o
                                                  build/stm32f4xx_hal.o
HAL_NVIC_SystemReset                              build/stm32f4xx_hal_cortex.o
HAL_PWREx_ControlVoltageScaling                   build/stm32f4xx_hal_pwr_ex.o
HAL_PWREx_DisableBkUpReg                          build/stm32f4xx_hal_pwr_ex.o
HAL_PWREx_DisableFlashPowerDown                   build/stm32f4xx_hal_pwr_ex.o
HAL_PWREx_DisableOverDrive                        build/stm32f4xx_hal_pwr_ex.o
HAL_PWREx_EnableBkUpReg                           build/stm32f4xx_hal_pwr_ex.o
HAL_PWREx_EnableFlashPowerDown                    build/stm32f4xx_hal_pwr_ex.o
HAL_PWREx_EnableOverDrive                         build/stm32f4xx_hal_pwr_ex.o
                                                  build/main.o
HAL_PWREx_EnterUnderDriveSTOPMode                 build/stm32f4xx_hal_pwr_ex.o
HAL_PWREx_GetVoltageRange                         build/stm32f4xx_hal_pwr_ex.o
HAL_PWR_ConfigPVD                                 build/stm32f4xx_hal_pwr.o
HAL_PWR_DeInit                                    build/stm32f4xx_hal_pwr.o
HAL_PWR_DisableBkUpAccess                         build/stm32f4xx_hal_pwr.o
HAL_PWR_DisablePVD                                build/stm32f4xx_hal_pwr.o
HAL_PWR_DisableSEVOnPend                          build/stm32f4xx_hal_pwr.o
HAL_PWR_DisableSleepOnExit                        build/stm32f4xx_hal_pwr.o
HAL_PWR_DisableWakeUpPin                          build/stm32f4xx_hal_pwr.o
HAL_PWR_EnableBkUpAccess                          build/stm32f4xx_hal_pwr.o
HAL_PWR_EnablePVD                                 build/stm32f4xx_hal_pwr.o
HAL_PWR_EnableSEVOnPend                           build/stm32f4xx_hal_pwr.o
HAL_PWR_EnableSleepOnExit                         build/stm32f4xx_hal_pwr.o
HAL_PWR_EnableWakeUpPin                           build/stm32f4xx_hal_pwr.o
HAL_PWR_EnterSLEEPMode                            build/stm32f4xx_hal_pwr.o
HAL_PWR_EnterSTANDBYMode                          build/stm32f4xx_hal_pwr.o
HAL_PWR_EnterSTOPMode                             build/stm32f4xx_hal_pwr.o
HAL_PWR_PVDCallback                               build/stm32f4xx_hal_pwr.o
HAL_PWR_PVD_IRQHandler                            build/stm32f4xx_hal_pwr.o
HAL_RCCEx_DisablePLLI2S                           build/stm32f4xx_hal_rcc_ex.o
HAL_RCCEx_DisablePLLSAI                           build/stm32f4xx_hal_rcc_ex.o
HAL_RCCEx_EnablePLLI2S                            build/stm32f4xx_hal_rcc_ex.o
HAL_RCCEx_EnablePLLSAI                            build/stm32f4xx_hal_rcc_ex.o
HAL_RCCEx_GetPeriphCLKConfig                      build/stm32f4xx_hal_rcc_ex.o
HAL_RCCEx_GetPeriphCLKFreq                        build/stm32f4xx_hal_rcc_ex.o
HAL_RCCEx_PeriphCLKConfig                         build/stm32f4xx_hal_rcc_ex.o
HAL_RCC_CSSCallback                               build/stm32f4xx_hal_rcc.o
HAL_RCC_ClockConfig                               build/stm32f4xx_hal_rcc.o
                                                  build/main.o
HAL_RCC_DeInit                                    build/stm32f4xx_hal_rcc_ex.o
                                                  build/stm32f4xx_hal_rcc.o
HAL_RCC_DisableCSS                                build/stm32f4xx_hal_rcc.o
HAL_RCC_EnableCSS                                 build/stm32f4xx_hal_rcc.o
HAL_RCC_GetClockConfig                            build/stm32f4xx_hal_rcc.o
                                                  build/stm32f4xx_hal_timebase_tim.o
HAL_RCC_GetHCLKFreq                               build/stm32f4xx_hal_rcc.o
HAL_RCC_GetOscConfig                              build/stm32f4xx_hal_rcc.o
HAL_RCC_GetPCLK1Freq                              build/stm32f4xx_hal_rcc.o
                                                  build/stm32f4xx_hal_uart.o
                                                  build/stm32f4xx_hal_i2c.o
HAL_RCC_GetPCLK2Freq                              build/stm32f4xx_hal_rcc.o
                                                  build/stm32f4xx_hal_uart.o
                                                  build/stm32f4xx_hal_timebase_tim.o
HAL_RCC_GetSysClockFreq                           build/stm32f4xx_hal_rcc.o
HAL_RCC_MCOConfig                                 build/stm32f4xx_hal_rcc.o
HAL_RCC_NMI_IRQHandler                            build/stm32f4xx_hal_rcc.o
HAL_RCC_OscConfig                                 build/stm32f4xx_hal_rcc.o
                                                  build/main.o
HAL_ResumeTick                                    build/stm32f4xx_hal_timebase_tim.o
HAL_SPI_Abort                                     build/stm32f4xx_hal_spi.o
HAL_SPI_AbortCpltCallback                         build/stm32f4xx_hal_spi.o
HAL_SPI_Abort_IT                                  build/stm32f4xx_hal_spi.o
HAL_SPI_DMAPause                                  build/stm32f4xx_hal_spi.o
HAL_SPI_DMAResume                                 build/stm32f4xx_hal_spi.o
HAL_SPI_DMAStop                                   build/stm32f4xx_hal_spi.o
HAL_SPI_DeInit                                    build/stm32f4xx_hal_spi.o
HAL_SPI_ErrorCallback                             build/stm32f4xx_hal_spi.o
HAL_SPI_GetError                                  build/stm32f4xx_hal_spi.o
HAL_SPI_GetState                                  build/stm32f4xx_hal_spi.o
HAL_SPI_IRQHandler                                build/stm32f4xx_hal_spi.o
HAL_SPI_Init                                      build/stm32f4xx_hal_spi.o
                                                  build/main.o
HAL_SPI_MspDeInit                                 build/stm32f4xx_hal_msp.o
HAL_SPI_MspInit                                   build/stm32f4xx_hal_msp.o
HAL_SPI_Receive                                   build/stm32f4xx_hal_spi.o
HAL_SPI_Receive_DMA                               build/stm32f4xx_hal_spi.o
HAL_SPI_Receive_IT                                build/stm32f4xx_hal_spi.o
HAL_SPI_RxCpltCallback                            build/stm32f4xx_hal_spi.o
HAL_SPI_RxHalfCpltCallback                        build/stm32f4xx_hal_spi.o
HAL_SPI_Transmit                                  build/stm32f4xx_hal_spi.o
                                                  build/ili9341.o
HAL_SPI_TransmitReceive                           build/stm32f4xx_hal_spi.o
HAL_SPI_TransmitReceive_DMA                       build/stm32f4xx_hal_spi.o
